:1040000000080020754B0000714B0000714B000050
:10401000714B0000714B0000714B0000714B0000B0
:10402000714B0000714B0000714B0000714B0000A0
:10403000714B0000D8B10200714B0000714B0000C1
:104040000D56000051480200714B000091400200E3
:10405000BD4802005D480200754802005548020054
:1040600025510000E5510000714B0000C9470000D8
:1040700055480000714B0000714B0000714B00006F
:10408000714B000029520000714B0000714B000081
:10409000714B0000714B0000714B0000714B000030
:1040A000714B0000714B0000714B0000C1480200D1
:1040B00059480200398F000001490200714B00008D
:1040C000012F0200714B000010B5054C237833B965
:1040D000044B13B10448AFF300800123237010BDDB
:1040E0007411002000000000C0D1020008B5034B8D
:1040F0001BB103490348AFF3008008BD0000000076
:1041000078110020C0D10200154B002B08BF134BC3
:104110009D46A3F5803A00218B460F461348144A6A
:10412000121A26F06CFF0F4B002B00D098470E4B55
:10413000002B00D098470020002104000D000D48FE
:10414000002802D00C48AFF3008026F0F1FE2000DA
:10415000290000F03DF926F0D7FE00BF000008005E
:104160000008002000000000000000007411002082
:10417000404B0020000000000000000010B500F0DF
:104180002DFC002304220921032003F019FF002342
:1041900004220F210320BDE8104003F011BF00BF2F
:1041A00008B501210B4802F0FFFA01210A4802F08C
:1041B000FBFA01214FF4545002F0F6FA01210748AE
:1041C00002F0F2FA00F028FC00F0A2FCBDE8084082
:1041D00000F074BC006204000022040000250A0004
:1041E000012304220521002003F0EABEF0B55A4A5B
:1041F0005A4B01215164DC6C8BB0240E05A804F0ED
:10420000ABF98E2C00F29E805549564BD1F8B00088
:104210004FF0501240F00404C1F8B0401A601A6325
:104220001A66C3F89020C3F8C020C3F8F020C1F884
:10423000B0004B4AD36A23F07F0343F02003D362DC
:104240009DF81530012B04D1474A136843F004034D
:104250001360464E464D96E80F0001AC00272F60D4
:1042600084E80F0006F11005204603F0A5FB0FCDF2
:1042700005AC0FC4394B2A685B6822801B0365D5E7
:104280003C4B1B884FF6FF72934208BF40F23F132E
:10429000ADF81A3005A802F02FFD374800F0C4FC35
:1042A00001221146022002F099FD01221146002050
:1042B00002F042FC00221146032002F08FFD012192
:1042C0002E4802F071FA736A059305A820238DF831
:1042D000143002F05BFD4FF4004000F0FBFC0221C3
:1042E000274802F045FE0221264802F041FE022145
:1042F000254802F03DFE254B93E8070005AB03C3BC
:104300000024012105A81A708DF814108DF81540AD
:104310008DF816408DF817408DF818408DF81A402A
:1043200004F0E8F80AA800F8284D03F0C7FA184A84
:10433000136823F4E06343F40073136001F068F939
:104340000BB0F0BD8F2C3FF67BAF72E7114B1B8893
:10435000ADF81A309EE700BF00000E40B081E00FBC
:1043600000400E4000A0004064310E4068B30200DF
:10437000B40AC6430001E00F00F0490230053E00D8
:1043800002001E00030020000500240090B302007C
:1043900000500E40B881E00F10B500F0C9F9B0F53B
:1043A000B47F08D2094C23680133B3F5803F236002
:1043B00006DA002010BD054B00221A60012010BD56
:1043C00000F0D4F800232360012010BDA8110020C4
:1043D00010B5FFF70BFFFFF7E3FEFFF7CFFE254811
:1043E00005F074FB98B917F077FE17F0BDFE17F0D3
:1043F0007FFE17F0C5FE17F087FE17F091FE17F04D
:1044000053FE17F099FE17F05BFE17F0A1FE00F0C7
:1044100035FAFFF7E5FE04E000F008F900F07AF95C
:1044200050B100F03DF9FFF7B7FFC8B900F0FEF852
:1044300000F070F90028F4D102F08AFF05F010FBBB
:1044400005F078FA02F086FFEBE7204600F0C4F8AA
:1044500000F060F90028DFD1FFF79EFF0028DBD0D5
:1044600005F0D7FA04460028D6D000F07DFA0028DF
:10447000EED1EAE79CB302002DE9F0410446B0F822
:104480000A8083F00103A8EB03080F46154602F0EB
:104490006BFF23891FFA88F8984562D91E2D0646BE
:1044A00038D92389A8EB0308C8EB0818B5EB480FE7
:1044B00057D820881E2D00EBC000A84604EB8000D2
:1044C00028BF4FF01E0839464246103026F073FDD3
:1044D000238822886089511C03EBC30304EB830308
:1044E00091FBF0F200FB121292B2C3F80C80228012
:1044F000E38801339BB2E380238901339BB2B5EBA0
:10450000080547442381D4D1304602F031FF012011
:10451000BDE8F081208800EBC00004EB8000394644
:104520002A46103026F047FD238822886089511CD6
:1045300003EBC30391FBF0F204EB830300FB1212C5
:1045400092B2DD602280E38801339BB2E38023894D
:1045500001339BB23046238102F00AFF0120BDE8FF
:10456000F08102F005FF0020BDE8F081084B10B497
:1045700000241C8021465C8003F10C009C804FF4D9
:10458000BD62DC801C815DF8044B26F038BD00BFA5
:104590007C09002030B4064B064C01251D71042116
:1045A0000022206030BC19805A80FFF7DFBF00BFB7
:1045B0000C080020AC11002038B5064C0D460A4608
:1045C0000146601D26F0F7FCADB200236580237123
:1045D000238038BD0C080020014658B10368064806
:1045E0001A0202F4E062C3F307231A4304320023E1
:1045F000FFF742BF704700BF7C09002010B502F0F2
:10460000B3FE094A91885389013191FBF3F404FB0D
:1046100013139BB293801389013B9BB21381BDE8B6
:10462000104002F0A5BE00BF7C09002070B51A4DF5
:10463000EB889BB2002B2ED0184E22E06C88A4B2DF
:1046400004EBC404A40002F093FE2B191034D968C3
:104650003368C9B228199847E8B902F085FE6A881C
:104660006B89013292FBF3F101FB13239BB26B8048
:10467000EB88013B9BB2EB8002F07AFEEB889BB2A9
:104680004BB102F071FEEC88A4B2002CD6D102F03E
:104690006FFE2368FFDE70BD7C090020AC11002096
:1046A00010B5184C23791BBB23889BB203BBD4F8ED
:1046B0000500154A20F47F4323F0070393421BD0E3
:1046C00004F1090105F022FC104B114819680B6830
:1046D0001A0202F4E062C3F307231A4304320123EF
:1046E000FFF7CAFE0121042200232171228063808A
:1046F000BDE81040FFF79ABF04F1090000F086F909
:10470000E2E700BF0C0800202000FF001816002080
:104710007C090020054B1A792AB9188880B2B0FAB2
:1047200080F0400970470020704700BF0C0800204F
:10473000044B1A895889801A0138C0EB00104000D8
:10474000704700BF7C090020704700BF10B4044CC4
:10475000044B0A46014620685DF8044B01F034BF63
:10476000700F00206947000019461046FFF746BF4A
:1047700038B5104C022005F09BF920680368DA6E0A
:1047800022F4E022DA66DA6E4FF4004542F4802229
:10479000DA6602219D6401F099FA074B2068074907
:1047A0004FF4B47201F0D8FE054A064B12681A6045
:1047B00038BD00BF700F002049470000B411002031
:1047C000201300201C1300201E4B186803681A6C6D
:1047D000120435D530B54FF400421B4C9A6423685F
:1047E00085B033B9042005F063F9FFF7C1FF05B0C8
:1047F00030BD256804AB002143F8041D01910291EE
:10480000013D02AA01A9256001F004FB01980028DE
:10481000EDD002990329EAD90C4B0D4C1A6813020A
:1048200003F4E063C2F307221343043323602368D5
:104830009942DCD32168FFF7BFFEFFF799FFD6E767
:10484000704700BF700F00201C130020B41100201F
:10485000B011002010B5084C23681B681B6C9B042A
:1048600000D410BD022005F023F923681B684FF423
:1048700000529A6410BD00BF700F0020F0B58BB0DD
:104880002B4B019300232B4EADF80C30ADF81030BC
:104890008DF812308DF813308DF815308DF81730F3
:1048A00003238DF814308DF818302349234A0791DB
:1048B0004FF4E134022301A902948DF816304FF42D
:1048C000805441F61E6330680892ADF80E40ADF892
:1048D000243001F03DFB029B194D1A481A4F9B09E9
:1048E0002B60FFF757FE19490B2002F091FD184984
:1048F0000C2002F08DFD174B306817494FF4006211
:10490000C3F88021C3F880411A6002681C60D76632
:104910009164D46C114B124944F42044D4644FF494
:10492000B47201F019FE0F4B2A681A600BB0F0BD8B
:1049300000000140700F0020740F0020F40F0020D1
:10494000201300204D47000030002401C94700001B
:104950005548000000E100E0FFFF0100494700006A
:10496000B41100201C13002003681B4A23F47F436A
:1049700023F0070393420ED110B54368044613F0A9
:10498000010012D15A0717D413F0020F18BF0120EB
:104990001B0702D410BD002070470022114640F6CC
:1049A000092017F00BFB012010BD17F0FFFA636818
:1049B0005A074FF00100E7D5002240F2951011464A
:1049C00017F0FCFA636813F0020F4FF0010018BFF4
:1049D00001201B07DED5E0E7A000010330B50A4D3A
:1049E0000FCD87B001AC0FC42B68236001A94FF035
:1049F000FF301CF019FF20B901214FF0FF301CF0EF
:104A000016FF07B030BD00BFE8B302000022114618
:104A100040F2831017F02EBB70B5224D224E0FCD01
:104A200088B002AC0FC495E8030084E803000121BC
:104A30001E4801F0B9FE01211D4801F0B5FE012418
:104A40001C4B0493304602A98DF8164003F034FE47
:104A5000234604220621022003F0B2FA2246002354
:104A60000721022003F0ACFA234604220821022089
:104A700003F0A6FA042223461146002003F0A0FA10
:104A80000D4BB3670B2249F23D6372670193019BA3
:104A9000002B05DD019B013B0193019B002BF9DC01
:104AA00008B070BDFCB302000004014000250A00FC
:104AB0000032040040420F000B0B000B002310B526
:104AC0001A460621022003F07BFA00231A4607212A
:104AD000022003F075FA012300220821022003F0CE
:104AE0006FFA094C002210460123042103F068FAF2
:104AF000204603F04BFE0023A36719466367034873
:104B0000BDE8104001F050BE000401400032040036
:104B100038B5144B144D10221A601424FF21284676
:104B200003F05CFE013CF9D1104B0F4D10221A60CE
:104B30001E24FF21284603F051FE013CF9D1052433
:104B4000FF21094803F04AFE013CF9D1054B064814
:104B500010251D60B92103F041FE044B20461D6065
:104B600038BD00BF0CA00044000401400CA000466A
:104B7000FEE700BF08B500F075F8064B0648834213
:104B800006D2064A52F8041B43F8041B9842F9D88F
:104B9000FFF7BAFA0008002074110020CCD10200FF
:104BA0000048704700F049020F4BD3F8943003F0EF
:104BB0000703032B14D0042B0FD0022B0AD00B4B6E
:104BC0001868094BD3F80031C3F304230133B0FB59
:104BD000F3F07047064B1868F3E7064B1868F0E7E8
:104BE0004FF40040EDE700BF00400E407C10002075
:104BF000781000208010002008B5FFF7D5FF054B86
:104C0000054AD3F80831C3F308230133B0FBF3F0AE
:104C1000106008BD00400E4074100020014B186861
:104C2000704700BF7810002008B50B4B0B4A186086
:104C3000D2F8943003F00703022B00D008BDFFF731
:104C4000B3FFD2F80831064AC3F308230133B0FB9F
:104C5000F3F0106008BD00BF7810002000400E4047
:104C6000741000200F4A104B104810B49360D2F813
:104C700088100F4B0F4C41F47001C2F888105A6D28
:104C800042F400525A651A6C22F003021A64236837
:104C900023F00103236003685DF8044B23F0805385
:104CA0000360704700ED00E00040000060300E40FF
:104CB00000300E4074300E404FF40040704700BF8B
:104CC0004FF47A70704700BF014B1868704700BFFF
:104CD0008010002008B50B4B0B4A1860D2F89430B6
:104CE00003F00703042B00D008BDFFF75DFFD2F8E7
:104CF0000831064AC3F308230133B0FBF3F0106018
:104D000008BD00BF8010002000400E40741000203D
:104D10002DE9F04F594C85B025789DF844A09DF8B9
:104D20004CE0002D66D0072A14465FD80E9A002A60
:104D30005CD00F9A002A59D0129AB2F5006F55DC58
:104D4000012806460F464ED0DFF844914FEA04187A
:104D500009EB0802127B002A50D0494A0021650164
:104D6000CDE90111039102EB050C002F48D15751F9
:104D70009CF802009CF80310CCF8047040F010007E
:104D800041F03001CCE902778CF802008CF8031076
:104D9000BAF1000F65D00093129B515B013B63F3A6
:104DA0000E11515315440E99EB78A9606EF38303ED
:104DB0000F996960012EEB703CD0149B002B56D0EC
:104DC00009EB08032046149C49F80840159D5D60D6
:104DD0000024624669465E739C6003F06FF92046CA
:104DE00005B0BDE8F08F109A002AADD1254805B076
:104DF000BDE8F08F244805B0BDE8F08F2348F6E702
:104E000051519CF802B09CF80300CCF804104BF010
:104E1000100B40F00300CCE902118CF802B08CF8C2
:104E20000300BAF1000FB6D1C1B241F030018CF8E5
:104E30000310B0E71323EB6095E80F0005F1100EA7
:104E40008EE80F00EA69109B6B616FF0030161F35C
:104E50009F02012FEA61B3D10F9BAB61109B6B6086
:104E6000AEE7C9B241F003018CF8031093E7AB78C9
:104E7000149A62F30413AB70A2E700BFA4140020DD
:104E8000A4130020018000F0028000F0078000F0F1
:104E90002413002038B5114B1B7883B188B1054627
:104EA00002F062FA0E4900220B461C7B103354B10B
:104EB0000132082AF9D102F05BFA0A4838BD0A48E3
:104EC00038BD0A4838BD13012A60CA180125CC50E4
:104ED000157302F04DFA204638BD00BFA41400201F
:104EE00024130020048000F0028000F0018000F014
:104EF00010B5174A82B00023126801928DF8043071
:104F000002F032FA134B1C78E4B901221A7002F055
:104F10002FFA114B04220DEB02001C731C7783F84F
:104F20002C4083F83C4083F84C4083F85C4083F885
:104F30006C4083F87C408DF8072003F095F82046FC
:104F400002B010BD02F014FA044802B010BD00BF58
:104F500014B40200A414002024130020038000F0E5
:104F6000F0B589B09DF838500F9C9DF84070119EA7
:104F700003950494129D0193002400920B4602466F
:104F8000CDE905760795029421462046FFF7C0FE3D
:104F900009B0F0BDF0B589B09DF838500F9C9DF870
:104FA0004070119E03950494129D01930024009279
:104FB0000B460246CDE9057607950294204601216D
:104FC000FFF7A6FE09B0F0BD08B50A4B1A786AB122
:104FD000072809D8084A02EB00131B7B43B10021C4
:104FE00003F038F8002008BD044808BD044808BD97
:104FF000044808BDA414002024130020018000F000
:10500000028000F0078000F008B50A4B1A786AB1F8
:10501000072809D8084A02EB00131B7B43B1012182
:1050200003F018F8002008BD044808BD044808BD76
:10503000044808BDA414002024130020018000F0BF
:10504000028000F0078000F008B50A4B1A7862B1C0
:10505000072808D8084A02EB00131B7B3BB103F07A
:105060007DF8002008BD054808BD054808BD054875
:1050700008BD00BFA414002024130020018000F00C
:10508000028000F0078000F00D4B1B78A3B10728C9
:1050900010D879B10B4B03EB00131B7B73B10A4B98
:1050A00001221B6A02FA00F018401ABF00200A70A1
:1050B00008707047054870470548704705487047B5
:1050C000A41400202413002000200E40018000F0D2
:1050D000028000F0078000F00D4B1A7892B107288B
:1050E0000DD861B10B4A02EB00131B7B6BB110B5FD
:1050F0000C4603F049F800232060184610BD064B0B
:1051000018467047054B18467047054B18467047C0
:10511000A414002024130020018000F0028000F07D
:10512000078000F02DE9F8431D4E326EF36E12EA4F
:10513000030834D41B4CDFF870900127002506E0EB
:105140000135082D4FEA470704F1100425D018EA6D
:10515000070F2846F4D02368B766002BF0D0D4E9B7
:1051600001210131A1609847637B012BE8D109EB54
:10517000451303F1080218330028E1D1117960F3D7
:10518000410111711A79013560F34102082D1A713C
:105190004FEA470704F11004D9D1BDE8F883FEE7D0
:1051A00000200E4024130020A4130020054B4FF4D0
:1051B00000314FF40072C3F880111960C3F88021E8
:1051C0001A60704700E100E038B504460D4602F071
:1051D000CBF8034B43F82450BDE8384002F0C8B880
:1051E000A81400200E4B70B5D3F82844D3F81C1433
:1051F00045F255520C401440C3F824447CB1094E8A
:10520000012594FAA4F0B0FA80F005FA00F256F8FD
:10521000203024EA020403B19847002CF1D170BD7C
:1052200000A00040A81400200E4B70B5D3F828440D
:10523000D3F81C144AF6AA220C401440C3F82444A4
:105240007CB1094E012594FAA4F0B0FA80F005FA79
:1052500000F256F8203024EA020403B19847002CEB
:10526000F1D170BD00A00040A814002008B5034B88
:105270001B6803B19847012008BD00BFEC14002053
:105280000B4A0C4B70B510600B4C0C4D00221A8071
:10529000C4E9005103F0CEF8C30300D470BD03F09D
:1052A000C3F86368002BF9D00420BDE870401847AC
:1052B000EC140020E8140020F01400206D520000CF
:1052C0002DE9F8432B4E02F047F83478074614B91D
:1052D00002F0B8FA3478284DDFF8A0802B684FF040
:1052E0000009CCB9727822BB13B10320984738B1BA
:1052F000002002F0C1F903246B680BB120469847E7
:10530000AB6803B32046984710F0010F81461DD0CB
:1053100034782B68002CE5D013B10120984730B3C6
:10532000D8F8103023F00403C8F8103030BF01243F
:10533000E2E71BB1022098470028E1D0002002F0EC
:10534000C7F80224D8E719F0010FE1D1A31E012B01
:1053500005D9384602F004F82046BDE8F88302F08B
:1053600083FA384601F0FCFF2046BDE8F883044686
:10537000C6E700BFE8140020F014002000ED00E0B4
:105380000238C3B2012B03D8024A135C0133135411
:10539000704700BFE81400200238C3B2012B00D9C7
:1053A0007047034A135C002BFAD0013B135470473B
:1053B000E8140020054B1A782AB95B78002B0CBF43
:1053C0000320022070470120704700BFE81400202E
:1053D000F0B42D4F2D4B3D6803F1300029460026D7
:1053E00053F8042C3AB10A681AB11C780A7994422D
:1053F00001D9191F012608338342F1D1002E40D173
:10540000234F244B396803F13000002653F8042C55
:105410003AB10A681AB11C780A79944201D2191F6C
:10542000012608338342F1D14EBB2B681A4A0BB3D5
:10543000D369297923F0FF030B43D361136B43F046
:10544000804313633B681A686AB1134A1979D369B8
:1054500023F47F4343EA0123D361136B43F00043FA
:105460001363F0BC70470C4A136B23F000431363C3
:10547000F0BC7047136B23F080431363E2E739609D
:10548000D3E739600D46BBE7381500204C150020E6
:105490003C1500207C15002000300E4038B5264B0E
:1054A00040289C6817DD4F2829DC2449244A254DD3
:1054B00003C985E8030092E80300234A012C82E82F
:1054C00003002DD0012002F0E9FC012C02D11A4B7F
:1054D00000229A6038BD1D491D4A1A4D03C985E84E
:1054E000030092E80300184A012C82E8030002D16D
:1054F0004AF6E8529A60002002F0D0FCE5E7154930
:10550000154A104D03C985E8030092E803000E4ACE
:10551000012C82E8030007D0022002F0BFFCD4E790
:105520004AF6E8529A60CDE74AF6E8529A600220BD
:1055300002F0B4FCC9E700BF00300E401015002097
:105540002815002048150020781500200815002097
:10555000201500201815002030150020FFF79EBFF1
:10556000254B1A6B596A0A4010B523D452001DD539
:10557000224A12681468ACB10021116051601A6AA5
:10558000196AD2B2C9B28A42F9D11D491D4B0868C5
:10559000D200A3FB0232A0EB920202F3070040B25A
:1055A0000121A047144B4FF08042DA62BDE8104061
:1055B000FFF70EBF144A12681468ACB100211160E5
:1055C00051601A6A196AD2B2C9B28A42F9D10C4939
:1055D0000C4B0868D200A3FB0232A0EB920202F34C
:1055E000070040B20021A047034B4FF00042DA62AF
:1055F000BDE81040FFF7ECBE00300E40381500202B
:1056000004150020CDCCCCCC3C150020FFF7A8BF62
:1056100030B53B4B3B4883B03022002101241C7045
:1056200025F0EDFC30220021374825F0E8FC374A10
:1056300037483849384B03600B601368526DC3F329
:105640000743FF2B0ED0D2B2FF2A0AD03348D10035
:10565000A0FB010103EB830002EBD00203EB9103FB
:1056600001E013469F222E4D2E4C2A6001A8236094
:1056700002F072FF9DF80530012B11D02A4B2B4907
:105680004FF04042DA621A6B012022F040421A6366
:10569000C1F880010860FFF79BFE002003B030BD19
:1056A0002B68234D234A24482860A3F1280181F365
:1056B00008012971A3F1320181F308012973A3F1D3
:1056C000230181F308012D3B83F30803117316496D
:1056D00013759060A86010610B6A0A6ADBB2D2B2DF
:1056E0009342F9D10D4A2068DB00A2FB0323A0EB13
:1056F000930303F3070040B2FFF7D0FEBEE700BFFD
:10570000FC1400204815002078150020B081E00F1F
:10571000381500203C15002040150020CDCCCCCC05
:10572000001500200415002000300E4000E100E0CC
:1057300008150020201500205D55000038B50446EE
:105740000D4601F011FEA3889BB253B1638803EBB1
:10575000830304EB830408342C6001F009FE00206D
:1057600038BD2B6001F004FE004838BD0B7000F01E
:1057700070B504460E4601F0F7FDA3889BB2BBB19D
:1057800063886288E58803EB830304EB83030132BB
:105790000833336092FBF5F305FB13239BB2638060
:1057A000A388013B9BB2A38001F0E2FD002070BD05
:1057B000336001F0DDFD014870BD00BF0B7000F0EB
:1057C00030B504460D4683B0C07DE17EE5B10123CE
:1057D000042202F0F5FB01230222217F207E02F049
:1057E000EFFB94F83130022B36D0032B1CD1617FB4
:1057F000607E0023012202F0E3FB00230422A17F4C
:10580000A07E02F0DDFB0FE02B462A4602F0D8FB1B
:105810002B462A46217F207E02F0D2FB94F83130BD
:10582000022B04D0032B2CD0002003B030BD2B461C
:105830002A46617F607E02F0C3FB2B462A46A17F89
:10584000A07E02F0BDFB627F607E019501231146C0
:10585000009302F061FBE7E7617F607E0023012295
:1058600002F0AEFBA17FA07E0023042202F0A8FB81
:10587000627F607E01231146CDE9003302F04CFBCC
:10588000D2E72B462A46617F607E02F099FB2B46C9
:105890002A46A17FA07E02F093FBC5E790F8323044
:1058A000012280F82C202BB1012B03D0002380F89B
:1058B0002C30704703680A6830B50D4687B004463F
:1058C00001696D6880680494054C01950394002576
:1058D00001241C3302950094FFF75CFB07B030BD38
:1058E0006D64000090F83230012280F82D20ABB9B1
:1058F0000268343230B50D4687B004460B686D68D7
:10590000C168406804940A4C019503940025012461
:1059100002950094FFF724FB07B030BD012B03D0A4
:10592000002380F82D30704702682832E2E700BF7C
:1059300035590000F0B583B0906A01A91446FFF70D
:10594000FDFE154B98421BD0019B00251D619D60FB
:1059500001F00AFD019AD668074626B12946D2E928
:1059600000232046B04701A9A06AFFF701FFA06A03
:1059700083889BB23BB984F82D30384601F0F8FC9F
:10598000012003B0F0BD01A9FFF7D8FE2046019920
:10599000FFF7A8FFF1E700BF0B7000F0427E054B58
:1059A000417F02EB4202D20113440B449B00186872
:1059B000C0B27047E000851010B51D4B82B003F1F6
:1059C000100153F8044B627F824203D08B42F8D11E
:1059D00002B010BD94F83130022BF9D12046FFF708
:1059E000DDFF637D2075022BF2D194F82E3003F099
:1059F000FF02002BECD102A9606801F8012DFFF72E
:105A000043FB237D63B194F82F304BB90028DFD1DD
:105A10009DF80730002BDBD06068FFF7D5FAD7E799
:105A2000002384F82F306068FFF7EEFAD0E700BF5C
:105A3000A815002090F8323053B902680123D360D2
:105A40001369D807FCD5536F43F0010353677047C0
:105A5000012B00D0704703685A6C9107FCD40122D7
:105A60005A609A68D207FCD55A6D42F001025A6515
:105A7000704700BF90F832306BB1012B00D07047F7
:105A80000268536C9B07FCD4536D022123F0010381
:105A900053655160704703685A6F022122F001027A
:105AA0005A67D960704700BF10B50446FFF720FA67
:105AB000201D0021FFF7EEF930B9014604F108007E
:105AC000FFF7E8F900B910BD004810BD0E7000F0F6
:105AD00003689B6803F00200DA0748BF40F001004A
:105AE000590748BF40F008001A0748BF40F020009F
:105AF000D90648BF40F040009A0648BF40F08000F9
:105B00005B0648BF40F40050704700BFF8B504463C
:105B100008200D46164601F02DFC0746A26A03E058
:105B200094F82E3023B977BB93889BB2002BF7D122
:105B300094F8323003BB2068076917F002074DD193
:105B40000423C36003699907FCD5436F012243F026
:105B50000203436784F830203EB12E4415F8011B40
:105B600002F046FEB5422068F8D103699906FCD5DB
:105B7000002F37D00020F8BD012B07D0012384F877
:105B800030300020F8BDFFF7CDFAC7E720688768FE
:105B900017F0020718BF84F830300FD03EB12E4402
:105BA00015F8011B02F010FBB5422068F8D183689C
:105BB0001A07DDD483681A07F9D5D9E7436C9A0729
:105BC000FCD40423436083689B07FCD5436D01220A
:105BD00043F00203436584F83020DFE7012384F8B3
:105BE0003030B9E794F8323063B1012BC2D122686A
:105BF000536C9B07FCD4536D082123F002035365BB
:105C00005160B7E723685A6F082122F002025A67F1
:105C10000020D960F8BD00BF10B590F82E30012BE0
:105C2000044607D094F82E30013BDBB284F82E30C6
:105C3000002010BD90F83130022B03D06068FFF7D0
:105C4000E3F9EFE7FFF7AAFE0028F7D0EAE700BF85
:105C5000F8B5044617460D4601F086FBA388E28896
:105C60009A422BD9268884460FCD06EB8606B600CD
:105C7000083604EB060EA051CEF80410CEF808202A
:105C8000CEF80C302868CEF8100023882288E088EF
:105C9000511C03EB830391FBF0F204EB830300FB45
:105CA000121292B208333B602280A38801339BB268
:105CB0006046A38001F05CFB0020F8BD00233B6040
:105CC00001F056FB0048F8BD0A7000F0002849D0EA
:105CD0002DE9F04182B00D46044601F045FB012D4F
:105CE000074619D0022D3FD1636A9B889BB2002BD7
:105CF00046D0A068FFF7A8F90023606A84F82C302A
:105D000083889BB2002B61D194F83130032B1CD0D7
:105D10002046FFF7AFFE18E0A36A9B889BB2002BDA
:105D20002ED06068FFF790F90023A06A84F82D3028
:105D300083889BB253BB94F832306BB923681869DF
:105D40008304F8D5023D012DD3D9384601F010FB6C
:105D5000002002B0BDE8F081012BEED12046FFF714
:105D6000B7FEEDE728487047032DEBD1A36A9B8867
:105D70009BB2002BD5D1636A9B889BB2002BD0D1FC
:105D800001F0F6FA214802B0BDE8F08101A9FFF761
:105D9000D5FC019960680831FFF79EF91C4B019A08
:105DA0009846136104E0FFF7E3FC019BDE683EB90F
:105DB000A36A18469B889BB201A9002BF3D1BAE7CE
:105DC0009B68002241462046B047F1E76946FFF74D
:105DD000B5FC0099A0680E4E0831FFF77DF9009BD5
:105DE0001E61636A18469B889BB26946002B8BD064
:105DF000FFF7BEFC009BDD68002DF2D09B680022FF
:105E000031462046A847ECE7027000F0087000F029
:105E1000097000F02DE9F0410546406A848882B09F
:105E20000026A4B20096019617460E46984694B9ED
:105E30000021C8F800103960316095F832302BB17C
:105E4000012B1ED0002002B0BDE8F0812B6818693C
:105E500002B0BDE8F0816946FFF770FC01A9044675
:105E6000A868FFF739F9009A002AE1D0002CDFD1A9
:105E7000D2E9002301995B1A3B60C8F80010326038
:105E8000DBE72846FFF724FE02B0BDE8F08100BF43
:105E900098B110B590F82E30044633B990F83130EF
:105EA000022B0CD06068FFF78FF894F82E30013386
:105EB000DBB284F82E30002010BD03487047FFF796
:105EC0006DFD0028EED0F0E7027000F070B590F89C
:105ED0003150022D82B003461AD0012D02D000208D
:105EE00002B070BD037D044602AE63B3132306F80F
:105EF000013DFFF7CDFF2A4631462046FFF706FE5B
:105F000094F82E30002BEAD02046FFF785FEE6E716
:105F1000827E857F0D49447D02EB42021201012001
:105F20001144A8404CB1012C01D01B7D2BB101F1D3
:105F3000C0610860002002B070BD01F1806108609E
:105F4000002002B070BD1123D1E700BF0CA00040BB
:105F50002DE9F0418D4D06460F460FCD88B001ACBE
:105F60000FC495E8070084E80700BEB1002F00F0D9
:105F7000858038220021304625F041F8844A854941
:105F800013783D46344673B10023084650F8042B7D
:105F90007AB194420DD00133042BF7D17E4E3046B6
:105FA00008B0BDE8F081C1E90033C1E90233012046
:105FB00010702A6841F82340784B297C84F831100E
:105FC0009A424FF00001226084F832105BD0744B8B
:105FD0009A4253D1734B744A23624FF45023C4E95D
:105FE0000323D5E9062369686889B5F80CC06262A5
:105FF00000261680052756809680AA7B84F82C60A0
:10600000A3621E805E809E80EB7B0391ADF814003E
:106010000121664884F82D6084F82F60ADF812C025
:106020008DF810208DF816308DF8117000F0BCFB43
:1060300001215F4800F0B8FB0121206A00F0B4FBA9
:1060400001A928688DF8046002F0DCFA2868697AF2
:10605000836F2A7AD4F800C0DFF840E123F4F853C4
:1060600023F01F030B4343EA02238367F4454FF0F9
:10607000030343676CD04A4884450CD04D4E3046EC
:1060800008B0BDE8F0814C4B4C4A23624FF44023EA
:10609000C4E90323A5E7002A50D0501E042816D9CE
:1060A000901F042840F29D81A2F10B00052840F2C8
:1060B000B281A2F11100062840F2AB81A2F11803CF
:1060C000062B40F2A4811F2A14BFFF260526E67581
:1060D000002940F04981012A217640F03C81E27696
:1060E00022776B7C6376AB7C6377EB7CA3762B7D2E
:1060F000A37701212046FFF763FB064600287FF4C3
:106100004EAF01F031F92F7C032F804600F03A8129
:10611000022F00F04F8128684FF0FF338364042181
:1061200002F068FA2B684FF440622046DA60FFF70D
:10613000BBFC0646404601F01BF930E7E27500293A
:1061400000F00F8101293BD12276E2760222C7E7D7
:10615000002AF3D0501E0428B9D9901F042840F219
:106160004081A2F10B00B84240F25581A2F111002A
:10617000062840F24E81A2F11803062B40F2478117
:106180001F2A14BFFF263E46A1E700BF18B4020035
:10619000B8150020A8150020027000F00000014092
:1061A000000401400032040001000D0040410500E0
:1061B00000250A00037000F00022040001000C001A
:1061C0008B1E022B40F2DA804B1F042B40F2F08032
:1061D000A1F10A03052B40F21481A1F11003062B53
:1061E00040F23781A1F11703072B40F230811F29BC
:1061F00014BFFF2300232376002A00F0BB80012A6E
:1062000000F02381022A54D0032A52D0042A50D00D
:10621000052A4ED0062A00F0E680072A00F0E58025
:10622000082A00F0E680092A00F0ED800A2A00F032
:10623000E6800B2A00F007810C2A00F012810D2A5B
:1062400000F00D810E2A00F0FC800F2A00F0F7808C
:10625000102A00F0C880112A00F0F380122A00F002
:10626000EE80132A00F0BF80142A00F0BE80152AA9
:1062700000F0BF80162A00F0C680172A00F0BF8009
:10628000182A00F0DA80192A00F0D5801A2A00F0C6
:10629000D0801B2A00F0CB801C2A00F0C6801D2A6B
:1062A00000F0C1801E2A00F0CE801F2A14BFFF22FA
:1062B0000722E276002952D001293FF447AF022994
:1062C0005AD003295CD004296ED005296ED0062946
:1062D00000F08580072900F08A80082900F08B8073
:1062E000092900F08A800A2900F08F800B2900F02C
:1062F00094800C2900F095800D2900F090800E29E3
:1063000000F0AB800F2951D0102900F088801129AE
:1063100000F0A380122949D0132960D0142966D037
:10632000152968D0162968D0172900F094801829FB
:1063300015D019293FF40AAF1A291DD01B291FD0E7
:106340001C2931D01D2960D01E2966D01F2914BFF9
:10635000FF220022C4E6022A7FF456AFE276012231
:10636000BEE62176E176FAE701297FF429AF002322
:10637000237644E7E276A2E70322B1E600233AE778
:106380000422ADE628682B8CC367436E43F00403F8
:106390004366436F4FF0FF3243F03003436782643C
:1063A000052102F027F9BDE6052299E60B2297E6C2
:1063B000012320E72C49607FFEF706FFFEF7F6FE7B
:1063C000A675267567752046FFF780FD2B7C28682B
:1063D0004FF0FF32032B82647FF4A1AEE0E70C2282
:1063E0007EE6012673E60B2263E70C2261E70D22AD
:1063F00076E60D225DE70E2272E60F2270E60F228E
:1064000057E70223F7E60E2253E7062268E63E46E8
:106410005DE61E465BE6022659E6072260E6092293
:106420005EE608225CE6052243E7042241E70322F8
:106430003FE702223DE701223BE7002239E70A223B
:1064400037E7092235E7062233E7E27634E705230A
:10645000D1E60323CFE6002242E60A2240E60822E4
:1064600027E7072225E700BFB959000070B582B0C1
:10647000506A01A91446FFF761F9344B984235D0B0
:1064800094F83220019B002A33D12068016C11F46A
:10649000007106D09A602E4919614FF4007282642F
:1064A00005E0026CD50541D400221A619A6000F023
:1064B0005BFF0199CD68064635B1D1E900208B68B4
:1064C0000969C31A2046A84701A9606AFFF750F975
:1064D000606A8588ADB2D5B101A9FFF72FF92046D2
:1064E0000199FFF7DBF9304600F042FF012002B0CE
:1064F00070BD012AD8D12168CA6A12F080021CD06E
:10650000134A1A610020802298604A63CFE7012372
:1065100023752046FFF7DAFC94F8313084F82C50CC
:10652000032BE0D02046FFF7A5FADCE7094D996080
:106530004FF480721D618264B9E7C86A4006B3D522
:106540009A600448186140224A63B0E70B7000F07B
:106550000D7000F00C7000F070B586B050B329B328
:10656000541EB4F5006F21D2144E01911446054615
:106570006A46406A029401A90394CDE90436FFF704
:1065800067FB044698B995F82C3083B92846FFF785
:1065900051FA00992846FFF781F995F83130032B1D
:1065A00005D02C752846FFF791FC00E0044C2046EE
:1065B00006B070BD034C204606B070BD017000F0FF
:1065C000037000F0027000F070B586B028B301B31C
:1065D000541EB4F5006F1CD2164E019114460546A8
:1065E0006A46806A029401A90394CDE90436FFF754
:1065F0002FFB044670B995F82D305BB900F0B4FE5E
:10660000AB6A9B889BB206465BB9304600F0B0FE91
:1066100000E0094C204606B070BD084C204606B08C
:1066200070BD00992846FFF75DF9012385F83030E9
:10663000EBE700BF017000F0037000F0027000F0A3
:1066400008B500F00F03013B072B7CD8DFE803F00F
:1066500011545F7B6A757B044B4BD3F85C3103F0BC
:106660003003202B71D0302B2ED0102B2CD00123B7
:1066700009E0454BD3F8943003F00703023B022BAB
:1066800022D8424AD35C424A904273D0414A904257
:106690006AD0414A904261D0013B032B1DD8DFE80C
:1066A00003F0270F026FFEF77FFA374BD3F8003164
:1066B000C3F300635A1C01239340B0FBF3F008BD01
:1066C000BDE80840FEF700BB314B984252D0314B39
:1066D000984249D0304B984240D0002008BD2C4B06
:1066E000984247D02B4B98423ED02B4B984235D006
:1066F000BDE80840FEF7E0BA234BD3F8803003F042
:106700000703013B032BEAD8244AD35CBBE71E4BAB
:10671000D3F8843003F00703013B032BDFD8204A72
:10672000D35CB0E7184BD3F8883003F00703013B84
:10673000032BD4D81B4AD35CA5E7134B1B6FDB0795
:10674000C2D509239FE700239DE7114B984211D042
:10675000104B984208D0104B984211D10A4BD3F8F5
:10676000803003F0070397E7074BD3F8883003F036
:10677000070391E7044BD3F8843003F007038BE75A
:10678000BDE80840FEF79CBA00400E4044B4020049
:10679000030020000500240002001E0048B402008F
:1067A0004CB4020048B40200C0F30323013B30B4F0
:1067B000092B0CD8DFE803F00D110B0B152D190B6D
:1067C0002705164CC0F3043020448000016030BC23
:1067D0007047C0F30430124CF6E7C0F30430114C9C
:1067E000F2E7C0F30430104CEEE7104CC0F3043075
:1067F00010250F4BD3F84421D207E5D4D3F840211C
:106800002A42FBD1E0E7C0F304300A4C4FF4803554
:10681000EFE7C0F30430084C0125EAE7800AF210E4
:106820000000F2100006F2108005F2104007F2108E
:1068300000400E408007F2100007F210C0F303136F
:10684000013B092B06D8DFE803F010161C260505CE
:106850002C323E0700207047214B9842FAD1214B41
:10686000D3F8300100F00F0070471E4BD3F8000141
:10687000C0F3042070471B4BD3F81401C0F304206D
:106880007047184BD3F80001C0F30060431C01208F
:10689000984001387047134BD3F80C01C0F308201F
:1068A0007047104BD3F80801C0F3082070470E4B17
:1068B0009842CFD10B4BD3F82031012003F00F03C6
:1068C000984001387047094B9842C3D1054BD3F823
:1068D0002831012003F0030398400138704700BFBE
:1068E000A009140000400E408006160090071A0010
:1068F00000F47813B3F5A01F10B57AD00ED8B3F515
:10690000202F64D025D8B3F5003F51D0B3F5802FA8
:1069100000F08E80002B5AD0002010BDB3F5001F70
:1069200000F0818029D8B3F5D01F34D0B3F5F01F23
:1069300069D0B3F5B01FEFD14948FFF781FE494B4D
:10694000D3F82021012302F00F029340B0FBF3F0B3
:1069500010BDB3F5602F36D0B3F5801F46D0B3F528
:10696000402FD9D1FEF720F93E4BD3F81431C3F3B1
:1069700004230133B0FBF3F010BDB3F5481F2AD058
:10698000B3F5781F44D0B3F5101FC5D13648BDE824
:106990001040FFF755BE3548FFF752FE314BD3F894
:1069A0002821012302F003029340B0FBF3F010BD55
:1069B000FEF7FAF82B4BD3F80831C3F30823013361
:1069C000B0FBF3F010BD274B1B6FDB070ED5BDE806
:1069D0001040FEF7E9B8234CD4F85C3103F03003E3
:1069E000202B30D0302B32D0102B95D1204B186873
:1069F00010BD1D48FFF724FE1A4BD3F8303103F0C9
:106A00000F03D84010BD1648BDE81040FFF718BE70
:106A10000446FEF7C9F801462046FFF70FFF013094
:106A2000B1FBF0F010BD1148BDE81040FFF708BE03
:106A3000FEF7BAF80B4BD3F80C31C3F3082301333C
:106A4000B0FBF3F010BDBDE81040FEF7E7B8FEF76D
:106A5000ABF8D4F80031C3F3042303FB000010BDEE
:106A600002001E0000400E4005002400030020002C
:106A70008410002000F00F000138072847D8DFE815
:106A800000F0121D3346283E4604264BD3F85C31F5
:106A900003F03003202B40D0302B40D0102B0CBF04
:106AA0000720012070471F4BD3F8943003F00703F1
:106AB000023B022B2FD81C4AD05C7047194BD3F8ED
:106AC000803003F00703013B032B22D8174AD05C28
:106AD0007047144BD3F8883003F00703013B032BB6
:106AE00017D8134AD05C70470E4BD3F8843003F0AC
:106AF0000703013B032B0CD80E4AD05C7047094BAF
:106B00001B6F13F0010F14BF0920072070470020EE
:106B10007047012070470520704704207047082007
:106B2000704700BF00400E4044B4020048B4020069
:106B300048B402004CB4020038B5654B5C6A24F0DE
:106B4000405400294FD0002A00F0B2804FF080510D
:106B500044F000540C43FEF761F85E4A5E4B156C3E
:106B600041F6713111649842526843D95B498842B9
:106B700094BF4FF080710021564B5A6822F040724A
:106B80000A435A600DB100221A64514B544AD3F89B
:106B90000031C3F304230133B0FBF3F3934240F21B
:106BA0008480504A012093428CBF4FF000734FF015
:106BB00080734D4A46491060D1F8002122F080725E
:106BC0001343C1F80031424B5A6A12F0300F13D10F
:106BD0005A6AD20771D55A6A22F0300242F0100286
:106BE0005A62012009E0002AB2D1FEF717F8384BAB
:106BF0005C6238BD0021BFE70020354B3B4A0421D1
:106C000019661368002BFCD0394A1368002BFCD09E
:106C10000028ECD02E4B5A6AD50750D54FF480612E
:106C20002022C3F8A8105A665A6AC2F30112002A39
:106C300015BF00204FF480004FF400014FF44001D5
:106C4000D3F8902031EA0202FAD108B1D3F8A0308B
:106C50001F4AD2F89C500823C5F30A051366D2F8E0
:106C600090305907FBD41A4BD3F890201207FBD46D
:106C7000D3F89020586A1F4A1D4920F0300040F098
:106C800010005862186B0240E80903300F2828BF33
:106C90000F202A4342EA007204201A6318660B6828
:106CA000002BFCD00A4B5C6238BD0023184680E7FD
:106CB00044F08054FDF7B2FF85E701209DE75A6A52
:106CC000D3F8902002F44002B2F5400FF8D1BDE7AE
:106CD00000400E4000000E4040787D01005A6202E4
:106CE0000048E8010090D0034000C8430812C843A0
:106CF0000C12C84300F8FF0F224A082330B4D2F820
:106D000094101366D2F890305907FBD41D4BD3F87A
:106D100090201207FBD45A6A057C1B49047822F0A4
:106D20000102022D08BF42F001025A620C60996A0A
:106D3000C47A8288C58821F0070121439962417A8B
:106D400041EAC221D9621A6B047A817A02F07F6229
:106D50000A43E11C42EAC5220F2942EAC41228BFB5
:106D60000F2142EA01721A63827B457BC47B017B5F
:106D7000120142EA0532224342EA01425A6330BC20
:106D8000704700BF00400E40A004C84330B4114A11
:106D9000114BD2F89410946B4578916B2340047892
:106DA00023438478C07843EAC52343EA046343EA73
:106DB000002399420CD04FF400711166D2F8901064
:106DC000C905FBD40349D1F890209205FBD48B630D
:106DD00030BC704700400E4080E4FFF8F0B4042857
:106DE00012D8DFE800F028132F4348000021544B4D
:106DF0001C662B68002BFCD032B13B68002BFCD00A
:106E0000022801D1002944D1F0BC70474D4F4E4DAE
:106E1000802640240029E9D149490E66D1F89030F6
:106E20002342FBD1002AEFD0454AD2F890303342BA
:106E3000FBD1F0BC7047454F454D4FF400764FF401
:106E40008074E7E700296CD03D4B5C6A14F0300F8A
:106E500016D15C6AE60718D55C6A3E4F3E4D24F0B9
:106E6000300444F010045C620424C0E73B4F3C4D06
:106E700002260124CEE73B4F3B4D20261024C9E7D4
:106E8000344F354D04240021B1E7324F324D0424F4
:106E9000ADE72B4B5A6AD50746D54FF480612022C7
:106EA000C3F8A8105A665A6AC2F30112002A15BF25
:106EB00000204FF480004FF400014FF44001D3F85C
:106EC000902031EA0202FAD108B1D3F8A0301C4A6E
:106ED000D2F89C000821C0F30A001166D2F8903065
:106EE0005907FBD4164AD2F890301B07FBD4D2F8CE
:106EF0009030516A1D4B21F0300141F01001516278
:106F0000156BC10903312B400F2943EA000328BF49
:106F10000F2143EA0173136314663B68002BFCD016
:106F200072E70424082677E75A6A1A46D2F89030A6
:106F300003F44003B3F5400FF8D1D2F8A030C6E710
:106F400000400E401C12C8431812C8432412C84304
:106F50002012C8430C12C8430812C8430412C84385
:106F60000012C8431412C8431012C84300F8FF0FA0
:106F700000F00F000138F8B5072867D8DFE800F007
:106F8000A2B0B2666782668BA44AA5490325012098
:106F900040260024A34B1E660B68002BFCD0136810
:106FA000002BFCD0022800F061819F4C41F6713328
:106FB000266C2364FDF7F4FD9C4B6268984240F216
:106FC00021819B4B984294BF4FF080730023964AD7
:106FD000506820F04070184350600EB100231364D5
:106FE000904B5D67FDF708FE0446FDF7DDFD914B14
:106FF000984240F20B81904A012590428CBF4FF09D
:1070000000724FF080728D4B86491D60D1F80001EF
:10701000854B864D20F080701043C1F8000141F689
:107020007132196C1A64AC425B6840F2ED80804B9F
:107030009C4294BF4FF0807400247B4A536823F035
:1070400040732343536009B100231364F8BD7C4CA3
:1070500001390929FAD801A353F821F05F71000022
:1070600043710000297100004D7000004D70000058
:10707000EF7000004D7000004D7000004D7000007A
:10708000E9700000072900F0C4800929DED1654BB2
:1070900001221A67F8BD01390729D7D801A353F88F
:1070A00021F000BF017200004D7000004D70000023
:1070B000F37100004D7000004D700000D9710000A8
:1070C000C571000002390329C0D801A353F821F08B
:1070D000B5710000896F00006971000095710000B2
:1070E000584CB5E7584CB3E704232360F8BDFDF7CF
:1070F0005BFD504B984234D94F4B012598428CBFD1
:107100004FF000734FF080734C49464A0D60D2F83F
:10711000000101F5AE5120F0807018430125C2F83E
:10712000000103230D60E0E73E4B3D4A4021196614
:107130001368002BFCD0394A1368002BFCD00123C4
:10714000D3E7384B414A4FF4807119661368002B1E
:10715000FCD03F4A1368002BFCD00223C5E7002374
:10716000C3E700231D46CFE7344A2E4B01241460A9
:10717000D3F8002142F08072C3F800215A6A12F05D
:10718000300F00F0BE8002252846324A32490426DC
:107190000024FFE6294B2348304A314901251D6070
:1071A000D0F8003143F08073C0F800312E46032040
:1071B0000024EFE600200446254A244904254FF424
:1071C0008076E7E63021174AD2F85C3123F03003AD
:1071D0000B43C2F85C31F8BD124B224A10211966EC
:1071E0001368002BFCD0204A1368002BFCD0102120
:1071F000E9E7012211460220FFF7F0FD2021E2E736
:107200000021E0E70023E2E6002416E7002215460D
:10721000F9E6044B00221A67F8BD00BF1C12C843F0
:107220001812C84300400E4000000E4040787D0117
:10723000005A62020048E8010090D0034000C843B1
:1072400088400E4080400E4084400E402012C843CB
:107250002412C8430C12C8430812C8430412C8437E
:107260000012C8431012C8431412C843002C3FF444
:107270009CAE334B596ACF0758D54FF4806020211C
:10728000C3F8A8005966596AC1F30111002915BF56
:1072900000244FF480044FF400004FF44000D3F872
:1072A000901030EA0101FAD10CB1D3F8A030244992
:1072B000D1F89C400823C4F30A040B66D1F890303F
:1072C0005807FBD41E4BD3F890100907FBD4D3F812
:1072D0009010586A1B4920F0300040F010005862AE
:1072E0001F6BE009033039400F2841EA040128BF31
:1072F0000F2041EA007119631E661368002BFCD051
:1073000053E65A6AD2070BD5586A0F4A0F4920F044
:10731000300040F01000022558620426284639E665
:107320000225094A09492846042633E6596AD3F852
:10733000901001F44001B1F5400FF8D1B5E700BF5E
:1073400000400E4000F8FF0F0C12C8430812C8435B
:1073500072B6704762B67047EFF3108072B670472E
:1073600000B962B6704700BFEFF3108072B6704785
:10737000FFF7F6BFEFF31083DA0732D4214A43094F
:10738000C1B252F8233010B401F01F04E340DB0710
:1073900023D5002827DB104490F800034209EFF3BF
:1073A000118313B1B2EB531F17D217494868C0F3CA
:1073B000080098B11038C0B243B2002B1ADB03F1B9
:1073C000604303F5614393F800034009824234BFF0
:1073D000002001205DF8044B704701205DF8044B4C
:1073E000704701207047094B01F00F010B44187ED4
:1073F0004209D4E700F00F03043B0B44187E400918
:10740000E4E700BF00E100E000ED00E0FCEC00E09C
:10741000024B9B6803EB80000164704700ED00E0C5
:10742000F0B4049F9DF8145053B1002465B1A142FB
:1074300013D950F8246042F824600134A342F5D1F6
:10744000074BF0BC9A607047A14252F8246002D901
:10745000002EF2D1EDE7002EEFD142F82470ECE7D8
:1074600000ED00E00E29436816D8012210B48A40CE
:1074700047F2E004224223F01F0306D041F010013E
:10748000194341605DF8044B704740F61F74224277
:10749000F6D15DF8044B7047704700BF70B4056AC1
:1074A000046A036A066ACE60102AC1E900548B6040
:1074B00007D1046A026A036A006AC861C1E904422A
:1074C0008B6170BC704700BF704700BF704700BF42
:1074D000F8B5044600287DD15D4A5E4913695E4FC8
:1074E0005E4E5F4D43F004031361CB6C3B60CB6C8D
:1074F00023F47F4343F4EE43CB64C86C3388CA6CF7
:10750000C0F303200130283300EB800C03EB53035E
:10751000B3FBFCF3013B072B22F0EE6228BF0723ED
:1075200042F4801242EA0363B5F90020CB64002ADA
:1075300011DB0B6D4FEA500C28320CEB400002EBD4
:10754000520223F0700CB2FBF0F3072B28BF072385
:107550004CEA03130B65434A1378013B012B62D9B4
:10756000FFF7B2FF30BFFFF7B1FF3A493B68CB648A
:10757000C86C3388CA6CC0F303202833013003EB96
:10758000530300EB8006B3FBF6F3013B072B22F01D
:10759000EE6228BF072342F4801242EA0363B5F982
:1075A0000020CB64002A10DB0B6D4508283205EB68
:1075B000400002EB520223F07005B2FBF0F3072B00
:1075C00028BF072345EA03130B6574B9BDE8F840EB
:1075D000FDF712BB244A254BD2F890201A601120E7
:1075E000FFF748FA224B187076E71F4B1F4D2049D2
:1075F000D3F88041097845F60E02C3F88021286847
:1076000040F25512024005291A6604F0010413D114
:10761000C30702D4144B02221A661CB1124B00227B
:10762000C3F88021F8BD0B4B1B6C03F00303012B47
:1076300009D00323137093E71120FFF799FC286802
:10764000C307EAD4E6E70B490B68D803FCD5F0E79B
:1076500000ED00E000300E40C8150020C2150020EB
:10766000C4150020CC15002000400E40BC150020A1
:10767000CD1500207C300E40F8B50446002840F0BF
:107680008E80664B664FD3F88021664ED50748BF83
:10769000002245F60E004FF42071C3F880011966F0
:1076A00048BFC3F88021604A60491369604D43F0C8
:1076B00004031361CB6C3B60CB6C23F47F4343F436
:1076C000EE43CB64C86C3388CA6CC0F3032001302E
:1076D000283300EB800C03EB5303B3FBFCF3013BBB
:1076E000072B22F0EE6228BF072342F4801242EA01
:1076F0000363B5F90020CB64002A11DB0B6D4FEA60
:10770000500C28320CEB400002EB520223F0700CBC
:10771000B2FBF0F3072B28BF07234CEA03130B65DA
:10772000444A1378013B012B62D9FFF7CDFE30BFED
:10773000FFF7CCFE3D493B68CB64C86C3388CA6C0C
:10774000C0F303202833013003EB530300EB800622
:10775000B3FBF6F3013B072B22F0EE6228BF0723B1
:1077600042F4801242EA0363B5F90020CB64002A98
:1077700010DB0B6D4508283205EB400002EB52028E
:1077800023F07005B2FBF0F3072B28BF072345EA6F
:1077900003130B6574B9BDE8F840FDF72DBA1F4A15
:1077A000254BD2F890201A601120FFF763F9234B84
:1077B000187066E7194B204D2049D3F880410978AD
:1077C00045F60E02C3F88021286840F255120240A7
:1077D00005291A6604F0010413D1C30702D40F4B24
:1077E00002221A661CB10D4B0022C3F88021F8BD9D
:1077F0000E4B1B6C03F00303012B09D00323137002
:1078000093E71120FFF7B4FB2868C307EAD4E6E743
:107810000B490B68D803FCD5F0E700BF00400E40D1
:10782000C8150020C215002000ED00E000300E4019
:10783000C4150020CC150020BC150020CD1500205B
:107840007C300E40054A08B5054BD2F890201A60EE
:107850001120FFF70FF9034B187008BD00400E40D0
:10786000BC150020CD15002038B5114B114D124923
:10787000D3F88041097845F60E02C3F880212868C4
:1078800040F25512024005291A6604F0010403D0A3
:107890001120FFF76DFB2868C30702D4044B0222B6
:1078A0001A661CB1024B0022C3F8802138BD00BF0C
:1078B00000400E40BC150020CD150020704700BFD1
:1078C0003A4B1A6FD96CC90730B402F007020BD5D6
:1078D000012A57D9132852D9143813288CBF4FF4D2
:1078E0007F424FF4EE4207E0D96CCD073BD4012A2A
:1078F00051D9DB6C6FF0FF022C482D4DC36C2D4C21
:1079000023F47F431343C364C16C2B88C26CC1F35F
:1079100003210131283301EB810503EB5303B3FB52
:10792000F5F3013B072B22F0EE6228BF072342F458
:10793000801242EA0363B4F90020C364002A10DB1A
:10794000036D4C08283204EB410102EB520223F094
:107950007004B2FBF1F3072B28BF072344EA03139B
:10796000036530BC7047DB6CDC0711D5012A0FD8EA
:1079700027288CBF4FF47F424FF4EE42BCE74FF410
:107980004C52B9E7DA6CD10705D5DB6CDB07EFD4D5
:107990006FF0FF02B0E70928F1D90A3809288CBF37
:1079A0004FF47F424FF4EE42A6E700BF00300E4096
:1079B000C2150020C4150020B24B02229A639B6BB3
:1079C00003F00F03934201D0002070472DE9F043EC
:1079D000AD4BD3F86C31013383B015D0AB4AAC4B0F
:1079E000146819680C60946899680C6014691969C6
:1079F0000C60946999690C60146A196A28322833FA
:107A00000C6012681B681A60C2888688B0F90C7016
:107A10004A2A40F20181B2F5FA7FC0F0308140F687
:107A2000C3139A428CBF4FF040554FF00055954913
:107A3000984ACB6C23F0405323F00103002FA8BFDA
:107A400043F001032B43CB64CB6E0446924843F0D2
:107A500080730680CB661368002B00F0E380136808
:107A60000B6F23F0070343F0040330460B67FFF767
:107A700027FF844D2B6E23F0C0432B66EB6C43F045
:107A80000603EB6401A800F067FD9DF80530012BAB
:107A900000F0D180814B82492589B4F90C20A0885F
:107AA0001A800D80FFF70CFFA37B002B00F0DA801B
:107AB000012B02D1734B7B4A9A656688A6F5E16378
:107AC000B3F5966F00F2AA806F4B6E4AD3F8683117
:107AD000D76CB6F5E16FC7F301774FEA072100F0E5
:107AE000C5804FEA136CC3F307424FF4966E4FF410
:107AF000E1630120014340F20115A942A6EB030313
:107B000000F00D81B1F5817FC0F0EA8040F20125DF
:107B1000A94200F0D78040F2F780B1F5407F00F035
:107B20000A8140F20135A94240F009815649D1F855
:107B300078114FEA1168C1F30741A8EB010503FB77
:107B400005F5B5FBFEF50D44ACEB020903FB09F3AB
:107B5000B3FBFEF31344634560D8A8455ED3A94246
:107B60005CD84849CA6D22F4FE4222F00202B6F502
:107B7000E16F42EA032340F0F180434ACB65136D85
:107B8000DBB2032B00F2DF80D2F87C21D2B21203E9
:107B900012F4702F42D13B4BA67AD96E6478424FD3
:107BA00021F470411143D9665A6E22F4FF72E72D19
:107BB00022F0010228BFE7250243003642EA4502CF
:107BC00018BF01265A663E604AF6E852586B5A635F
:107BD0009A6FD207FCD41B6C13F0030300F08A8069
:107BE000324A01219C42116014D0264A936FDB0770
:107BF000FCD4136C234923F00303234313648B6FDA
:107C000013F00103FBD10034284A18BF01240128D6
:107C1000146077D0012002E0002508E7002003B0BF
:107C2000BDE8F08313680B6F23F0070330460B6742
:107C3000FFF746FE1DE79DF80420022A3FF62AAF13
:107C40001B4A117800297FF425AF1A4E1A48316873
:107C500041F0010131602E6E184930400143296620
:107C6000137017E7074B164A9A6526E7C3F3072CEC
:107C7000DAB24FF4167E4FF4966300203AE74FF0E5
:107C80008055D4E600300E40B081E00F3C80E00F1C
:107C90003880E00F8009C643C0150020C4150020BD
:107CA000C2150020372110B79407C643B40AC64353
:107CB000CC15002044300E40000F0EF0B4C0400B35
:107CC000774020572E49D1F87811C1F30728C9B25F
:107CD000A8EB010503FB05F5B5FBFEF50D4433E705
:107CE000012924D01FD3B1F5807F28D12449D1F8B0
:107CF0006C111EE77CB1012C7FF477AF214B02227F
:107D00001A7072E74B638AE7B1F5007F17D11C49FF
:107D1000D1F87011D9E71C4B01201C607FE718498E
:107D2000D1F8741105E71649D1F86C11CDE7144963
:107D3000D1F87411C9E71249D1F87011F9E600259C
:107D4000A846294600E70E4B022FD3F8802114D015
:107D5000032F10D0012F0BD0D2B218E743F002034B
:107D6000074ACB65136DDBB2032BECD8D2F87C212C
:107D7000C2F307220BE7120E09E7C2F3074206E738
:107D8000B081E00FCC150020B40AC6433E4B3F4AF9
:107D90003F4912681A6F098822F00702104330B475
:107DA00018671A6FD86CC00702F007020BD5012ABA
:107DB00057D9132952D9143913298CBF4FF47F4254
:107DC0004FF4EE4207E0D86CC5073BD4012A51D9E5
:107DD000DB6C6FF0FF022C482E4DC36C2E4C23F44D
:107DE0007F431343C364C16C2B88C26CC1F303216E
:107DF0000131283301EB810503EB5303B3FBF5F3AA
:107E0000013B072B22F0EE6228BF072342F48012C9
:107E100042EA0363B4F90020C364002A10DB036D57
:107E20004C08283204EB410102EB520223F07004AB
:107E3000B2FBF1F3072B28BF072344EA03130365C2
:107E400030BC7047DB6CDC0711D5012A0FD827291D
:107E50008CBF4FF47F424FF4EE42BCE74FF44C52DC
:107E6000B9E7DA6CD00705D5DB6CDB07EFD46FF030
:107E7000FF02B0E70929F1D90A3909298CBF4FF46B
:107E80007F424FF4EE42A6E700300E408009C64321
:107E9000C0150020C2150020C41500201A4B30B4B4
:107EA0001B6860B1012B4FF4006426D00025022826
:107EB00009D1164A136823F07403136008E0012BFC
:107EC00004461AD00546114B1A6842F074021A6033
:107ED0000F4A1048116841F008011160036823F44B
:107EE000406323430360136823F00803136015B154
:107EF000054B00221A6030BC7047034B4AF6E8522B
:107F00001A600125D3E700BF90310E4064310E4066
:107F10009C310E403C400E402DE9F043072A01F011
:107F200003019DF81C609DF8205027D8DFF8709061
:107F3000DFF87080DFF870E0DFF870C094000F2782
:107F4000A040A740C9F80070C8F800000320A14075
:107F500000FA04F4CEF80040CCF800100E490F4CA3
:107F600011448900012000FA02F20B60C1F8806020
:107F7000C4F82424C1F80053BDE8F083A2F108043A
:107F8000A4000F27DFF82890DFF82880DFF828E02A
:107F9000DFF828C0D4E700BF8020851000A0004093
:107FA00000A4004400A4004608A4004408A400461D
:107FB00004A4004404A400460CA400440CA40046FD
:107FC000F0B444004AB12718214D3F0101263D4439
:107FD0008E40A3B305F1C0652E6025182D0105F173
:107FE0008045072905F5204519D88F006E684FF0A8
:107FF0000F0C0CFA07FC26EA0C0602FA07F73E43C0
:108000006E6052B90444124A24010120224400FA4D
:1080100001F1C3B902F180621160F0BC704701F157
:108020008046083EAF68B6004FF00F0C0CFA06FC15
:1080300027EA0C0702FA06F63E43AE60E1E705F1D7
:1080400080652E60C9E702F1C062F0BC1160704724
:108050000CA00040034B03449B0081F00101196018
:10806000704700BFA001F11038B5044601214FF45C
:108070008A40FEF799FBB4F8013020780D4A0E498A
:108080005BBA9BB243EA0063002013604FF00045E7
:1080900010624FF0FF33D06250634FF48070D566AA
:1080A0009366C1F88001E3785B01DBB281F80833A5
:1080B000086038BD00200E4000E100E0F8B5CB7A42
:1080C0008E7A0D7B234F1B050C4643EA064300EBDB
:1080D000400607EB061643EA4553C0B20125497B2B
:1080E00022F0030285402068C6F88000C6F8881098
:1080F000C6F88430C6F89820BD66FFF735F9FB6EE8
:10810000227A2B43FB6612B17B6B2B437B63637A32
:108110001BB1104AD36A2B43D3620E4B22791B68E2
:1081200022B1D243120262F47F42134062790AB153
:1081300043EA0223A2790AB123EA0203E27902B1F7
:108140001343044A044913600D60D563BDE8F84049
:10815000FFF70EB900200E4028200E4410B5C0B223
:1081600001248440FFF700F9054A0649D36E23EA4B
:108170000403D3660C60BDE81040FFF7F9B800BFF8
:1081800000200E4020200E44F8B5C3B201259D40CA
:108190000446FFF7E9F80B4B04EB44041F6E9E6A9C
:1081A00003EB0414D4F88C40FFF7E2F8354206D113
:1081B000C4F30A1008B93D4200D10130F8BD0020D7
:1081C000F8BD00BF00200E408368DB06FCD5036CC1
:1081D000DA0702D4436C5B06FCD48162704700BFAF
:1081E00029B370B4134C0025082650F8043BA36152
:1081F000E660E369DB0705F1010508D50E4B00E0F9
:108200006BB1E269D20703F1FF33F9D43BB1E36903
:108210009B0708D48D42E8D1002070BC70476FF0F6
:10822000020070BC70476FF0010070BC7047002006
:10823000704700BF00000E4080969800044B41F646
:1082400071321A649A6822F001029A60704700BF86
:1082500000000E40034B9A68002122F001029A6050
:108260001964704700000E402DE9F04F374C41F67D
:108270007133256C2364A36883B043F001038946FE
:108280009608A9B201910746A3602CD0CB460025E1
:108290004FF0010AE369D80707EB85020AD52C4B9A
:1082A00001E0002B41D0E169C90703F1FF33F8D4A5
:1082B000002B3AD02261C4F80CA0E3695B0742D4DA
:1082C000C2F30A02C2F500629208A6EB05089045C7
:1082D00027D241465846FFF783FF28B945440BEBA8
:1082E000880BAE42D6D800203A68D9F800309A42BE
:1082F0001DD01649CB69D80708D5154B00E0A3B1AE
:10830000CA69D20703F1FF33F9D473B10F4B0121CE
:108310001F61D960DB695B0715D44846FFF760FF32
:1083200005E0002ADDD09046D3E76FF00200074A4F
:10833000936823F001039360019B0BB10023136446
:1083400003B0BDE8F08F4FF0FF30F0E700000E40C3
:1083500080969800314B41F67132196C10B41A6452
:108360009A68012442F001029A601861DC60DA69BF
:10837000520788B209D59A6822F001029A6000BBC0
:108380004FF0FF305DF8044B70470222DA60DA6983
:10839000D4071DD5224A01E0002A2ED0D969C90789
:1083A00002F1FF32F8D4DB69990714D442B31B4AB7
:1083B000936823F0010393600028E3D00020106449
:1083C000E0E700224FF0FF301A645DF8044B70477D
:1083D000DB699C07EBD5114A936823F00103936096
:1083E00030B100236FF0010013645DF8044B704757
:1083F0006FF001005DF8044B7047DB699B07EAD41E
:10840000064A936823F00103936020B100231364AC
:108410006FF00200B6E76FF00200B3E700000E4015
:1084200080969800FFF720BF014B01229A607047A9
:1084300000500E401A4A1B4BDFF870C00021F0B408
:1084400008465568184F03F14806012214E0B2F5BA
:10845000006F1CD0B2F5803F19D03C68E40548BFDE
:1084600021F01C012A4202D0294208BF10430833E0
:10847000B3420FD053E90221DCF800406407ECD48A
:10848000B2F5806F03D0E2D8B2F5007FE5D141F4B8
:108490008071E2E7C30348BF20F01C00F0BC7047C6
:1084A00000500E4058B4020088300E40E841E00F02
:1084B00030B48B784C780A78CD789B0143EA8403FA
:1084C00013430C794A79897943EA051343EAC423B3
:1084D000043043EA02330001024A43EA41431350A5
:1084E00030BC704700200440014B1860704700BF4B
:1084F00000008442437941780278F0B40479C77966
:108500008678C5781B0343EA0423002943EA020363
:108510000CBF002104218479027A002E43EA07432C
:1085200043EA01030CBF00211021002D43EA01039F
:108530000CBF00212021002C43EA01030CBF0021C5
:108540004FF400410B430AB143F40033014AF0BC3D
:1085500013607047002004400B4A536911699B0067
:1085600003F03C03C1F381110B438370136903F0E3
:108570003F0343709369D26903F0F003C2F303121F
:1085800013430370704700BFD0FF0FE0F8B50546F6
:1085900016461C46E9B1202C21D022D9402C16D0F9
:1085A000602C13D104222B68104F23F060032B6042
:1085B00006FB02F62B68720802EB4112B2FBF6F2E0
:1085C000203A07EAC2021C432C606A61F8BD062209
:1085D000E9E70748FEF78CF9202C0146DDD1082297
:1085E000E1E7002CF2D11022DDE700BFF8FF7F00A9
:1085F00040410500CB435B0003F00A03C360C16048
:10860000704700BF2A4A70B504460023294840F647
:10861000AA660D46944241F20501E660236061605E
:10862000A3606361E364A06423666367A367E36791
:108630003BD002F58062944233D0A365AB7C1BB182
:10864000236843F080432360EB7C1BB12B7D43F018
:108650008003A365697B2E8AE8892B7BAA68314356
:108660000143616020466968FFF790FF6B7D1BB195
:10867000236843F480332360AB7DEA7D297E28782C
:108680001B07120503F0E04302F4E00213432366E4
:10869000636F23F030036367636F0B436367E060CE
:1086A00070BD2365A365E365C8E72365C5E700BF23
:1086B00000000140F9FF0100314A70B50446002373
:1086C000304840F6AA660D46944241F20501E66044
:1086D00023606160A3606361E364A06423666367F1
:1086E000A367E3674AD002F5806294423ED0A36557
:1086F0002A8AA87B2368297D42F00102002843EAE8
:1087000002030CBF00224FF48062134323602368EE
:1087100009B143F00053AA7C23601AB1EB7C43F00B
:108720008003A3652B7BD5E9010643F48053636086
:1087300000B36B7B01387600B0FBF6F0000260619D
:108740000BB11023E3606B7D1BB1236843F48033CE
:108750002360AB7DEA7D29781B07120503F0E04317
:1087600002F4E00213432366E16070BD2365A36554
:10877000E365BDE70448FEF7BBF8DAE72365B6E733
:1087800000000140F9FF010040410500114A124973
:10879000002330B4904240F6AA6541F20504C5605A
:1087A0000360446083604361C3648164036643671C
:1087B0008367C3670BD002F58062904202D0836565
:1087C00030BC7047036530BC8365C3657047036583
:1087D000F5E700BF00000140F9FF010003695A06F8
:1087E000FCD5416303699B06FCD5C069C0B27047E4
:1087F00003695B06FCD54163704700BF30B50A4B87
:108800001C6885B06CB150B103460D46204601A9E5
:1088100001938DF80850039200F00EF8012005B086
:1088200030BD204605B030BDDC150020014B9868F6
:10883000704700BFD015002070B50E460546FEF704
:108840008BFD04463046A8472046BDE87040FEF741
:1088500087BD00BFF8B5124DFEF786FD2C780646A1
:10886000CCB91049104A114B0C6014601C8000F008
:10887000BBFA012000F02AFB00F078FB0C4B0D4FF7
:108880001860024623460C4840F2E73122F0B4F962
:10889000012338602B703046FEF76AFD0020F8BDDA
:1088A000E0150020F4150020E4150020EC15002050
:1088B000F0150020E815002018FCFFFF002842D02A
:1088C000F8B50446FEF750FD064600F0CFFA05461F
:1088D00027480168002938D0264F4A693B68EB1ABF
:1088E000934213D9AD1A00233D604B618C4218BFEF
:1088F0000A4603D136E09C420CD01A469368002BFE
:10890000F9D13046FEF734FD0220F8BDD31A4B6191
:108910003D60EBE7A3689360A3687BB10A465869A2
:108920006769384458618C4216D1BAB15369022044
:108930001D4400F0CBFA284600F09EFA3046FEF7C0
:1089400017FD0020F8BD222070470A4B30461D60FD
:10895000FEF70EFD0220D8E7002AEFD1022000F03A
:10896000C3FAEBE7A2680260002ADCD01346D6E720
:10897000F4150020E41500202DE9F0479DF820A013
:10898000BDF8249000284BD005461646984600278F
:108990000C46FFF793FF85F804A0C5F80080EE6051
:1089A000A5F80690AF602F613CB96C61AEB3284664
:1089B0004146B0472046BDE8F087FEF7D5FCDFF81A
:1089C000B080064600F052FAD8F800C0DFF8A4E004
:1089D000BCF1000F27D0DEF80030DCF81420C31AF9
:1089E000934230D8D31ACCF81430CEF800006C6122
:1089F0006346002000E00B465A69A24200D942BB00
:108A00009968A41A6C6118460029F4D19D60A96088
:108A1000654529D03046FEF7ABFC0020BDE8F08765
:108A20002220BDE8F0876C61C8F80050C5F808C086
:108A3000CEF8000003461C44022000F047FA20460E
:108A400000F01AFAE6E7801ACEF80000CCF81470AD
:108A5000CDE720B18560AB60141B5C61D8E7C8F836
:108A60000050AB60AC46F7E76C69DEF80030E2E737
:108A7000F4150020E415002038B5FEF775FC054616
:108A800000F0F4F904462846FEF772FC204638BD93
:108A900070B5FEF769FC064600F0E8F9094B1C8842
:108AA00005460120A4B200F037FA18B100F0DEF953
:108AB000013405463046FEF75BFC002242EA050021
:108AC000214670BDEC150020014B1868704700BFAF
:108AD000F0150020044B054A1B6803FB00F0A2FBC5
:108AE0000030800901307047F0150020D34D62102E
:108AF0000A4B1B6883420ED3094B10B50C4619680C
:108B00004FF47A720023A0FB010122F075F80130C6
:108B10002060002010BD2120704700BFE815002014
:108B2000F0150020014B1868704700BFE8150020C1
:108B3000114B1A684FF47A732DE90048A0FB03BC6F
:108B400012B1531E134206D058466146002322F04C
:108B500053F8BDE80088B2FA82F2C2F11F02C2F1F6
:108B600020032BFA02F00CFA03F3203A18432CFAF4
:108B700002F21043BDE80088F0150020000000005C
:108B80002DE9F84925A5D5E900458D4208BF844265
:108B90003BD34B014401241A43EAD06565EB010540
:108BA000AB0043EA9473A60098461B4B801941EB37
:108BB00008011B68CE00C40046EA507620465BB927
:108BC000144631461A46002322F016F80025C4E95F
:108BD00000012846BDE8F8895D1E1D40F0D1B3FABA
:108BE00083F3C3F11F03C3F12007D84006FA07F748
:108BF000A3F12001384326FA01F1084326FA03F3D2
:108C0000C2E900032846BDE8F88921252846BDE8C9
:108C1000F88900BFAFF30080F0150020EFA7C64B26
:108C200037894100C2072DE9F84F044600F19980C9
:108C3000A30701D4BDE8F88FDFF8A881674F00F0E3
:108C400015F9D8F800500646451BFEF78DFB3C6829
:108C50008246002C00F0AB8062699542C0F0B8807B
:108C60004FF00009C8F800602346294600E05A6921
:108C70008A4209D8187994F804C0844588BF1C46F4
:108C80009B68891A002BF2D15046FEF771FBD4F88D
:108C900014A0C4F81490FEF767FB3A6842B1A242F0
:108CA00003D17AE0A3422DD01A469368002BF9D164
:108CB000FEF75EFB2369002B32D1E36813B1216814
:108CC0002046984700F0D2F85644AD1B8346054431
:108CD000FEF74AFB3C688246002C68D06269AA42D3
:108CE0005E46BFD9551B656102205D44C8F800B0DF
:108CF00000F0ECF8284600F0BFF85046BDE8F84F09
:108D0000FEF736BBA3689360A1680029D0D04B69F9
:108D1000626913444B61FEF72BFB2369002BCCD017
:108D2000FEF722FB3B68226962618646002B37D042
:108D30004FF0000C00E003465969914201D9002927
:108D40003DD19868521A62619C460028F3D19C601C
:108D5000A06010B143699A1A42617046FEF708FBA1
:108D6000ABE71F4A138801339BB2138000F07EF8F3
:108D70001A4B1A684AB31B4953690D68451B9D423B
:108D800011D9C01A002308605361C518022000F0F1
:108D90009DF8284600F070F84AE7A1683960B4E70A
:108DA0003C60A360D9E75B1B53610860EDE70220DC
:108DB00000F09AF85046BDE8F84FFEF7D9BABCF17A
:108DC000000F07D13C601846C2E7064B18602FE73A
:108DD000B34687E718466346B9E700BFF41500209D
:108DE000EC150020E415002010B51C4B93E807009B
:108DF00086B00C3303AC03C493E803000B0C019062
:108E0000ADF808101648227001218DF80A300024B0
:108E1000FDF7CAFC03A88DF80C408DF81040FFF751
:108E200069FB06A9012001F8144DFFF741FB0D4A2B
:108E3000536A23F4FF6323F0070340F2FF71536288
:108E4000012011629460FFF74FFB074B4FF0005277
:108E5000C3F880211A6006B010BD00BF98B40200AC
:108E6000A00914000020044000E100E0014B9868D4
:108E7000704700BF00200440124B9A68596D9B69EF
:108E80005B0702D48B1A022B18D9831A012B98BFC7
:108E9000901C0C4BB0F1FF3F28BF013058655A6A57
:108EA00042F004025A62084B1A7832B105490A6D41
:108EB000002042F002020A65187070479142F2D118
:108EC000E3E700BF00200440881000208207054A25
:108ED00000F00103516A48BF43F004030B4353629F
:108EE000704700BF00200440830700F0010209D54D
:108EF000074B0849012018700B6D23F0030342F063
:108F000004020B6503494B6A23EA02034B62704774
:108F10008810002000200440064B01289B6906D0E1
:108F2000022802D1C3F3800070470020704703F08D
:108F3000010070470020044010B5FEF715FA0A4BF7
:108F40009B695A07084A044603F0010003F007032F
:108F500048BF40F002001362FFF764FE2046BDE800
:108F60001040FEF705BA00BF002004400148FDF79D
:108F7000BFBC00BFA0091400064B70B506460D46E5
:108F8000144618464C22002122F039F8C0E9096540
:108F9000C46270BDE444002008B5FFF747FC80F4CC
:108FA0008050C0F3003008BD104B1A79D20710B5BD
:108FB00004460ED55B798B420BD3012100F000FAF9
:108FC00033216CB9002211460948BDE81040FFF773
:108FD00015BC0021204600F0F3F9002CF2D031211D
:108FE000044A0348BDE81040FFF708BCE4440020F1
:108FF00018450020A193000070B514461D4602F0EC
:1090000040020023134382B004D0144B93F838205D
:10901000D2071DD54BF20900002100EA040201EA43
:109020000503134303D12046294602B070BD0B4E01
:1090300001A9706A18F06CFA9DF80430042BF2D084
:10904000B1780020FFF7B0FF2046294602B070BD7E
:1090500099780120FFF7A8FFDCE700BFE444002077
:1090600070B50646FFF7E2FB10F480540CBF0120F8
:109070000020084D00F0BCF9211C18BF0121686ACE
:1090800018F072FB26B11CB1AB6ABDE870401847FE
:1090900070BD00BFE444002018B1034BD87800F045
:1090A0000100FFF7DDBF00BFE4440020084B9B79BF
:1090B0008B4202D20020FFF777BF10B50446FFF7BE
:1090C00073FF24B10020BDE81040FFF7C9BF10BDF9
:1090D000E44400202DE9F04383B01E4607460D46C8
:1090E0009046FFF7A3FB430502D403B0BDE8F0832D
:1090F000214CFEF739F9E37813F0240F814628D18B
:1091000094F803C021881D4B1D48002268F3041CFD
:10911000791A009284F803C017F0ACFF78B9E378AD
:10912000A67043F0040365F34103FF21E370FFF7EA
:109130003BFF484603B0BDE8F043FEF719B92846A7
:109140003146FFF7B3FF484603B0BDE8F043FEF7F2
:109150000FB903F0FB036FF3451304F10C00E37048
:1091600017F094FFE178890901F00201002204F16F
:109170004000FFF743FBC3E7E4440020599200009E
:10918000F044002070B52F4CE3781D0782B00A46EA
:1091900046D5DB0644D5002842D0E379002B3FD0EA
:1091A000257A632D3CD8002D40D04FF47A7505FB0D
:1091B00003F518F04AFB227AB0FBF5F303FB150028
:1091C000642303FB00F305FB02F29342E37833D2FE
:1091D0001D4D43F04003A5FB0212E370C0EB521596
:1091E00000210846FFF7E0FEE678184846F0200622
:1091F00016F0400F4FEA961314BF8021002103F0B0
:10920000020319430022E670FFF7F8FA00230093E7
:1092100029460F4B0F48012217F02CFF02B070BDFA
:10922000114602B0BDE87040FFF740BF284602B0CB
:10923000BDE87040FFF7B8BE6FF386132D1AE370D8
:10924000CEE700BFE44400201F85EB5124450020F9
:1092500079920000F0440020064AD378590700D4E0
:1092600070476FF38203C3F340009178D370FFF728
:1092700089BF00BFE4440020044BD878820600D4A4
:1092800070479978C0F34000FFF77CBFE4440020AA
:109290002DE9F041144607460E46FFF7C7FA42058E
:1092A00019D567B3CEB93C4D95F83830DB0738D5C2
:1092B0006B79A3420FD3FEF757F8EB7813F0240233
:1092C000804635D162F3041321460120EB70AC7067
:1092D000FFF758FF35E0BDE8F081FEF745F82E4B6B
:1092E000DA789C70804642F0100221460120DA7044
:1092F000FFF748FF4046BDE8F041FEF739B8264D7C
:10930000FEF732F8EB78804613F0240026D07EB3C7
:1093100043F0100338462146EB70AC70FFF732FF84
:10932000E8E7FEF721F8EB7813F024028046C9D075
:10933000EB78AC706FF3041321460120EB70FFF75C
:1093400021FFE9781548890901F002010022FFF7A1
:1093500055FA4046BDE8F041FEF70AB866F304133B
:109360002146EB70AC70FFF70DFF002EC2D1E8E78D
:1093700066F3820366F3451305F10C00EB7017F0FA
:1093800085FEEB78AC7066F3041321463046EB7033
:10939000FFF7F8FED5E700BFE44400202445002095
:1093A000C20610B5044606D4A30600D410BD0020A2
:1093B00000F01EF810BD012000F01AF8F4E700BF1D
:1093C00038B50546094C08B9A57638BD2176FFF7B2
:1093D000E3FDA37E6076002BF6D1227EA57654F8BD
:1093E0002230013344F8223038BD00BFF815002088
:1093F00010B50D4CA37E13B110B10123637610BDDF
:1094000003464FF0FF30A37617F004FE0528F6D18F
:10941000237E002B14BF0522042254F8223001338E
:1094200044F8223010BD00BFF8150020C20606D552
:109430001038C0B203281BD80E4B185C7047C10708
:109440000BD402070BD410F0020F0CBF032302232E
:10945000810606D543F0A00070470123F8E70423F6
:10946000F6E7420654BF43F0800043F0C000704767
:1094700004207047ABB402002DE9F04740F201131D
:10948000984288B040F0988040F2031000F0BAFC97
:10949000064690B3022012F0ABF800280CBF0B2256
:1094A0001222171D311DC2F1FF02394403A812F028
:1094B00002FC9DF80E30414CFF2B054621D1304671
:1094C00008F07CFF9DF819302371DDF80F30C4F8E7
:1094D0000530BDF81330A4F809309DF81530E3725B
:1094E0009DF816302373364B23600123009300232D
:1094F0001A4621460D2000F089FC012008B0BDE885
:10950000F087022012F074F8EDB29DF815A09DF8D6
:1095100016909DF80E309DF80C80A0B31846FFF70A
:1095200085FFDDF80F30C4F80530BDF81330A4F81E
:1095300009309DF8173063739DF81830A3739DF8B8
:109540001930E3739DF81A3023749DF80D30A3741D
:1095500005F11202BDF81B3065751A4DA4F81330E1
:109560001302207184F80BA084F80C9084F8118009
:109570009BB245EA12251D43324610492560384604
:1095800000F088FCB9E7184684F80480FFF74EFF26
:10959000DDF80F30C4F80630A573BDF813300A4A61
:1095A00063810B352B02607184F80CA084F80D9058
:1095B0009BB242EA1525DEE700209FE730450020F8
:1095C000A0090302A0000304A000030030B51C465C
:1095D00040F206239A4287B000F0938041D8102AC7
:1095E00000F01C8127D8042A76D0072A00F0D38007
:1095F000032A6ED1002403A8CDE90344059412F098
:1096000077FF8D498D4D049BCB6049F261624A82A0
:1096100044F65A528A828A4AC1E9005202F1CD7256
:10962000012308320B828A601620009322462346CB
:1096300000F0ECFB4DE0B2F5817F00F0A18040F23C
:1096400003139A427FD0112A43D17B4923887D4A54
:109650008B800A60002301228B7100921A4607203A
:10966000E6E740F202639A4200F0A28020D840F27E
:109670000B239A423AD040F201639A4200F0BF8035
:1096800040F207239A4224D1207808F061FF00B30A
:10969000694D237860782B7112F024F86A4B2B60A7
:1096A00001236871009300231A4629460620BFE76C
:1096B00040F204639A4200F08C80C0F0858040F252
:1096C00005639A4200F0938040F207639A4200F0EB
:1096D0009E80002007B030BD574923888B805B4BAC
:1096E0000B600123009300231A46DFE75249638889
:1096F0008B8023788B71564B0B60012300930023E2
:10970000ACE723684C4953F83C0F48609B880B81B9
:10971000236893F855208A7293F85720501E4242CE
:109720004241CA7293F852200A7393F8592093F871
:109730005A308B73474B0B6001234A73009300230D
:109740001A460F2074E7207808F002FF0028C0D0E6
:10975000394923780B716388A1F80530A388A1F8F3
:109760000730E388A1F80930237ACB7263898B81B3
:10977000394B0B600123009300231A460E2057E754
:109780002D4923780B71354B0B6001230093002387
:109790001A4605204CE7207808F0DAFE264990F8B2
:1097A00052300B7163784B71A3788B712C4BA3E70C
:1097B000207808F0CDFE00288BD01F4923780B714C
:1097C00063784B71274B8BE71B4923780B71264B32
:1097D000DAE7194923780B716368C1F80530234B28
:1097E0000B600123009300231A46092020E7124949
:1097F00023780B716368C1F805301D4BF0E70E4903
:1098000023780B716388A1F805301A4B74E70A4975
:1098100023780B7163684B71174B61E70649237816
:10982000164A0B710A60002301224B718B71CB71B8
:109830000B720092D8E700BF30450020A012010053
:1098400002000D00A0030106A0020804A002010509
:10985000A0030801A00B0800A00A0802A001030150
:10986000A0030803A0020F03A0010F01A0050F0031
:10987000A0050F02A0030F04A0020F09A005030515
:10988000014812F0CDB900BF7994000010B504462C
:109890004FF49870A047044B18604FF49870A0479D
:1098A000024B186010BD00BF1416002018160020CF
:1098B00038B50B4D0B492B6809681A1891420446BC
:1098C0000CD902460021184621F099FB03460330CB
:1098D000204420F003002860184638BD0023FBE731
:1098E000241600202816002007B508491B684B6085
:1098F000074B0B600123009300231A46082000F059
:1099000085FA002003B05DF804FB00BF304500205D
:10991000A004010307B502210DF10602322000F078
:1099200061FC18B9BDF8060012F056FE03B05DF8F0
:1099300004FB000030B585B00446FFF7F3F8A04201
:1099400002D2FFF7EFF8044603A92046FFF7D0F84C
:1099500088B9CDE900000346084A03990848FFF793
:109960000BF840B924B112F0E7FEFFF7E1F8044626
:10997000204605B030BD0024FAE700BF799D000005
:109980003016002038B5054600F084FC074C2060F6
:10999000206811F0FBFD286000F0FCF920B907F009
:1099A0002DFE0028F4D138BD0120FCE71C16002054
:1099B000F0B5124D124E85B003A8FFF7E3FF044641
:1099C00038B100F0FFF9044600F0ECF9204605B08C
:1099D000F0BDFDF7C9FC03994B1C074606D0CDE945
:1099E000004423462A463046FEF7C6FF039B0BB1D0
:1099F00012F0A2FE3846FDF7BBFCDDE7799D0000C2
:109A00003016002007B501A8FFF7BCFF03B05DF8D2
:109A100004FB08B5FFF7F6FF18B1BDE80840FFF7F3
:109A2000C7BF08BD08B507F02FFE08B1012008BD6B
:109A300000F030FC07F07CFE0028F7D100F0AAF916
:109A4000003018BF0120F2E708B5FFF7EBFF28B997
:109A500000F020FCBDE8084007F078BE002008BDFB
:109A600010B5FFF7F1FFFFF763F80446FFF75AF868
:109A7000A04203D2BDE81040FFF754B8204610BD05
:109A800008B5064B1978814204D0187011F0A2FD78
:109A9000002008BD40F28110FBE700BF2016002027
:109AA000024B1B6803B11847704700BF48160020DF
:109AB00008B5054B1B78014658B207F07FFDBDE89D
:109AC0000840FFF7EDBF00BF604500202DE9F047DB
:109AD000044686B0002800F02F8112F0BDFD00285A
