:1000000000080020890B0000850B0000850B000014
:10001000850B0000850B0000850B0000850B0000A0
:10002000850B0000850B0000850B0000850B000090
:10003000850B0000C88E0200850B0000850B0000B8
:10004000850B0000558F0000850B0000850B00001C
:10005000CD860000C18F0000618F0000798F000005
:10006000598F000009110000C9110000850B000024
:10007000D907000065080000850B0000850B000013
:10008000850B0000850B00000D120000850B0000A1
:10009000850B0000850B0000850B0000850B000020
:1000A000850B0000850B0000850B0000850B000010
:1000B000C58F00005D8F000025B20000B14F000029
:1000C00005900000850B0000ED750000850B000019
:1000D000850B0000850B0000850B0000850B0000E0
:1000E000850B0000850B0000850B0000850B0000D0
:1000F000850B0000850B0000850B000010B5054C3A
:10010000237833B9044B13B10448AFF300800123C3
:10011000237010BD901100200000000020BE0200DE
:1001200008B5034B1BB103490348AFF3008008BD7A
:10013000000000009411002020BE0200154B002B8F
:1001400008BF134B9D46A3F5803A00218B460F460E
:100150001348144A121A28F0C6FD0F4B002B00D08A
:1001600098470E4B002B00D0984700200021040038
:100170000D000D48002802D00C48AFF3008028F095
:100180004BFD2000290000F02BF928F031FD00BFC5
:10019000000008000008002000000000000000002F
:1001A00090110020FC4B0020000000000000000027
:1001B00010B500F01BFC002304220F210320BDE832
:1001C000104003F049BF00BF08B501210B4802F001
:1001D000A1FB01210A4802F09DFB01214FF48A4056
:1001E00002F098FB0121074802F094FB00F01CFC90
:1001F00000F096FCBDE8084000F068BC00A20400D6
:100200000032040000350A000422114601230020B8
:1002100003F022BF504B70B501225A641A6888B0AF
:1002200042F480721A6003A804F0C4F99DF80D30FE
:10023000012B40F28B804948494A4A494A4B4B4C72
:100240004FF418750560146049484A4A08601A60FE
:10025000494A4A4E136843F4F8431360354603F0A5
:1002600095FE0FCD03AC0FC4454B2A685B68228016
:100270001B0366D5434B1B884FF6FF72934208BFA2
:1002800040F25513ADF8123003A802F051FE3E487B
:1002900000F0D8FC01221146022002F0B5FE042134
:1002A000112002F07FFF00221146032002F0ACFE75
:1002B0000121364802F02EFB7369039303A8202323
:1002C0008DF80C3002F078FE4FF4004000F0F4FCA2
:1002D00002212F4802F066FF02212E4802F062FF41
:1002E00002212D4802F05EFF2C4B93E8070003AB80
:1002F00003C30024012103A81A708DF80C108DF897
:100300000D408DF80E408DF80F408DF810408DF89F
:10031000124004F01DF908A800F81C4D03F02EFD52
:10032000022302A88DF809308DF8084003F094FDEF
:100330001B4A136823F4E06343F40073136008B0AE
:1003400070BD184B1B88ADF812309DE79DF80C303E
:10035000022B3FF670AF7BE700000E408C420E4050
:1003600090420E40F0420E40F8420E409A6F050057
:100370001801000400843208A4310E405890020095
:10038000B081E00F0001E00F00F0490230253E008F
:1003900002001E00030020000500240070900200EF
:1003A00000500E40B881E00F10B500F0C9F9B0F56B
:1003B000B47F08D2094C23680133B3F5803F236032
:1003C00006DA002010BD054B00221A60012010BD86
:1003D00000F0D4F800232360012010BDC4110020D8
:1003E00010B5FFF717FFFFF7EFFEFFF7E1FE254817
:1003F0000CF04CF898B91FF0A3FB1FF0E9FB1FF0BD
:10040000ABFB1FF0F1FB1FF0B3FB1FF0BDFB1FF0B8
:100410007FFB1FF0C5FB1FF087FB1FF0CDFB00F03B
:1004200035FAFFF7F1FE04E000F008F900F07AF980
:1004300050B100F03DF9FFF7B7FFC8B900F0FEF882
:1004400000F070F90028F4D103F02AF90BF0E8FF6E
:100450000BF050FF03F026F9EBE7204600F0C4F85C
:1004600000F060F90028DFD1FFF79EFF0028DBD005
:100470000BF0AFFF04460028D6D000F07DFA00282C
:10048000EED1EAE77C9002002DE9F0410446B0F895
:100490000A8083F00103A8EB03080F46154603F01A
:1004A0000BF923891FFA88F8984562D91E2D064654
:1004B00038D92389A8EB0308C8EB0818B5EB480F17
:1004C00057D820881E2D00EBC000A84604EB800002
:1004D00028BF4FF01E0839464246103028F0DFFB97
:1004E000238822886089511C03EBC30304EB830338
:1004F00091FBF0F200FB121292B2C3F80C80228042
:10050000E38801339BB2E380238901339BB2B5EBCF
:10051000080547442381D4D1304603F0D1F80120A7
:10052000BDE8F081208800EBC00004EB8000394674
:100530002A46103028F0B3FB238822886089511C9A
:1005400003EBC30391FBF0F204EB830300FB1212F5
:1005500092B2DD602280E38801339BB2E38023897D
:1005600001339BB23046238103F0AAF80120BDE895
:10057000F08103F0A5F80020BDE8F081084B10B42D
:1005800000241C8021465C8003F10C009C804FF409
:10059000BD62DC801C815DF8044B28F0A4BB00BF69
:1005A0007C09002030B4064B064C01251D71042146
:1005B0000022206030BC19805A80FFF7DFBF00BFE7
:1005C0000C080020C811002038B5064C0D460A461C
:1005D0000146601D28F063FBADB2002365802371E6
:1005E000238038BD0C080020014658B10368064836
:1005F0001A0202F4E062C3F307231A430432002311
:10060000FFF742BF704700BF7C09002010B503F020
:1006100053F8094A91885389013191FBF3F404FBA3
:1006200013139BB293801389013B9BB21381BDE8E6
:10063000104003F045B800BF7C09002070B51A4D8A
:10064000EB889BB2002B2ED0184E22E06C88A4B20F
:1006500004EBC404A40003F033F82B191034D96858
:100660003368C9B228199847E8B903F025F86A88B1
:100670006B89013292FBF3F101FB13239BB26B8078
:10068000EB88013B9BB2EB8003F01AF8EB889BB23E
:100690004BB103F011F8EC88A4B2002CD6D103F0D2
:1006A0000FF82368FFDE70BD7C090020C811002010
:1006B00010B5184C23791BBB23889BB203BBD4F81D
:1006C0000500154A20F47F4323F0070393421BD013
:1006D00004F109010CF0FCF8104B114819680B6883
:1006E0001A0202F4E062C3F307231A43043201231F
:1006F000FFF7CAFE012104220023217122806380BA
:10070000BDE81040FFF79ABF04F1090000F086F938
:10071000E2E700BF0C0800202000FF004419002081
:100720007C090020054B1A792AB9188880B2B0FAE2
:1007300080F0400970470020704700BF0C0800207F
:10074000044B1A895889801A0138C0EB0010400008
:10075000704700BF7C090020704700BF10B4044CF4
:10076000044B0A46014620685DF8044B01F0A0BF27
:10077000700F00207907000019461046FFF746BFAA
:1007800038B5104C02200BF073FE20680368DA6E57
:1007900022F4E022DA66DA6E4FF4004542F4802259
:1007A000DA6602219D6401F0CDF8074B2068074905
:1007B0004FF4B47201F044FF054A064B12681A6008
:1007C00038BD00BF700F002059070000D011002075
:1007D0003C130020381300201E4B186803681A6C65
:1007E000120435D530B54FF400421B4C9A6423688F
:1007F00085B033B904200BF03BFEFFF7C1FF05B015
:1008000030BD256804AB002143F8041D019102911D
:10081000013D02AA01A9256001F038F901980028DC
:10082000EDD002990329EAD90C4B0D4C1A6813023A
:1008300003F4E063C2F30722134304332360236805
:100840009942DCD32168FFF7BFFEFFF799FFD6E797
:10085000704700BF700F002038130020D011002017
:10086000CC11002010B5084C23681B681B6C9B043E
:1008700000D410BD02200BF0FBFD23681B684FF471
:1008800000529A6410BD00BF700F0020F0B58BB00D
:100890002B4B019300232B4EADF80C30ADF81030EC
:1008A0008DF812308DF813308DF815308DF8173023
:1008B00003238DF814308DF818302349234A07910B
:1008C0004FF4E134022301A902948DF816304FF45D
:1008D000805441F61E6330680892ADF80E40ADF8C2
:1008E000243001F0E7F9029B194D1A481A4F9B0971
:1008F0002B60FFF757FE19490C2002F031FF184911
:100900000D2002F02DFF174B3068C3F880414FF4E3
:100910000052C3F880211C601A6002681249D76631
:100920009164D46C114B124944F42044D4644FF4C4
:10093000B47201F085FE0F4B2A681A600BB0F0BD4F
:1009400000000140700F0020740F0020F40F002001
:100950003C1300205D07000030002401D90700008F
:100960006508000000E100E0FFFF010059070000FA
:10097000D01100203813002003681B4A23F47F4362
:1009800023F0070393420ED110B54368044613F0D9
:10099000010012D15A0717D413F0020F18BF01201B
:1009A0001B0702D410BD002070470022114640F6FC
:1009B00009201FF037F8012010BD1FF02BF86368E5
:1009C0005A074FF00100E7D5002240F2951011467A
:1009D0001FF028F8636813F0020F4FF0010018BFF2
:1009E00001201B07DED5E0E7A000010330B50A4D6A
:1009F0000FCD87B001AC0FC42B68236001A94FF065
:100A0000FF3005F05BFA20B901214FF0FF3005F00F
:100A100058FA07B030BD00BFC8900200002211464E
:100A200040F283101FF05AB870B5224D224E0FCD00
:100A300088B002AC0FC495E8030084E803000121EC
:100A40001E4801F067FF01211D4801F063FF0124EA
:100A50001C4B0493304602A98DF8164003F05EFE4D
:100A6000052108462346042203F0F6FA2246002315
:100A70000921022003F0F0FA042211462346052042
:100A800003F0EAFA234604220821022003F0E4FAE4
:100A90000D4BB3670B2249F23D6372670193019BD3
:100AA000002B05DD019B013B0193019B002BF9DC31
:100AB00008B070BDDC9002000004014000350A005F
:100AC0000042040040420F000D1D001A00230521C2
:100AD00010B51A46084603F0BFFA00231A4609214A
:100AE000022003F0B9FA0C4C012300220421052056
:100AF00003F0B2FA012308210022022003F0ACFA2D
:100B0000204603F07BFE0023A36719466367034872
:100B1000BDE8104001F0FEBE0004014000420400A8
:100B200038B5154B154D4FF480721A601424FF210F
:100B3000284603F08FFE013CF9D1114B0F4D4FF4C5
:100B400080721A601E24FF21284603F083FE013CB8
:100B5000F9D10524FF21094803F07CFE013CF9D1BD
:100B6000054B06484FF480751D60B92103F072FEF5
:100B7000034B20461D6038BD6CA0004400040140BA
:100B80006CA00046FEE700BF08B500F079F8064B00
:100B90000648834206D2064A52F8041B43F8041B57
:100BA0009842F9D8FFF7CAFA0008002090110020F7
:100BB0002CBE02000048704700F04902114BD3F8E8
:100BC000943003F00703023B032B18D8DFE803F04F
:100BD0000D0214104FF400400A4BD3F80031C3F358
:100BE00004230133B0FBF3F07047074B1868F3E7B9
:100BF000064B18684008EFE7054B1868ECE7034B15
:100C00001868E9E700400E40781000207C100020B2
:100C10008010002008B5FFF7D1FF054B054AD3F837
:100C20000831C3F308230133B0FBF3F0106008BDB3
:100C300000400E4074100020014B1868704700BF40
:100C40007810002008B50B4B0B491860D1F8943090
:100C500003F00703022B00D008BDFFF7AFFFD1F868
:100C60000831064AC3F308230133B0FBF3F01060E8
:100C700008BD00BF7810002000400E407410002016
:100C8000044B054A9A60D3F8882042F47002C3F8F6
:100C90008820704700ED00E0000000004FF40040A5
:100CA000704700BF4FF47A70704700BF014B18685F
:100CB000704700BF8010002008B50B4B0B4918602F
:100CC000D1F8943003F00703042B00D008BDFFF7E0
:100CD00075FFD1F80831064AC3F308230133B0FB8E
:100CE000F3F0106008BD00BF8010002000400E40EF
:100CF000741000202DE9F04F594C85B025789DF8EF
:100D000044A09DF84CE0002D66D0072A14465FD819
:100D10000E9A002A5CD00F9A002A59D0129AB2F586
:100D2000006F55DC012806460F464ED0DFF844918F
:100D30004FEA041809EB0802127B002A50D0494AF6
:100D400000216501CDE90111039102EB050C002F93
:100D500048D157519CF802009CF80310CCF804705D
:100D600040F0100041F03001CCE902778CF802002D
:100D70008CF80310BAF1000F65D00093129B515B01
:100D8000013B63F30E11515315440E99EB78A960A2
:100D90006EF383030F996960012EEB703CD0149BB6
:100DA000002B56D009EB08032046149C49F8084054
:100DB000159D5D600024624669465E739C6003F089
:100DC000C9F9204605B0BDE8F08F109A002AADD1D0
:100DD000254805B0BDE8F08F244805B0BDE8F08F88
:100DE0002348F6E751519CF802B09CF80300CCF878
:100DF00004104BF0100B40F00300CCE902118CF80A
:100E000002B08CF80300BAF1000FB6D1C1B241F0C4
:100E100030018CF80310B0E71323EB6095E80F0066
:100E200005F1100E8EE80F00EA69109B6B616FF000
:100E3000030161F39F02012FEA61B3D10F9BAB6104
:100E4000109B6B60AEE7C9B241F003018CF8031050
:100E500093E7AB78149A62F30413AB70A2E700BF78
:100E6000C0140020C0130020018000F0028000F0B8
:100E7000078000F04013002038B5114B1B7883B178
:100E800088B1054602F018FC0E4900220B461C7B77
:100E9000103354B10132082AF9D102F011FC0A488A
:100EA00038BD0A4838BD0A4838BD13012A60CA183F
:100EB0000125CC50157302F003FC204638BD00BF5D
:100EC000C014002040130020048000F0028000F0D5
:100ED000018000F010B5174A82B000231268019219
:100EE0008DF8043002F0E8FB134B1C78E4B90122C2
:100EF0001A7002F0E5FB114B04220DEB02001C738B
:100F00001C7783F82C4083F83C4083F84C4083F8EE
:100F10005C4083F86C4083F87C408DF8072003F038
:100F2000EFF8204602B010BD02F0CAFB044802B040
:100F300010BD00BFF4900200C01400204013002038
:100F4000038000F0F0B589B09DF838500F9C9DF8F3
:100F50004070119E03950494129D01930024009209
:100F60000B460246CDE905760795029421462046B8
:100F7000FFF7C0FE09B0F0BDF0B589B09DF838505C
:100F80000F9C9DF84070119E03950494129D01934F
:100F9000002400920B460246CDE90576079502949F
:100FA00020460121FFF7A6FE09B0F0BD08B50A4BA7
:100FB0001A786AB1072809D8084A02EB00131B7B8C
:100FC00043B1002103F092F8002008BD044808BD99
:100FD000044808BD044808BDC01400204013002088
:100FE000018000F0028000F0078000F008B50A4B95
:100FF0001A786AB1072809D8084A02EB00131B7B4C
:1010000043B1012103F072F8002008BD044808BD77
:10101000044808BD044808BDC01400204013002047
:10102000018000F0028000F0078000F008B50A4B54
:101030001A7862B1072808D8084A02EB00131B7B14
:101040003BB103F0D7F8002008BD054808BD0548AE
:1010500008BD054808BD00BFC01400204013002093
:10106000018000F0028000F0078000F00D4B1B783B
:10107000A3B1072810D879B10B4B03EB00131B7BEE
:1010800073B10A4B01221B6A02FA00F018401ABF22
:1010900000200A700870704705487047054870477F
:1010A00005487047C01400204013002000200E4067
:1010B000018000F0028000F0078000F00D4B1A78EC
:1010C00092B107280DD861B10B4A02EB00131B7BCC
:1010D0006BB110B50C4603F0A3F80023206018464E
:1010E00010BD064B18467047054B18467047054B18
:1010F00018467047C014002040130020018000F003
:10110000028000F0078000F02DE9F8431D4E326E9A
:10111000F36E12EA030834D41B4CDFF870900127F9
:10112000002506E00135082D4FEA470704F11004B9
:1011300025D018EA070F2846F4D02368B766002B9D
:10114000F0D0D4E901210131A1609847637B012BE4
:10115000E8D109EB451303F1080218330028E1D167
:10116000117960F3410111711A79013560F341027F
:10117000082D1A714FEA470704F11004D9D1BDE8D0
:10118000F883FEE700200E4040130020C01300202B
:10119000054B4FF480214FF48062C3F88011196031
:1011A000C3F880211A60704700E100E038B50446BA
:1011B0000D4602F081FA034B43F82450BDE8384055
:1011C00002F07EBAC41400200E4B70B5D3F8284448
:1011D000D3F81C1445F255520C401440C3F8244473
:1011E0007CB1094E012594FAA4F0B0FA80F005FA1A
:1011F00000F256F8203024EA020403B19847002C8C
:10120000F1D170BD00A00040C41400200E4B70B599
:10121000D3F82844D3F81C144AF6AA220C401440F0
:10122000C3F824447CB1094E012594FAA4F0B0FA25
:1012300080F005FA00F256F8203024EA020403B1E7
:101240009847002CF1D170BD00A00040C4140020CC
:1012500008B5034B1B6803B19847012008BD00BFC8
:10126000081500200B4A0C4B70B510600B4C0C4D50
:1012700000221A80C4E9005103F018F9C30300D416
:1012800070BD03F00DF96368002BF9D00420BDE8B0
:101290007040184708150020041500200C15002088
:1012A000511200002DE9F8432B4E02F0FDF934787D
:1012B000074614B902F04AFC3478284DDFF8A080C4
:1012C0002B684FF00009CCB9727822BB13B1032010
:1012D000984738B1002002F09FFB03246B680BB1E4
:1012E00020469847AB6803B32046984710F0010F9B
:1012F00081461DD034782B68002CE5D013B1012035
:10130000984730B3D8F8103023F00403C8F81030F1
:1013100030BF0124E2E71BB1022098470028E1D04A
:10132000002002F0EDFA0224D8E719F0010FE1D114
:10133000A31E012B05D9384602F0BAF92046BDE8B4
:10134000F88302F033FC384602F0B2F92046BDE8DB
:10135000F8830446C6E700BF041500200C150020E2
:1013600000ED00E00238C3B2012B03D8024A135C3F
:1013700001331354704700BF041500200238C3B274
:10138000012B00D97047034A135C002BFAD0013BB4
:101390001354704704150020054B1A782AB95B785E
:1013A000002B0CBF0320022070470120704700BFB4
:1013B0000415002038B504460D4602F07DF9A388D7
:1013C0009BB253B1638803EB830304EB83040834BB
:1013D0002C6002F075F9002038BD2B6002F070F926
:1013E000004838BD0B7000F070B504460E4602F0A0
:1013F00063F9A3889BB2BBB163886288E58803EB7D
:10140000830304EB830301320833336092FBF5F36B
:1014100005FB13239BB26380A388013B9BB2A3808F
:1014200002F04EF9002070BD336002F049F9014826
:1014300070BD00BF0B7000F030B504460D4683B0A0
:10144000C07DE17EE5B10123042202F005FE012307
:101450000222217F207E02F0FFFD94F83130022B22
:1014600036D0032B1CD1617F607E0023012202F065
:10147000F3FD00230422A17FA07E02F0EDFD0FE02A
:101480002B462A4602F0E8FD2B462A46217F207E85
:1014900002F0E2FD94F83130022B04D0032B2CD063
:1014A000002003B030BD2B462A46617F607E02F0EB
:1014B000D3FD2B462A46A17FA07E02F0CDFD627FA0
:1014C000607E019501231146009302F071FDE7E76C
:1014D000617F607E0023012202F0BEFDA17FA07E1D
:1014E0000023042202F0B8FD627F607E01231146D2
:1014F000CDE9003302F05CFDD2E72B462A46617F3E
:10150000607E02F0A9FD2B462A46A17FA07E02F054
:10151000A3FDC5E790F83230012280F82C202BB1D2
:10152000012B03D0002380F82C30704703680A6831
:1015300030B50D4687B0044601696D688068049433
:10154000054C01950394002501241C330295009459
:10155000FFF712FD07B030BDC91B000090F8323014
:10156000012280F82D20ABB90268343230B50D4627
:1015700087B004460B686D68C168406804940A4CE3
:10158000019503940025012402950094FFF7DAFCED
:1015900007B030BD012B03D0002380F82D307047F9
:1015A00002682832E2E700BFAD150000F0B583B055
:1015B000906A01A91446FFF7FDFE154B98421BD017
:1015C000019B00251D619D6002F076F8019AD668A6
:1015D000074626B12946D2E900232046B04701A993
:1015E000A06AFFF701FFA06A83889BB23BB984F829
:1015F0002D30384602F064F8012003B0F0BD01A997
:10160000FFF7D8FE20460199FFF7A8FFF1E700BFDA
:101610000B7000F0427E054B417F02EB4202D2018B
:1016200013440B449B001868C0B27047E00085105B
:1016300010B51D4B82B003F1100153F8044B627FCB
:10164000824203D08B42F8D102B010BD94F8313001
:10165000022BF9D12046FFF7DDFF637D2075022BB9
:10166000F2D194F82E3003F0FF02002BECD102A946
:10167000606801F8012DFFF7F9FC237D63B194F850
:101680002F304BB90028DFD19DF80730002BDBD07D
:101690006068FFF78BFCD7E7002384F82F30606881
:1016A000FFF7A4FCD0E700BF1815002090F83230F7
:1016B00053B902680123D3601369D807FCD5536F6F
:1016C00043F0010353677047012B00D07047036854
:1016D0005A6C9107FCD401225A609A68D207FCD553
:1016E0005A6D42F001025A65704700BF90F83230DF
:1016F0006BB1012B00D070470268536C9B07FCD480
:10170000536D022123F00103536551607047036854
:101710005A6F022122F001025A67D960704700BF58
:1017200010B50446FFF7D6FB201D0021FFF7A4FBF0
:1017300030B9014604F10800FFF79EFB00B910BD67
:10174000004810BD0E7000F003689B6803F00200B3
:10175000DA0748BF40F00100590748BF40F00800D1
:101760001A0748BF40F02000D90648BF40F04000AB
:101770009A0648BF40F080005B0648BF40F4005026
:10178000704700BFF8B5044609200D46164601F023
:1017900099FF0746A26A03E094F82E3023B977BB7D
:1017A00093889BB2002BF7D194F8323003BB2068AA
:1017B000076917F002074DD10423C3600369990735
:1017C000FCD5436F012243F00203436784F83020C5
:1017D0003EB12E4415F8011B03F046F8B5422068CF
:1017E000F8D103699906FCD5002F37D00020F8BD49
:1017F000012B07D0012384F830300020F8BDFFF71B
:1018000083FCC7E72068876817F0020718BF84F8D1
:1018100030300FD03EB12E4415F8011B02F020FDF0
:10182000B5422068F8D183681A07DDD483681A07A7
:10183000F9D5D9E7436C9A07FCD404234360836845
:101840009B07FCD5436D012243F00203436584F8F6
:101850003020DFE7012384F83030B9E794F83230E4
:1018600063B1012BC2D12268536C9B07FCD4536D2A
:10187000082123F0020353655160B7E723685A6FCC
:10188000082122F002025A670020D960F8BD00BF8B
:1018900010B590F82E30012B044607D094F82E3066
:1018A000013BDBB284F82E30002010BD90F83130BF
:1018B000022B03D06068FFF799FBEFE7FFF7AAFE62
:1018C0000028F7D0EAE700BFF8B5044617460D46F2
:1018D00001F0F2FEA388E2889A422BD9268884463A
:1018E0000FCD06EB8606B600083604EB060EA051B7
:1018F000CEF80410CEF80820CEF80C302868CEF8C8
:10190000100023882288E088511C03EB830391FB9D
:10191000F0F204EB830300FB121292B208333B6037
:101920002280A38801339BB26046A38001F0C8FEE9
:101930000020F8BD00233B6001F0C2FE0048F8BD66
:101940000A7000F0002849D02DE9F04182B00D4620
:10195000044601F0B1FE012D074619D0022D3FD1FA
:10196000636A9B889BB2002B46D0A068FFF75EFBA2
:101970000023606A84F82C3083889BB2002B61D1ED
:1019800094F83130032B1CD02046FFF7AFFE18E04F
:10199000A36A9B889BB2002B2ED06068FFF746FBA2
:1019A0000023A06A84F82D3083889BB253BB94F83F
:1019B00032306BB9236818698304F8D5023D012DD4
:1019C000D3D9384601F07CFE002002B0BDE8F0819A
:1019D000012BEED12046FFF7B7FEEDE72848704710
:1019E000032DEBD1A36A9B889BB2002BD5D1636AF0
:1019F0009B889BB2002BD0D101F062FE214802B03F
:101A0000BDE8F08101A9FFF7D5FC019960680831B4
:101A1000FFF754FB1C4B019A9846136104E0FFF753
:101A2000E3FC019BDE683EB9A36A18469B889BB223
:101A300001A9002BF3D1BAE79B680022414620465A
:101A4000B047F1E76946FFF7B5FC0099A0680E4E74
:101A50000831FFF733FB009B1E61636A18469B88C1
:101A60009BB26946002B8BD0FFF7BEFC009BDD6864
:101A7000002DF2D09B68002231462046A847ECE7B3
:101A8000027000F0087000F0097000F02DE9F041DC
:101A90000546406A848882B00026A4B2009601966A
:101AA00017460E46984694B90021C8F800103960D0
:101AB000316095F832302BB1012B1ED0002002B0DE
:101AC000BDE8F0812B68186902B0BDE8F081694675
:101AD000FFF770FC01A90446A868FFF7EFFA009A27
:101AE000002AE1D0002CDFD1D2E9002301995B1A52
:101AF0003B60C8F800103260DBE72846FFF724FEA1
:101B000002B0BDE8F08100BF98B110B590F82E305A
:101B1000044633B990F83130022B0CD06068FFF7DF
:101B200045FA94F82E300133DBB284F82E300020D1
:101B300010BD03487047FFF76DFD0028EED0F0E7B9
:101B4000027000F070B590F83150022D82B003465B
:101B50001AD0012D02D0002002B070BD037D0446D2
:101B600002AE63B3132306F8013DFFF7CDFF2A460B
:101B700031462046FFF706FE94F82E30002BEAD0BF
:101B80002046FFF785FEE6E7827E857F0D49447D8E
:101B900002EB4202120101201144A8404CB1012C79
:101BA00001D01B7D2BB101F1C0610860002002B0A3
:101BB00070BD01F180610860002002B070BD11238A
:101BC000D1E700BF0CA0004070B582B0506A01A9F7
:101BD0001446FFF7EFFB344B984235D094F832208F
:101BE000019B002A33D12068016C11F4007106D0EA
:101BF0009A602E4919614FF40072826405E0026C0C
:101C0000D50541D400221A619A6001F055FD019971
:101C1000CD68064635B1D1E900208B680969C31A41
:101C20002046A84701A9606AFFF7DEFB606A858845
:101C3000ADB2D5B101A9FFF7BDFB20460199FFF771
:101C400069FC304601F03CFD012002B070BD012A64
:101C5000D8D12168CA6A12F080021CD0134A1A61D6
:101C60000020802298604A63CFE701232375204635
:101C7000FFF768FF94F8313084F82C50032BE0D044
:101C80002046FFF733FDDCE7094D99604FF4807281
:101C90001D618264B9E7C86A4006B3D59A600448FA
:101CA000186140224A63B0E70B7000F00D7000F03D
:101CB0000C7000F02DE9F041894D06460F460FCD1E
:101CC00088B001AC0FC495E8070084E80700B6B1FE
:101CD000002F35D038220021304627F004F8814A01
:101CE000814913783D46344673B10023084650F8C5
:101CF000042B7AB194420DD00133042BF7D17B4EE3
:101D0000304608B0BDE8F081C1E90033C1E90233D3
:101D1000012010702A6841F82340754B297C84F813
:101D200031109A424FF00001226084F832100CD03A
:101D3000704B9A4200F0A0816F4B9A4200F0C7802E
:101D40006E4E304608B0BDE8F0816D4B6D4A23629F
:101D50004FF44023C4E90323D5E906236968688961
:101D6000B5F80CC062620026168005275680968062
:101D7000AA7B84F82C60A3621E805E809E80EB7B31
:101D80000391ADF8140001215F4884F82D6084F8B8
:101D90002F60ADF812C08DF810208DF816308DF838
:101DA000117000F0B7FD0121584800F0B3FD01218A
:101DB000206A00F0AFFD01A928688DF8046002F0E8
:101DC0004FFC28686A7A836F297AD4F800C0DFF85C
:101DD00020E123F4F85323F01F03134343EA0123C4
:101DE0008367F4454FF00303436700F09580414853
:101DF000844500F04981404B9C45A1D1002900F069
:101E00004C824B1E0C2B40F21483A1F10E03062BC7
:101E10008CBFFF230523E375002A00F0DE82012A30
:101E200000F08983931E0A2B40F20D83A2F10D036B
:101E3000062B40F2B083A2F11403092B40F2038376
:101E40001F2A14BFFF2300232376002900F00683F6
:101E5000012900F09D838B1E0B2B40F2FD820E2981
:101E600000F0A3830F2900F09E83102900F07C83EB
:101E7000112900F07783122900F07283132900F0F2
:101E80006D83142914BFFF230723E376002A00F093
:101E90000D82531E0B2B40F209820D2A00F0B383F2
:101EA0000E2A00F058830F2A00F05283102A00F007
:101EB0006883112A08D0122A00F07283132A00F0D6
:101EC0006C831F2A40F0F28105232377A7E0104B93
:101ED000104A23624FF46023C4E903233CE700BFA8
:101EE000089102002815002018150020027000F04B
:101EF000000001400004014000080140037000F0B0
:101F00000032040001000C004041050000350A00C9
:101F10000052040001000E00002900F0B481481EA8
:101F2000042816D9881F042840F2CE82A1F10B00A4
:101F3000B84240F21B83A1F11100062840F24A8307
:101F4000A1F11803062B40F243831F2914BFFF267B
:101F50003E46E675002A40F047820129227600F0CD
:101F60002683022900F06D82032952D0042950D023
:101F700005294ED0062900F0A982072900F0B48275
:101F8000082900F0B782092900F0BA820A2900F076
:101F9000BD820B2900F012830C2900F013830D2958
:101FA00000F00E830E2900F025830F2900F0208316
:101FB000102900F08B82112900F01C83122900F0F7
:101FC0001783132900F08282142900F08D821529CD
:101FD00000F09082162900F09382172900F0968273
:101FE000182900F00383192900F0FE821A2900F055
:101FF000F9821B2900F0F4821C2900F0EF821D29D0
:1020000000F0EA821E2900F0D9821F2914BFFF21A7
:102010000721E176002A40F07B81012222776B7C48
:102020006376AB7C6377EB7CA3762B7DA377012172
:102030002046FFF701FA064600287FF461AE01F062
:102040003BFB2F7C032F804600F0E181022F00F044
:102050000F8228684FF0FF338364042102F0F8FAFE
:102060002B684FF440622046DA60FFF759FB0646C2
:10207000404601F025FB43E6E14BE24A23624FF480
:102080005023C4E9032367E6002900F01281481EAB
:10209000042816D9881F042840F21C82A1F10B00E5
:1020A000052840F24682A1F11100062840F28E82F6
:1020B000A1F11803062B40F287821F2914BFFF26C7
:1020C0000526E675002A00F09581012A00F0968227
:1020D000931E022B40F2B981531F042B40F2F08172
:1020E000A2F10A03052B40F22B82A2F11003062B6A
:1020F00040F22482A2F11703072B40F27D821F2AAF
:1021000014BFFF2300232376002900F0AF810129AB
:1021100000F07782022954D0032952D0042950D0EC
:1021200005294ED0062900F0D381072900F0DE8171
:10213000082900F0E981092900F0E4810A2900F06A
:102140006B820B2900F066820C2900F061820D2958
:1021500000F05C820E2900F06F820F2900F06A8285
:10216000102900F0B581112900F06682122900F0D3
:102170006182132900F0AC81142900F0B781152980
:1021800000F0C281162900F0BD81172900F04482B9
:10219000182900F04D82192900F048821A2900F010
:1021A00043821B2900F03E821C2900F039821D2940
:1021B00000F034821E2900F02D821F2914BFFF2158
:1021C0000721E176002A00F00281012A7AD0022A52
:1021D00000F03D81032A00F06081042A00F0628152
:1021E000052A00F06A81062A00F07681072A00F0AD
:1021F0007881082A00F08C81092A00F08E810A2A51
:1022000000F08E810B2A00F091810C2A00F08B8166
:102210000D2A00F09A810E2A00F094810F2A00F016
:102220004C81102A00F09181112A00F08B81122A32
:1022300000F04381132A00F04F81142A00F05181ED
:10224000152A00F06581162A00F06781172A00F030
:102250009581182A00F0BB80192A33D01A2A00F081
:10226000F6801B2A00F019811C2A00F01B811D2A10
:1022700000F056811E2A00F059811F2A14BFFF2149
:1022800000212177CBE6E175002A00F0A380012A26
:102290001BD12176E1760222C0E6E17512B1012A56
:1022A0007FF4C0ADFF2323760523E376FF23237756
:1022B000B5E6E175002A00F0A780012A7FF408AF97
:1022C0002176E17602212177A9E6931E022B40F2C6
:1022D000B680531F042B40F2EA80A2F10A03052BBB
:1022E00040F20A81A2F11003062B40F26581A2F1AF
:1022F0001703072B40F25E811F2A14BFFF23002320
:102300002376002900F09780012940F0D280E17601
:10231000012AC0D0022A00F09080032A00F09A809F
:10232000042A00F0BD80052A00F0BF80062A00F0D4
:10233000C980072A00F0D380082A00F0D980092A32
:1023400000F0DC800A2A00F0E6800B2A00F0108101
:102350000C2A00F011810D2A00F00C810E2A00F0E9
:1023600015810F2A00F0A180102A00F00381112AA4
:1023700000F00C81122A00F09880132A00F0A2804D
:10238000142A00F0AC80152A00F0B280162A00F062
:10239000B580172A00F0F880182A3FF43EAE192ABB
:1023A0003FF479AF1A2A48D01B2A53D01C2A77D081
:1023B0001D2A00F0B0801E2A00F0DA801F2A14BF08
:1023C000FF2200222AE602297FF4A6AEE17601214F
:1023D000217724E62276E2761FE6FF230129237681
:1023E0003FD1E37623771AE6012A7FF46EAF00230C
:1023F000237689E701292276E5D1E17621770EE679
:102400000042040001000D002276E276DFE7286832
:102410002B8CC367436E43F004034366436F4FF056
:10242000FF3243F0300343678264052102F010F964
:1024300016E6FF23EFE4E1766CE70322EEE50023E6
:102440005EE7E176E9E5FF23FEE400235BE6032196
:102450002177E4E50422E1E5FF2316E50523E37691
:1024600017E5881E0B283FF6FAAC1EE7E176AEE6CC
:102470007249607FFEF79AFEFEF78AFEA675267502
:1024800067752046FFF75EFB2B7C28684FF0FF3214
:10249000032B82647FF4E1ADC7E704212177BEE519
:1024A0000522BBE505212177B9E50B22B6E501231D
:1024B00026E702297FF458ADABE50B212177AEE585
:1024C000012320E60C22A9E5012642E50B21A0E527
:1024D0000B2176E60126F4E50C2121779FE50D22FC
:1024E0009CE50D2121779AE50C2192E50C2168E607
:1024F0000E2293E50D218CE5022301E70F228DE5E5
:102500000E2186E50E215CE60D215AE60F2180E5BD
:102510000E21217783E5062280E50F2121777EE5D4
:10252000062121777BE50821217778E507212177AE
:1025300075E50226C5E5FF23237689E40323E2E55A
:102540000223E0E50A21217769E50921217766E583
:102550000323237763E50123237760E5062394E4CF
:10256000052392E4042390E403238EE40226F0E49E
:10257000072253E5092251E508224FE50021217782
:102580004DE5042323774AE5002247E50A2245E585
:10259000FF23E3767DE4052356E4072323773EE516
:1025A000062323773BE501236FE400236DE4E17606
:1025B0000A4633E50523A3E60323A1E6062128E521
:1025C000082126E5072124E53E467AE51E4678E502
:1025D0003E46BEE41E46BCE405211AE5042118E58A
:1025E000032116E5022114E5012112E5002110E581
:1025F0000A210EE509210CE5052384E50023237655
:1026000085E5E176E1E50023237708E50821D8E5B3
:102610000721D6E50621D4E50F21D2E50521D0E535
:102620000421CEE50321CCE50221CAE50121C8E55C
:102630000021C6E50A21C4E50921C2E531160000E2
:1026400070B586B050B329B3541EB4F5006F21D2D3
:10265000144E0191144605466A46406A029401A947
:102660000394CDE90436FFF72FF9044698B995F89D
:102670002C3083B92846FFF719F800992846FEF751
:1026800049FF95F83130032B05D02C752846FFF70C
:1026900059FA00E0044C204606B070BD034C2046B9
:1026A00006B070BD017000F0037000F0027000F021
:1026B00070B586B028B301B3541EB4F5006F1CD2B8
:1026C000164E0191144605466A46806A029401A995
:1026D0000394CDE90436FFF7F7F8044670B995F88E
:1026E0002D305BB900F0E8FFAB6A9B889BB20646D1
:1026F0005BB9304600F0E4FF00E0094C204606B02C
:1027000070BD084C204606B070BD00992846FEF703
:1027100025FF012385F83030EBE700BF017000F0A2
:10272000037000F0027000F008B500F00F03013BE9
:10273000072B7CD8DFE803F011545F7B6A757B04BC
:102740004B4BD3F85C3103F03003202B71D0302B8E
:102750002ED0102B2CD0012309E0454BD3F8943018
:1027600003F00703023B052B22D8424AD35C424ABE
:10277000904273D0414A90426AD0414A904261D01F
:10278000013B032B1DD8DFE803F0270F026FFEF794
:1027900015FA374BD3F80031C3F300635A1C0123F9
:1027A0009340B0FBF3F008BDBDE80840FEF77EBAE9
:1027B000314B984252D0314B984249D0304B9842DD
:1027C00040D0002008BD2C4B984247D02B4B98425C
:1027D0003ED02B4B984235D0BDE80840FEF75EBA9C
:1027E000234BD3F8803003F00703013B032BEAD8D7
:1027F000244AD35CBBE71E4BD3F8843003F00703B5
:10280000013B032BDFD8204AD35CB0E7184BD3F849
:10281000883003F00703013B032BD4D81B4AD35C59
:10282000A5E7134B1B6FDB07C2D509239FE70023E6
:102830009DE7114B984211D0104B984208D0104B95
:10284000984211D10A4BD3F8803003F0070397E781
:10285000074BD3F8883003F0070391E7044BD3F814
:10286000843003F007038BE7BDE80840FEF71ABA8F
:1028700000400E40249102000300200005002400C7
:1028800002001E002C910200309102002C910200E7
:102890001A4B41F6713210B4C9B21C6C1A645B68F1
:1028A00011B302290BD1164B984217D9154B9842F8
:1028B00022D903F5B70303F5586398420DD94FF0B9
:1028C00040720E494B6823F0407313434B600CB1C8
:1028D00000230B645DF8044B704704210A4B03EBA3
:1028E000C1014B791A06ECE7084B9842F6D9084B20
:1028F0009842E4D80121F1E70321EFE700000E4000
:10290000C0CF6A00809FD5003491020040787D01DD
:10291000005A6202C0F30323013B30B4092B0CD8E8
:10292000DFE803F00D110B0B152D190B2705164CC5
:10293000C0F3043020448000016030BC7047C0F315
:102940000430124CF6E7C0F30430114CF2E7C0F348
:102950000430104CEEE7104CC0F3043010250F4B40
:10296000D3F84421D207E5D4D3F840212A42FBD141
:10297000E0E7C0F304300A4C4FF48035EFE7C0F3D2
:102980000430084C0125EAE7800AF2100000F2103A
:102990000006F2108005F2104007F21000400E40D1
:1029A0008007F2100007F210C0F30313013B092B5C
:1029B0000CD8DFE803F0161C222C0B0B3205380D67
:1029C000284B984244D0284B984238D0002070477A
:1029D000264B9842FAD1264BD3F8300100F0030081
:1029E0007047234BD3F80001C0F304207047204BFD
:1029F000D3F81401C0F3042070471D4BD3F8000135
:102A0000C0F30060431C0120984001387047184B08
:102A1000D3F80C01C0F308207047154BD3F8080118
:102A2000C0F308207047134B9842CFD1104BD3F816
:102A300028310120C3F301139840013870470C4B33
:102A4000D3F820310120C3F30113984001387047B7
:102A5000074BD3F82031012003F00F0398400138D1
:102A6000704700BF8006160080162E00A0091400D3
:102A700000400E4090171A0000F47813B3F5A01F21
:102A800010B500F0828019D9B3F5001F3BD04AD9A8
:102A9000B3F5381F2DD063D9B3F5481F00F09A80E5
:102AA000B3F5781F17D10446FEF788F80146204693
:102AB000FFF77AFF0130B1FBF0F010BDB3F5202F26
:102AC00013D00AD9B3F5602F43D0B3F5801F44D09B
:102AD000B3F5402F1CD0002010BDB3F5003F6ED0E1
:102AE000B3F5802F60D0002BF5D1BDE81040FEF784
:102AF00065B84548FFF718FE444BD3F82031C3F3BF
:102B00000113D84010BD4248BDE81040FFF70CBE8D
:102B1000FEF754F83D4BD3F81431C3F304230133CB
:102B2000B0FBF3F010BDB3F5D01F21D0B3F5F01F0B
:102B300035D0B3F5B01FCED13348FFF7F5FD334B99
:102B4000D3F82021012302F00F029340B0FBF3F0F1
:102B500010BD2E4B1B6FDB07C7D42E4B186810BD62
:102B6000B3F5101FB7D12C48BDE81040FFF7DCBD0E
:102B70002748FFF7D9FD254BD3F828210123C2F3BD
:102B800001129340B0FBF3F010BD2348FFF7CCFDDA
:102B90001E4BD3F8303103F00303D84010BD1A4860
:102BA000BDE81040FFF7C0BDFEF708F8174BD3F89B
:102BB0000C31C3F308230133B0FBF3F010BDFDF774
:102BC000FDFF124BD3F80831C3F308230133B0FBE8
:102BD000F3F010BD0D4CD4F85C3103F03003202B22
:102BE00005D0302B07D0102B7FF475AFB5E7BDE8CB
:102BF0001040FEF721B8FDF7E1FFD4F80031C3F330
:102C0000042303FB000010BD02001E0000400E4024
:102C100003002000841000200500240000F00F00B5
:102C20000138072847D8DFE800F0121D3346283E58
:102C30004604264BD3F85C3103F03003202B40D000
:102C4000302B40D0102B0CBF0720012070471F4BAA
:102C5000D3F8943003F00703023B052B2FD81C4A0E
:102C6000D05C7047194BD3F8803003F00703013B69
:102C7000032B22D8174AD05C7047144BD3F8883006
:102C800003F00703013B032B17D8134AD05C7047AE
:102C90000E4BD3F8843003F00703013B032B0CD811
:102CA0000E4AD05C7047094B1B6F13F0010F14BF25
:102CB0000920072070470020704701207047052039
:102CC0007047042070470820704700BF00400E4046
:102CD000249102002C9102002C91020030910200FC
:102CE00038B5002A63D0824B824A12685C6A002998
:102CF00024F0405414BF4FF08053002344F000549C
:102D00001C43FDF799FF0121054600F0BFFF7A4BF8
:102D10001B68590640F1CD80764A784B5268186C92
:102D200041F671311964C2F301425B68002A00F078
:102D3000B280022A00F0C2804FF040736F494A68A7
:102D400022F040721A434A6008B100230B64684BBA
:102D50006B4AD3F80031C3F304230133B5FBF3F31B
:102D6000934240F28B80674A012093428CBF4FF020
:102D700000734FF08073644A5D491060D1F8002100
:102D800022F080721343C1F80031594B5A6A12F095
:102D9000300F1AD1574AD26B5A6AD20779D55A6A7C
:102DA00022F0300242F010025A6201200EE0504B35
:102DB0005C6A24F04054002963D1FDF73DFF0121F6
:102DC00000F064FF4A4B5C6238BD0020484B4F4A1C
:102DD000042119661368002BFCD04D4A1368002BA0
:102DE000FCD00028EED0424B5A6AD50775D54FF477
:102DF00080612022C3F8A8105A665A6AC2F30112F1
:102E0000002A15BF00204FF480004FF400014FF45A
:102E10004001D3F8902031EA0202FAD108B1D3F888
:102E2000A030334AD2F89C500823C5F30A05136634
:102E3000D2F890305907FBD42D4BD3F890201207CD
:102E4000FBD4D3F89020586A324A314920F0300040
:102E500040F010005862186B0240E80903300F2858
:102E600028BF0F202A4342EA007204201A63186622
:102E70000B68002BFCD01E4B5C6238BD002318464B
:102E800079E7FDF7D9FE012144F0805400F0FEFE01
:102E90007BE701209AE7204B9D4204D91F4B9D42BE
:102EA0003FF64AAF01221E4B03EBC20252791306D2
:102EB00044E71C4A1368002BFCD12DE71A4B9D42B6
:102EC000F1D91A4B9D4211D903F5B70303F55863A5
:102ED0009D423FF631AF0422E5E75A6AD3F89020CD
:102EE00002F44002B2F5400FF8D198E70322DAE786
:102EF00000400E4000300E403C300E4000000E40BE
:102F00000048E8010090D0034000C8430812C843BD
:102F10000C12C84300F8FF0F40787D01005A62028E
:102F200034910200C800C643C0CF6A00809FD5001C
:102F30001F4A082330B4D2F894101366D2F89030A8
:102F40005907FBD41A4BD3F890201207FBD45A6AC6
:102F5000057C1849047822F00102022D08BF42F0D6
:102F600001025A620C608288417AC58841EAC22116
:102F7000D9621A6B047A817A02F07F620A43E11CFB
:102F800042EAC5220F2942EAC41228BF0F2142EAB1
:102F900001721A63827B457BC47B017B120142EA8A
:102FA0000532224342EA01425A6330BC704700BFF7
:102FB00000400E40A004C84330B4114A114BD2F86F
:102FC0009410946B4578916B234004782343847864
:102FD000C07843EAC52343EA046343EA00239942E5
:102FE0000CD04FF400711166D2F89010C905FBD4D3
:102FF0000349D1F890209205FBD48B6330BC704715
:1030000000400E4080E4FFF8F0B4042812D8DFE856
:1030100000F028132F454A000021554B1C662B68F1
:10302000002BFCD032B13B68002BFCD0022801D130
:10303000002946D1F0BC70474E4F4F4D80264024AA
:103040000029E9D14A490E66D1F890302342FBD1DC
:10305000002AEFD0464AD2F890303342FBD1F0BC80
:103060007047464F464D4FF400764FF48074E7E7C3
:1030700000296ED03E4B5C6A14F0300F18D1414CE1
:10308000E46B5C6AE60718D55C6A3F4F3F4D24F05D
:10309000300444F010045C620424BEE73C4F3D4D14
:1030A00002260124CCE73C4F3C4D20261024C7E7E4
:1030B000354F364D04240021AFE7334F334D042400
:1030C000ABE72B4B5A6AD50746D54FF480612022D7
:1030D000C3F8A8105A665A6AC2F30112002A15BF33
:1030E00000204FF480004FF400014FF44001D3F86A
:1030F000902031EA0202FAD108B1D3F8A0301C4A7C
:10310000D2F89C000821C0F30A001166D2F8903072
:103110005907FBD4164AD2F890301B07FBD4D2F8DB
:103120009030516A1E4B21F0300141F01001516284
:10313000156BC10903312B400F2943EA000328BF57
:103140000F2143EA0173136314663B68002BFCD024
:1031500070E70424082675E75A6A1A46D2F89030B8
:1031600003F44003B3F5400FF8D1D2F8A030C6E71E
:1031700000400E401C12C8431812C8432412C84312
:103180002012C84300300E400C12C8430812C84336
:103190000412C8430012C8431412C8431012C84393
:1031A00000F8FF0F1128F8B50C460DD000F00F0005
:1031B0000138072807D8DFE800F00C6466063F5B9B
:1031C000062904232B60F8BD042900F09D80052901
:1031D0005BD00025023C0A2CF5D801A353F824F05B
:1031E0007F34000071340000693300008F34000028
:1031F000C7310000C7310000C7310000C7310000EF
:10320000C7310000AF340000BD3400004C1E072C55
:10321000D9D801A353F824F065330000C73100006A
:10322000C731000057330000C7310000C73100002C
:103230003D33000029330000AE4D013C092CC2D8BB
:1032400001A353F824F000BF05330000E932000069
:10325000CF320000C7310000C73100009F320000AC
:10326000C7310000C7310000C7310000C331000082
:10327000072900F028810929A5D19F4B01221A674F
:10328000F8BD9E4DD9E79E4DD7E79E4A9E4B1568E7
:103290009D429ED90021284600F0F8FC9AE7FDF7F0
:1032A0008DFC9A4B984236D800231C469849924A86
:1032B0000C60D2F8000101F5AE51083120F08070A9
:1032C00018430124C2F8000103230C607AE78A4BFB
:1032D000904A402119661368002BFCD08E4A13686F
:1032E000002BFCD001236DE7834B8C4A4FF4807197
:1032F00019661368002BFCD0894A1368002BFCD098
:1033000002235FE700235DE7FDF796FC05460028F2
:103310003FF45FAFBEE7834B012498428CBF4FF070
:1033200000734FF08073C1E73021734AD2F85C31EB
:1033300023F030030B43C2F85C31F8BD6E4B7A4A80
:10334000102119661368002BFCD0784A1368002BF3
:10335000FCD01021E9E7012211460220FFF754FEBC
:103360002021E2E70021E0E7694A634B0124146071
:10337000D3F8002142F08072C3F800215A6A12F09B
:10338000300F00F04D810220694A6A490646042741
:103390000024594B1F660B68002BFCD01368002BD0
:1033A000FCD0022800F0EA80634C41F67133276CB0
:1033B0002364FDF7FFFB614B6268984240F2418154
:1033C0005F4B984240F244814FF040725A494B683B
:1033D00023F0407313434B600FB100230B6425B1FE
:1033E000584B1B685A0640F11681434B5E67FDF748
:1033F00011FC0446FDF7E2FB444B984260D9494B6F
:10340000012698428CBF4FF000734FF08073404903
:10341000394A0E60D2F800014A4920F08070184302
:10342000C2F800010B685B065ED5474B424A5B68F9
:10343000106C41F671311164C3F301435268002BE3
:1034400045D0022B00F08A804FF040723A494B6819
:1034500023F0407313434B6008B100230B64002D2D
:103460007FF4B1AE28460121BDE8F84000F00EBC63
:10347000294A2849012003264027002489E7002003
:103480000446274A254904264FF4807781E7204BDC
:1034900019482E4A2E4901261E60D0F8003143F00B
:1034A0008073C0F8003137460320002471E7274AB3
:1034B000274903200526012700246AE7072673E72A
:1034C00000231E46A3E70C4B00221A67F8BD1B4AD7
:1034D000944203D91A4B9C42B6D801231D4A02EBF1
:1034E000C3035B791A06B1E71B4A1368002BFCD1B2
:1034F0009BE700BF88400E4000400E4080400E40D9
:1035000084400E407C100020002D31010048E8016D
:103510004000C8431812C8431C12C8432012C843B5
:103520002412C8430090D0031012C8431412C84399
:103530000C12C8430812C84300000E4040787D01B9
:10354000005A62023C300E4000300E400412C84364
:103550000012C84334910200C800C643474A94424F
:10356000BCD9474B9C4240F2878003F5B70303F573
:1035700058639C423FF668AF0423AFE7002C3FF44A
:1035800013AF404B596AC9076AD54FF480602021B8
:10359000C3F8A8005966596AC1F30111002915BF83
:1035A00000244FF480044FF400004FF44000D3F89F
:1035B000901030EA0101FAD10CB1D3F8A0303149B2
:1035C000D1F89C400823C4F30A040B66D1F890306C
:1035D0005807FBD42B4BD3F890100907FBD4D3F832
:1035E0009010586A284920F0300040F010005862CE
:1035F000D3F830C0E00903300CEA01010F2841EA9A
:10360000040128BF0F2041EA007119631F66136887
:10361000002BFCD0C8E61D4A1368002BFCD1E4E661
:103620001B4AD26B5A6AD00714D55E6A194A1A49E6
:1036300026F0300646F0100602205E620427064699
:10364000A7E60022154B03EBC2035B791A06BDE621
:103650000122F7E702200F4A0F490646042798E6A1
:10366000596A1946D1F8903003F44003B3F5400F7E
:10367000F8D1D1F8A030A2E703232FE7C0CF6A002A
:10368000809FD50000400E4000F8FF0FC800C643E1
:1036900000300E400C12C8430812C8433491020097
:1036A00072B6704762B67047EFF3108072B670471B
:1036B00000B962B6704700BFEFF3108072B6704772
:1036C000FFF7F6BFEFF31083DA0732D4214A43093C
:1036D000C1B252F8233010B401F01F04E340DB07FD
:1036E00023D5002827DB104490F800034209EFF3AC
:1036F000118313B1B2EB531F17D217494868C0F3B7
:10370000080098B11038C0B243B2002B1ADB03F1A5
:10371000604303F5614393F800034009824234BFDC
:10372000002001205DF8044B704701205DF8044B38
:10373000704701207047094B01F00F010B44187EC0
:103740004209D4E700F00F03043B0B44187E400904
:10375000E4E700BF00E100E000ED00E0FCEC00E089
:10376000024B9B6803EB80000164704700ED00E0B2
:10377000F0B4049F9DF8145053B1002465B1A142E8
:1037800013D950F8246042F824600134A342F5D1E3
:10379000074BF0BC9A607047A14252F8246002D9EE
:1037A000002EF2D1EDE7002EEFD142F82470ECE7C5
:1037B00000ED00E00E29436816D8012210B48A40BB
:1037C00047F2E004224223F01F0306D041F010012B
:1037D000194341605DF8044B704740F61F74224264
:1037E000F6D15DF8044B7047704700BF70B4056AAE
:1037F000046A036A066ACE60102AC1E900548B602D
:1038000007D1046A026A036A006AC861C1E9044216
:103810008B6170BC704700BF2E4B1B685B0670B598
:1038200007D42D4B2D491A781023C2F10202934080
:103830000B612B4B2B4DD3F88041264945F60E02E8
:10384000C3F88021286840F2551202401A660B68BE
:103850005E0604F0010426D5204B1B68D80617D558
:103860001F4AD2F84031D901FBD41F4E1F4B31788B
:103870001B68136105291BD01120FFF793FC2B68EF
:10388000DB070CD51CB1164B0022C3F8802170BD9C
:10389000154E31780529EFD12B68DB07F2D4104B98
:1038A00002221A66EEE7124A1368002BFCD1D3E716
:1038B000084B104A1B6810685A0606D5074B596812
:1038C000C1F30141FEF7E4FFE3E7094A1368002B67
:1038D000FCD1F3E73C300E403D15002000300E4097
:1038E00000400E402C150020361500203815002011
:1038F000C800C6437C100020704700BF704700BF5F
:1039000010B5044600283CD1374B1A68500611D434
:103910001B6859065DD5354B19685A68C1F30121FA
:10392000C2F3014291421A688CBF42F0100222F0A9
:1039300010021A602E4A136943F004031361FFF763
:10394000DBFF2A4B1B68DA063CD430BFFFF7D6FFFB
:10395000002C2FD1254B1B68DB0608D4254A1368A1
:1039600023F000431360BDE81040FDF753B9224B2C
:103970001B69C3F30443082BF0D1204B204A1A6083
:10398000ECE71D4A1F4BD2F890201A601120FFF778
:1039900045F9154B1C4A1B6810705B061ED5134B6E
:1039A0001A485B6814491A4AC3F3014303700B6950
:1039B0001360A9E7FFF730FF0E4A136823F00043B6
:1039C000136010BDFFF770FE25F07AFAFFF770FE66
:1039D000BCE7104A1368002BFCD19CE70D4A136822
:1039E000002BFCD1DBE700BF3C300E4000300E4026
:1039F00000ED00E04C310E4000400E407C100020F5
:103A0000C0EA21012C150020361500203D150020AC
:103A100038150020C800C64310B5044600284BD115
:103A20003E4B1A68520611D41B6858066CD53C4BA5
:103A300019685A68C1F30121C2F3014291421A6820
:103A40008CBF42F0100222F010021A60354BD3F8FE
:103A500080214FF4207145F60E00C3F880011966ED
:103A6000D10744BF0022C3F880212F4A136943F0D5
:103A700004031361FFF740FF294B1B68DA063CD4AF
:103A800030BFFFF73BFF002C2FD1254B1B68DB0617
:103A900008D4264A136823F000431360BDE81040A1
:103AA000FDF7B8B81F4B1B69C3F30443082BF0D1D3
:103AB0001F4B204A1A60ECE71A4A1F4BD2F890209D
:103AC0001A601120FFF7AAF8144B1C4A1B681070EB
:103AD00059061ED5124B1A485B681249194AC3F39E
:103AE000014303700B6913609AE7FFF795FE0F4AD5
:103AF000136823F00043136010BDFFF7D5FD25F0D8
:103B0000DFF9FFF7D5FDBCE70F4A1368002BFCD1A6
:103B10008DE70D4A1368002BFCD1DBE73C300E40EB
:103B200000300E4000400E4000ED00E04C310E40F1
:103B30007C100020C0EA21012C1500203615002041
:103B40003D15002038150020C800C6430F4A08B5AF
:103B50000F4BD2F890201A601120FFF75FF80D4B41
:103B60000D4A1B6810705B060AD50C4B0C485B684D
:103B700006490C4AC3F3014303700B69136008BD87
:103B8000094A1368002BFCD1EFE700BF00400E404C
:103B90002C1500203C300E403615002000300E4021
:103BA0003D15002038150020C800C6432E4B1B6869
:103BB0005B0670B507D42D4B2D491A781023C2F13E
:103BC000020293400B612B4B2B4DD3F880412649C9
:103BD00045F60E02C3F88021286840F255120240D3
:103BE0001A660B685E0604F0010426D5204B1B689C
:103BF000D80617D51F4AD2F84031D901FBD41F4E41
:103C00001F4B31781B68136105291BD01120FFF76A
:103C1000C9FA2B68DB070CD51CB1164B0022C3F880
:103C2000802170BD154E31780529EFD12B68DB0757
:103C3000F2D4104B02221A66EEE7124A1368002BE8
:103C4000FCD1D3E7084B104A1B6810685A0606D50A
:103C5000074B5968C1F30141FEF71AFEE3E7094A31
:103C60001368002BFCD1F3E73C300E403D150020DB
:103C700000300E4000400E402C150020361500206C
:103C800038150020C800C6437C10002038B5354BDD
:103C90001B685C0632D40D46002830D0324B1B78AE
:103CA00013B1324B98421CD92E4B1A68510625D4B9
:103CB0001B685A0631D52E4C636813F4403F1DD063
:103CC0002C4BD3F80031FCF779FF402323611DB161
:103CD000244B1B685B063AD50021BDE83840FEF74F
:103CE000D7BD204B1A68520608D41B685C0633D532
:103CF0001F4C6368C3F30143022B13D138BD1D4B26
:103D0000D3F80041FCF75AFF174B1B78C4F3042487
:103D100004FB0000002BC4D1C6E7174A1368002B30
:103D2000FCD1C8E7134BD3F80031FCF747FF022161
:103D3000FEF7AEFD10232361002DDFD0094B1B6879
:103D40005806DBD40C4A1368002BFCD138BD0A4A54
:103D50001368002BFCD1BFE7074A1368002BFCD186
:103D6000C6E700BF3C300E403C150020002D31015D
:103D700000300E4000400E40C800C64370B5304CC5
:103D8000304D037823702B685B0600D570BD2E4B39
:103D9000D3F80061FCF712FF237833B1C6F3042691
:103DA0002A4B06FB000098421BD9264B1A68510685
:103DB000ECD41B685A0633D5254C636813F4403F96
:103DC000E4D0214BD3F80031FCF7F8FE40221D4B24
:103DD00022611B685B0628D50021BDE87040FEF714
:103DE00057BD2B685E06D1D42B685C0622D5184CD3
:103DF0006368C3F30143022BC8D0134BD3F80031DF
:103E0000FCF7DCFE0221FEF743FD10220D4B226180
:103E10001B685806BAD40F4A1368002BFCD170BD3A
:103E20000C4A1368002BFCD1C6E70A4A1368002B22
:103E3000FCD1D1E7074A1368002BFCD1D7E700BFBC
:103E40003C1500203C300E4000400E40002D31015A
:103E500000300E40C800C643064942780B6823F480
:103E6000407343EA0223022A0B6004BF024B5B6AE1
:103E7000704700BF00300E4000400E403E4B3F4AAE
:103E80003F4912681A6F098822F00702104330B4C4
:103E900018671A6FD86CC00702F007020BD5012A09
:103EA00057D9132952D9143913298CBF4FF47F42A3
:103EB0004FF4EE4207E0D86CC5073BD4012A51D934
:103EC000DB6C6FF0FF022C482E4DC36C2E4C23F49C
:103ED0007F431343C364C16C2B88C26CC1F30321BD
:103EE0000131283301EB810503EB5303B3FBF5F3F9
:103EF000013B072B22F0EE6228BF072342F4801219
:103F000042EA0363B4F90020C364002A10DB036DA6
:103F10004C08283204EB410102EB520223F07004FA
:103F2000B2FBF1F3072B28BF072344EA0313036511
:103F300030BC7047DB6CDC0711D5012A0FD827296C
:103F40008CBF4FF47F424FF4EE42BCE74FF44C522B
:103F5000B9E7DA6CD00705D5DB6CDB07EFD46FF07F
:103F6000FF02B0E70929F1D90A3909298CBF4FF4BA
:103F70007F424FF4EE42A6E700300E408009C64370
:103F8000301500203215002034150020074BDA6B65
:103F900042F41052DA639A6FD207FCD403221A64F7
:103FA000186C801AB0FA80F04009704700300E405B
:103FB0002DE9F043072A01F003019DF81C609DF8EC
:103FC000205027D8DFF87090DFF87080DFF870E0BD
:103FD000DFF870C094000F27A040A740C9F8007018
:103FE000C8F800000320A14000FA04F4CEF8004015
:103FF000CCF800100E490F4C11448900012000FA42
:1040000002F20B60C1F88060C4F82424C1F80053A8
:10401000BDE8F083A2F10804A4000F27DFF8289080
:10402000DFF82880DFF828E0DFF828C0D4E700BFF9
:104030008020851000A0004000A4004400A4004699
:1040400008A4004408A4004604A4004404A40046B4
:104050000CA400440CA40046F0B444004AB1271854
:10406000214D3F0101263D448E40A3B305F1C065BB
:104070002E6025182D0105F18045072905F52045FD
:1040800019D88F006E684FF00F0C0CFA07FC26EA67
:104090000C0602FA07F73E436E6052B90444124A16
:1040A00024010120224400FA01F1C3B902F1806227
:1040B0001160F0BC704701F18046083EAF68B60061
:1040C0004FF00F0C0CFA06FC27EA0C0702FA06F672
:1040D0003E43AE60E1E705F180652E60C9E702F17D
:1040E000C062F0BC116070470CA00040034B034459
:1040F0009B0081F001011960704700BFA001F11021
:1041000038B5044601214FF4AA40FEF703FCB4F889
:10411000013020780D4A0E495BBA9BB243EA006336
:10412000002013604FF0004510624FF0FF33D06263
:1041300050634FF40070D5669366C1F88001E37850
:104140005B01DBB281F80933086038BD00200E4006
:1041500000E100E0F8B5CB7A8E7A0D7B234F1B058A
:104160000C4643EA064300EB400607EB061643EA1B
:104170004553C0B20125497B22F0030285402068E7
:10418000C6F88000C6F88810C6F88430C6F89820B3
:10419000BD66FFF791FAFB6E227A2B43FB6612B1E4
:1041A0007B6B2B437B63637A1BB1104AD36A2B432F
:1041B000D3620E4B22791B6822B1D243120262F401
:1041C0007F42134062790AB143EA0223A2790AB11D
:1041D00023EA0203E27902B11343044A044913605B
:1041E0000D60D563BDE8F840FFF76ABA00200E40C5
:1041F00028200E4410B5C0B201248440FFF75CFAB9
:10420000054A0649D36E23EA0403D3660C60BDE871
:104210001040FFF755BA00BF00200E4020200E448A
:10422000F8B5C3B201259D400446FFF745FA0B4B94
:1042300004EB44041F6E9E6A03EB0414D4F88C4014
:10424000FFF73EFA354206D1C4F30A1008B93D42E1
:1042500000D10130F8BD0020F8BD00BF00200E40A5
:104260008368DB06FCD5036CDA0702D4436C5B067B
:10427000FCD48162704700BF29B370B4134C002591
:10428000082650F8043BA361E660E369DB0705F10B
:10429000010508D50E4B00E06BB1E269D20703F1CE
:1042A000FF33F9D43BB1E3699B0708D48D42E8D1D1
:1042B000002070BC70476FF0020070BC70476FF058
:1042C000010070BC70470020704700BF00000E4026
:1042D00080969800054A064B5168526841F6713243
:1042E0001A649A6822F001029A60704700300E400A
:1042F00000000E40034B9A68002122F001029A60F0
:104300001964704700000E402DE9F84F294C2A4BE4
:10431000256C41F6713626645E685B68A368960872
:1043200043F001031FFA85F8A3602BD007468946A6
:1043300000254FF0010AE369D90707EB850008D58E
:104340001E4B00E07BB3E169CA0703F1FF33F9D4E8
:104350004BB32061C4F80CA0E3695B0726D4C0F31B
:104360000A00C0F500608008A6EB050B834516D255
:1043700059464846FFF780FF28B95D4409EB8B0991
:10438000AE42D8D800200B4A936823F00103936013
:10439000B8F1000F01D000231364BDE8F88F0028A6
:1043A000EED08346E4E76FF00200ECE74FF0FF3019
:1043B000E9E700BF00000E4000300E4080969800F4
:1043C000334B344A196C10B441F671341C64546890
:1043D00052689A68012442F001029A601861DC6018
:1043E000DA69520788B209D59A6822F001029A6008
:1043F00000BB4FF0FF305DF8044B70470222DA60DB
:10440000DA69D4071DD5244A01E0002A2ED0D969E3
:10441000C90702F1FF32F8D4DB69990714D442B31B
:104420001B4A936823F0010393600028E3D0002027
:104430001064E0E700224FF0FF301A645DF8044B8F
:104440007047DB699C07EBD5114A936823F00103A1
:10445000936030B100236FF0010013645DF8044BEA
:1044600070476FF001005DF8044B7047DB699B07F4
:10447000EAD4074A936823F00103936020B1002334
:1044800013646FF00200B6E76FF00200B3E700BFFD
:1044900000000E4000300E4080969800FFF734BFB9
:1044A000014B01229A60704700500E40144A154B90
:1044B0000021F0B408465568134F03F14806012265
:1044C0000FE0B2F5006F16D0B2F5803F13D02A424C
:1044D00002D0294208BF10430833B3420ED053E93B
:1044E00002213C686407F2D4B2F5806F03D0E8D8AB
:1044F000B2F5007FEBD141F48071E8E7F0BC704782
:1045000000500E4064910200E841E00F30B48B7817
:104510004C780A78CD789B0143EA840313430C79E5
:104520004A79897943EA051343EAC423043043EA0C
:1045300002330001024A43EA4143135030BC704742
:1045400000200440014B1860704700BF0000844207
:10455000437941780278F0B40479C7798678C578D0
:104560001B0343EA0423002943EA02030CBF002192
:1045700004218479027A002E43EA074343EA0103C7
:104580000CBF00211021002D43EA01030CBF0021C4
:104590002021002C43EA01030CBF00214FF400410D
:1045A0000B430AB143F40033014AF0BC1360704777
:1045B000002004400B4A536911699B0003F03C033F
:1045C000C1F381110B438370136903F03F03437000
:1045D0009369D26903F0F003C2F30312134303702B
:1045E000704700BFD0FF0FE0F8B5054616461C46E1
:1045F000E9B1202C21D022D9402C16D0602C13D127
:1046000004222B68104F23F060032B6006FB02F698
:104610002B68720802EB4112B2FBF6F2203A07EA6D
:10462000C2021C432C606A61F8BD0622E9E7074814
:10463000FEF722FA202C0146DDD10822E1E7002C0A
:10464000F2D11022DDE700BFF8FF7F0040410500F6
:10465000CB435B0003F00A03C360C160704700BF37
:104660002C4A70B5044600232B4840F6AA660D4636
:10467000944241F20501E66023606160A3606361DA
:10468000E364A06423666367A367E3673FD002F532
:104690008062944237D002F58062944237D0A3659D
:1046A000AB7C1BB1236843F080432360EB7C1BB1E0
:1046B0002B7D43F08003A365697B2E8AE8892B7BE1
:1046C000AA6831430143616020466968FFF78CFFA7
:1046D0006B7D1BB1236843F480332360AB7DEA7D9F
:1046E000297E28781B07120503F0E04302F4E0025C
:1046F00013432366636F23F030036367636F0B43D9
:104700006367E06070BD2365A365E365C8E70023C8
:104710002365C4E700000140F9FF0100344A70B589
:1047200004460023334840F6AA660D46944241F2FF
:104730000501E66023606160A3606361E364A064D7
:1047400023666367A367E3674AD002F580629442F9
:1047500042D002F58062944242D0A3652A8AA87BA7
:104760002368297D42F00102002843EA02030CBFBE
:1047700000224FF4806213432360236809B143F0A1
:104780000053AA7C23601AB1EB7C43F08003A3653D
:104790002B7BD5E9010643F48053636018B36B7B30
:1047A00001387600B0FBF6F0000260610BB1102317
:1047B000E3606B7D1BB1236843F480332360AB7DE2
:1047C000EA7D29781B07120503F0E04302F4E002BA
:1047D00013432366E16070BD2365A365E365BDE710
:1047E00000232365B9E70448FEF746F9D7E700BF81
:1047F00000000140F9FF010040410500134A14493F
:10480000002330B4904240F6AA6541F20504C56029
:104810000360446083604361C364816403664367EB
:104820008367C3670FD002F58062904206D002F51D
:104830008062904207D0836530BC7047036530BC0E
:104840008365C365704700230365F4E700000140FA
:10485000F9FF010003695A06FCD5416303699B0611
:10486000FCD5C069C0B2704703695B06FCD54163E3
:10487000704700BF30B50A4B1C6885B06CB150B1B1
:1048800003460D46204601A901938DF80850039276
:1048900000F00EF8012005B030BD204605B030BD57
:1048A0004C150020014B9868704700BF4015002050
:1048B00070B50E460546FEF7F7FE04463046A8479B
:1048C0002046BDE87040FEF7F3BE00BFF8B5124DBC
:1048D000FEF7F2FE2C780646CCB91049104A114B6F
:1048E0000C6014601C8000F0BBFA012000F02AFB71
:1048F00000F078FB0C4B0D4F1860024623460C4825
:1049000040F2E73123F0ECFF012338602B70304692
:10491000FEF7D6FE0020F8BD5015002064150020DB
:10492000541500205C15002060150020581500204B
:1049300018FCFFFF002842D0F8B50446FEF7BCFE85
:10494000064600F0CFFA054627480168002938D00E
:10495000264F4A693B68EB1A934213D9AD1A0023DC
:104960003D604B618C4218BF0A4603D136E09C4241
:104970000CD01A469368002BF9D13046FEF7A0FE02
:104980000220F8BDD31A4B613D60EBE7A36893604A
:10499000A3687BB10A4658696769384458618C42FC
:1049A00016D1BAB1536902201D4400F0CBFA284653
:1049B00000F09EFA3046FEF783FE0020F8BD22206C
:1049C00070470A4B30461D60FEF77AFE0220D8E79A
:1049D000002AEFD1022000F0C3FAEBE7A2680260E0
:1049E000002ADCD01346D6E76415002054150020B9
:1049F0002DE9F0479DF820A0BDF8249000284BD069
:104A000005461646984600270C46FFF793FF85F8A3
:104A100004A0C5F80080EE60A5F80690AF602F6195
:104A20003CB96C61AEB328464146B0472046BDE86C
:104A3000F087FEF741FEDFF8B080064600F052FA3C
:104A4000D8F800C0DFF8A4E0BCF1000F27D0DEF8F2
:104A50000030DCF81420C31A934230D8D31ACCF8B3
:104A60001430CEF800006C616346002000E00B4675
:104A70005A69A24200D942BB9968A41A6C611846CF
:104A80000029F4D19D60A960654529D03046FEF724
:104A900017FE0020BDE8F0872220BDE8F0876C619A
:104AA000C8F80050C5F808C0CEF8000003461C4402
:104AB000022000F047FA204600F01AFAE6E7801AD2
:104AC000CEF80000CCF81470CDE720B18560AB6063
:104AD000141B5C61D8E7C8F80050AB60AC46F7E740
:104AE0006C69DEF80030E2E7641500205415002000
:104AF00038B5FEF7E1FD054600F0F4F90446284616
:104B0000FEF7DEFD204638BD70B5FEF7D5FD064642
:104B100000F0E8F9094B1C8805460120A4B200F01A
:104B200037FA18B100F0DEF9013405463046FEF7D9
:104B3000C7FD002242EA0500214670BD5C15002039
:104B4000014B1868704700BF60150020044B054AF0
:104B50001B6803FB00F0A2FB0030800901307047A6
:104B600060150020D34D62100A4B1B6883420ED3A0
:104B7000094B10B50C4619684FF47A720023A0FB5C
:104B8000010123F0ADFE01302060002010BD212086
:104B9000704700BF5815002060150020014B1868B1
:104BA000704700BF58150020114B1A684FF47A73F4
:104BB0002DE90048A0FB03BC12B1531E134206D0DE
:104BC00058466146002323F08BFEBDE80088B2FA08
:104BD00082F2C2F11F02C2F120032BFA02F00CFA9A
:104BE00003F3203A18432CFA02F21043BDE8008880
:104BF00060150020000000002DE9F84925A5D5E941
:104C000000458D4208BF84423BD34B014401241A26
:104C100043EAD06565EB0105AB0043EA9473A60057
:104C200098461B4B801941EB08011B68CE00C4005D
:104C300046EA507620465BB9144631461A460023B0
:104C400023F04EFE0025C4E900012846BDE8F8899E
:104C50005D1E1D40F0D1B3FA83F3C3F11F03C3F10E
:104C60002007D84006FA07F7A3F12001384326FAB7
:104C700001F1084326FA03F3C2E900032846BDE820
:104C8000F88921252846BDE8F88900BFAFF30080E8
:104C900060150020EFA7C64B37894100C2072DE9F8
:104CA000F84F044600F19980A30701D4BDE8F88FBE
:104CB000DFF8A881674F00F015F9D8F800500646D4
:104CC000451BFEF7F9FC3C688246002C00F0AB80E7
:104CD00062699542C0F0B8804FF00009C8F80060E2
:104CE0002346294600E05A698A4209D8187994F87F
:104CF00004C0844588BF1C469B68891A002BF2D1EA
:104D00005046FEF7DDFCD4F814A0C4F81490FEF76A
:104D1000D3FC3A6842B1A24203D17AE0A3422DD03B
:104D20001A469368002BF9D1FEF7CAFC2369002BC1
:104D300032D1E36813B121682046984700F0D2F8D9
:104D40005644AD1B83460544FEF7B6FC3C688246DC
:104D5000002C68D06269AA425E46BFD9551B6561C6
:104D600002205D44C8F800B000F0ECF8284600F0DE
:104D7000BFF85046BDE8F84FFEF7A2BCA3689360A9
:104D8000A1680029D0D04B69626913444B61FEF7DA
:104D900097FC2369002BCCD0FEF78EFC3B68226980
:104DA00062618646002B37D04FF0000C00E00346CE
:104DB0005969914201D900293DD19868521A62611E
:104DC0009C460028F3D19C60A06010B143699A1AF8
:104DD00042617046FEF774FCABE71F4A138801334B
:104DE0009BB2138000F07EF81A4B1A684AB31B4935
:104DF00053690D68451B9D4211D9C01A00230860F4
:104E00005361C518022000F09DF8284600F070F8A4
:104E10004AE7A1683960B4E73C60A360D9E75B1B4F
:104E200053610860EDE7022000F09AF85046BDE8B3
:104E3000F84FFEF745BCBCF1000F07D13C601846A7
:104E4000C2E7064B18602FE7B34687E7184663466C
:104E5000B9E700BF641500205C1500205415002040
:104E600010B51C4B93E8070086B00C3303AC03C4A9
:104E700093E803000B0C0190ADF80810164822705F
:104E800001218DF80A300024FDF744FD03A88DF8B8
:104E90000C408DF81040FFF75BFB06A9012001F8DC
:104EA000144DFFF733FB0D4A536A23F4FF6323F0DD
:104EB000070340F2FF715362012011629460FFF713
:104EC00041FB074B4FF00042C3F880211A6006B047
:104ED00010BD00BFA4910200A009140000200440EE
:104EE00000E100E0014B9868704700BF00200440DB
:104EF000124B9A68596D9B695B0702D48B1A022B7F
:104F000018D9831A012B98BF901C0C4BB0F1FF3FAE
:104F100028BF013058655A6A42F004025A62084BB1
:104F20001A7832B105490A6D002042F002020A6582
:104F3000187070479142F2D1E3E700BF00200440AF
:104F4000881000208207054A00F00103516A48BF1B
:104F500043F004030B435362704700BF002004403A
:104F6000830700F0010209D5074B0849012018709A
:104F70000B6D23F0030342F004020B6503494B6AF7
:104F800023EA02034B62704788100020002004408F
:104F9000064B01289B6906D0022802D1C3F380008A
:104FA00070470020704703F0010070470020044064
:104FB00010B5FEF781FB0A4B9B695A07084A044665
:104FC00003F0010003F0070348BF40F00200136242
:104FD000FFF764FE2046BDE81040FEF771BB00BF3E
:104FE000002004400148FDF747BD00BFA0091400A0
:104FF000064B70B506460D46144618464C22002155
:1050000023F071FEC0E90965C46270BD7C440020D4
:1050100008B5FFF747FC80F48050C0F3003008BDAE
:10502000104B1A79D20710B504460ED55B798B4226
:105030000BD3012100F000FA33216CB90022114694
:105040000948BDE81040FFF715BC0021204600F0DC
:10505000F3F9002CF2D03121044A0348BDE8104096
:10506000FFF708BC7C440020B04400201954000025
:1050700070B514461D4602F040020023134382B06F
:1050800004D0144B93F83820D2071DD54BF20900F9
:10509000002100EA040201EA0503134303D120467C
:1050A000294602B070BD0B4E01A9706A00F0A2FD46
:1050B0009DF80430042BF2D0B1780020FFF7B0FF48
:1050C0002046294602B070BD99780120FFF7A8FF5D
:1050D000DCE700BF7C44002070B50646FFF7E2FB2A
:1050E00010F480540CBF01200020084D00F0BCF9E2
:1050F000211C18BF0121686A00F0A6FE26B11CB170
:10510000AB6ABDE87040184770BD00BF7C4400200A
:1051100018B1034BD87800F00100FFF7DDBF00BFE6
:105120007C440020084B9B798B4202D20020FFF781
:1051300077BF10B50446FFF773FF24B10020BDE828
:105140001040FFF7C9BF10BD7C4400202DE9F0439B
:1051500083B01E4607460D469046FFF7A3FB430566
:1051600002D403B0BDE8F083214CFEF7A5FAE37842
:1051700013F0240F814628D194F803C021881D4BD9
:105180001D48002268F3041C791A009284F803C0B9
:1051900000F04EFA78B9E378A67043F0040365F3A3
:1051A0004103FF21E370FFF73BFF484603B0BDE832
:1051B000F043FEF785BA28463146FFF7B3FF48466D
:1051C00003B0BDE8F043FEF77BBA03F0FB036FF3D7
:1051D000451304F10C00E37000F036FAE178890918
:1051E00001F00201002204F14000FFF743FBC3E796
:1051F0007C440020D15200008844002070B52F4C20
:10520000E3781D0782B00A4646D5DB0644D5002860
:1052100042D0E379002B3FD0257A632D3CD8002D76
:1052200040D04FF47A7505FB03F500F058FE227A62
:10523000B0FBF5F303FB1500642303FB00F305FB50
:1052400002F29342E37833D21D4D43F04003A5FBB5
:105250000212E370C0EB521500210846FFF7E0FE92
:10526000E678184846F0200616F0400F4FEA9613ED
:1052700014BF8021002103F0020319430022E670CD
:10528000FFF7F8FA0023009329460F4B0F4801223D
:1052900000F0CEF902B070BD114602B0BDE870401A
:1052A000FFF740BF284602B0BDE87040FFF7B8BE28
:1052B0006FF386132D1AE370CEE700BF7C44002005
:1052C0001F85EB51BC440020F152000088440020AF
:1052D000064AD378590700D470476FF38203C3F3AB
:1052E00040009178D370FFF789BF00BF7C44002055
:1052F000044BD878820600D470479978C0F34000F8
:10530000FFF77CBF7C4400202DE9F041144607469E
:105310000E46FFF7C7FA420519D567B3CEB93C4D23
:1053200095F83830DB0738D56B79A3420FD3FEF7F9
:10533000C3F9EB7813F02402804635D162F30413ED
:1053400021460120EB70AC70FFF758FF35E0BDE857
:10535000F081FEF7B1F92E4BDA789C70804642F06E
:10536000100221460120DA70FFF748FF4046BDE8F1
:10537000F041FEF7A5B9264DFEF79EF9EB78804681
:1053800013F0240026D07EB343F0100338462146A4
:10539000EB70AC70FFF732FFE8E7FEF78DF9EB78C2
:1053A00013F024028046C9D0EB78AC706FF304137D
:1053B00021460120EB70FFF721FFE97815488909A4
:1053C00001F002010022FFF755FA4046BDE8F04126
:1053D000FEF776B966F304132146EB70AC70FFF765
:1053E0000DFF002EC2D1E8E766F3820366F3451392
:1053F00005F10C00EB7000F027F9EB78AC7066F368
:10540000041321463046EB70FFF7F8FED5E700BFE6
:105410007C440020BC440020C20610B5044606D4DB
:10542000A30600D410BD002000F01EF810BD01201E
:1054300000F01AF8F4E700BF38B50546094C08B982
:10544000A57638BD2176FFF7E3FDA37E6076002BBD
:10545000F6D1227EA57654F82230013344F822306A
:1054600038BD00BF6815002010B50D4CA37E13B1E8
:1054700010B10123637610BD03464FF0FF30A376D1
:1054800000F0A6F80528F6D1237E002B14BF0522D4
:10549000042254F82230013344F8223010BD00BFFA
:1054A0006815002004490B68581E033003D80020FB
:1054B00008601046184770478C1000200220704783
:1054C000002070470120704700207047034B186888
:1054D000034B002808BF1846704700BF88150020FE
:1054E000E0910200014800F01ABD00BF8C150020B9
:1054F000014800F027BD00BF8C15002000210148A5
:1055000000F042BD8C15002013B50B4C022922601F
:1055100005D10A4800F003FD002002B010BD009341
:105520000A46074B0146054800F0DBFC002814BF83
:1055300002200020F1E700BF8C1000208C15002015
:10554000A554000008B5064B1B68013305D0FFF7D2
:10555000CFFF80F00100C0B208BD0020FCE700BF13
:105560008C1000200020704770B50E46044678B1BC
:10557000084D2B7863B9084B186000F0A1F831464C
:10558000204600F08EF8031C18BF01232B7070BD5D
:105590000020FCE7A415002084150020012070479E
:1055A000034B0129197001D104F018BD0020704788
:1055B000A515002004F020BD044B1B78013B0A46D2
:1055C00001465842584104F03DBD00BFA5150020DA
:1055D00003F094BE0846114600F08CB870470846A8
:1055E000114604F0C9BC000010B50446FFF76EFF79
:1055F0000B4B1B1A58425841A04209D0094B1B784B
:1056000043B9094B0648002C08BF1846074B1860E1
:10561000012010BD03F0FEFF0028F2D00020F8E7C3
:10562000B8910200A4150020E09102008815002026
:1056300070B505461E46FFF749FF446933462846C4
:10564000A446BDE87040604710B50246FFF73EFF34
:10565000BDE8104083691046184700B10C3004F0D3
:105660007FBE00B10C3004F084BE00B10C3000F0FD
:1056700073BB0023FFF7F9BF08B504F0FEF8002064
:1056800008BD00B10C3000F0C7BA7047431E012BB3
:1056900003D9031F5842584170470120704700F05A
:1056A00087BE38B504460D46002100F0C4FA2946ED
:1056B000204604F0FFFB00280CBF2046002038BD28
:1056C00010B5044603F09AFD44B1054AD4F8803081
:1056D000002B08BF1346034A136010BD636FFFDE43
:1056E0008B56000090100020014B1868704700BFD7
:1056F000AC15002010B50C4603F0A2FD1CB103F060
:10570000FDFD0128FBD110BD00B10C3003F086BFB8
:1057100000B10C3003F09ABF00B10C3004F02EBC85
:105720002DE9F84FC36E13B103898B423ED0D0F8F8
:105730006880B8F1000F3CD0D8F80840CCB3D8F856
:105740000C20B2B3D0F87CA00E460746BAF1000F89
:1057500046D04FF000094D464946A0F10C0B01E040
:10576000D8F8084005EB450304EBC3040135E38991
:10577000B34215D8238AB342584611D3B4F9123034
:10578000B7F9F61099421A4617DD97F8A81002F0FB
:105790008DF93B79834281460FD9D8F80C202146F8
:1057A0009542DDD341B90120BDE8F88F0020BDE866
:1057B000F88F0320BDE8F88F0C46002319462246D7
:1057C0003846D047384607F1B8032246314604F040
:1057D00073F887F8B4903E81FC660020BDE8F88F2E
:1057E000D14655465146A0F10C0B47F6FF7A0EE024
:1057F00097F8A81002F05AF93B7983428146E1D923
:10580000D8F80C202146AA4215D9D8F8084005EB53
:10581000450304EBC3040135E389B342F3D8238A7B
:10582000B342F0D3B4F91230534558461A46DFD18B
:105830004FF0FF09C6E70029B5D00C46C2E70000CB
:105840002DE9F04FDFF87091594F85B004468DF87F
:105850000F308B46164604F07DFEB9F8005004F078
:1058600097FE00283BD1002E3DD0386003F046FD66
:10587000012864D1DFF844A1A26EDAF80030E06EAE
:10588000002B64D0934265D01D68116802680DB189
:105890008D426ED0204604F053FA01220023CDE958
:1058A00001230546D4F87C80B8F1000F72D00022A5
:1058B00011460DF10F032046C04745BBD4E91A231A
:1058C000CAF800203B60DEB9029B002B58D1019B37
:1058D000002B55D10025284605B0BDE8F08F0023E8
:1058E0003B6004F04DFEE36E3A689342BED1002B5C
:1058F000BCD05D45EED003F001FD0128BAD01EE01A
:10590000C9F800B03146204604F006F805460EB945
:10591000019B83B1B5FA85F04009332100F0C0FA4C
:105920009DF80F10204604F017FA224BE16E1B6819
:10593000A4F10C009847284605B0BDE8F08F01207F
:1059400003F07EFC03F0DAFC0128FBD192E711683A
:1059500002689FE73968002996D0814294D1B5EB5F
:105960000B024FF0000318BF0122019302921D4663
:1059700098E7396811B10968914205D0596889E7FB
:10598000C9F800B00199BEE7002302931D46012328
:10599000019387E7217994F8B4309DF80F2099425C
:1059A00028BF1946204603F008FF002DAFD185E738
:1059B000B015002090100020A8150020AC15002084
:1059C0002DE9F04F074683B00E46FDF76DFEFB6EE6
:1059D000824613B13B89B34258D0D7F86880B8F1FA
:1059E000000F61D0D8F80840002C5DD0D8F80C101A
:1059F000002959D0D7F87CB0BBF1000F5CD04FF034
:105A00000009CC464D46A7F10C0301E0D8F8084048
:105A100005EB450204EBC2040135E289B24217D816
:105A2000228AB242184613D3B4F91210B7F9F6C05D
:105A300001938C450A4619DD97F8A81002F036F854
:105A40003A798242814611D9D8F80C10019BA446BC
:105A50008D42DBD3BCF1000F07D15046FDF728FE85
:105A60000124204603B0BDE8F08F644600231946A8
:105A700022463846D84707F1B80322463146384611
:105A800003F01AFF3E81FC6687F8B490002331468C
:105A90001A463846FFF7D4FE04465046FDF708FE86
:105AA000204603B0BDE8F08F5046FDF701FE032409
:105AB000204603B0BDE8F08FD94658465D46A7F1B1
:105AC0000C0347F6FF7B0FE097F8A81001F0EEFFFC
:105AD0003A7982428146CED9D8F80C10019B2046F3
