:10400000007C00205D7200005972000059720000AF
:104010005972000059720000597200005972000074
:104020005972000059720000597200005972000064
:104030005972000059720000597200005972000054
:1040400059720000F19F0000597200003198000081
:104050005DA00000FD9F000015A00000F59F00007E
:104060005972000059720000597200005972000024
:104070005972000059720000597200005972000014
:104080005972000059720000597200005972000004
:1040900059720000597200005972000059720000F4
:1040A00059720000597200005972000061A00000AE
:1040B000F99F000059720000A1A000005972000091
:1040C000258900005972000010B5054C237833B9DA
:1040D000044B13B10448AFF300800123237010BDDB
:1040E000B800002000000000D4DC000008B5034B3D
:1040F0001BB103490348AFF3008008BD0000000076
:10410000BC000020D4DC0000154B002B08BF134B73
:104110009D46A3F5803A00218B460F461348144A6A
:10412000121A08F0F4FA0F4B002B00D098470E4BF0
:10413000002B00D098470020002104000D000D48FE
:10414000002802D00C48AFF3008008F0B1FA20003C
:10415000290002F0A1F908F097FA00BF000008005A
:10416000007C00200000000000000000B8000020DB
:10417000702A0020000000000000000037B504464F
:10418000684680E8060003C8251D85E805002373FE
:10419000069B2361BDF81C30A38200232360084BDB
:1041A0001A6812B91C6004E00A4611680029FBD1A4
:1041B00014609888013080B2988003B030BD00BF91
:1041C000D006002007B503790193054A03680093E0
:1041D00006CA02230830FFF7D1FF03B05DF804FBE5
:1041E0006CC900000A4B40F2011210B51A604FF082
:1041F000FF329A6001225A6008441A46814202D175
:10420000D869C04310BD11F8014B9461F6E700BFB7
:1042100000C0014070B540F62804E0B02368A3F563
:104220000062B2F5605F05460E4615D21B6BA3F522
:104230000062B2F5605F0FD25B6A4FF4C0726946EC
:104240000020984730B923681B6B3246DB6A294649
:104250006846984760B070BD4FF40170FAE70000FF
:1042600040F628020B461268A2F50061B1F5605FC6
:1042700010B40DD2126BA2F50061B1F5605F07D2E8
:104280001469064A0146A44600205DF8044B6047C5
:104290004FF481705DF8044B704700BF2007002089
:1042A00070B540F62805E0B02B68A3F50062B2F5C2
:1042B000605F04D34FF40174204660B070BD1B6B87
:1042C000002BF7D05B6A4FF4C07269460020984714
:1042D00004460028F0D140F201262B68A3F50062C5
:1042E000B2F5605FE6D21B6BA3F50062B2F5605FCA
:1042F000E0D29B6A002168469847B042EDD040F278
:104300000323984218BF0446D6E70000304B1A6FCB
:10431000D96CC90702F0070242D5012A40D91328F7
:1043200051D9143813288CBF102308232849013B86
:10433000CA6C180322F47F4240EA03231343CB6480
:10434000244BCA6C1B88C2F303222833013202EBD0
:10435000820003EB5303B3FBF0F3C86C013B072B64
:1043600020F0EE6028BF072340F4801040EA03638A
:10437000CB64194BB3F90030002B10DB2833500805
:1043800000EB420203EB5303B3FBF2F30A6D072B7E
:1043900028BF072322F0700242EA03130B6570471F
:1043A000DB6CD90706D4012A04D809280BD90A38AE
:1043B0000928B8E7064BDB6C13F00103B6D0012ADD
:1043C00003D82728AFE70423B0E70023AEE700BFF8
:1043D00000300E40EE060020F00600200A490B4B8C
:1043E00088425A680BD90A4988420AD902F04071BA
:1043F0005A6822F0407242EA01625A607047002116
:10440000F6E70121F4E700BF40787D0100000E408F
:10441000005A6202C0F30313013B092B3FD8DFE8C7
:1044200003F0050B0F193E3E1F232C351D4BD3F80F
:104430000001C0F3042070471A4BD3F81401F8E7C9
:10444000184BD3F80001C0F30060431C01209840D2
:1044500001387047134BD3F80C01C0F308207047A4
:10446000104BD3F80801F8E70F4B984217D10D4BCA
:10447000D3F8203103F00F03E8E70C4B98420ED13C
:10448000084BD3F8283103F00303DFE7084B9842C9
:1044900005D1044BD3F8300100F00F007047002025
:1044A000704700BF00400E408006160090071A00BB
:1044B000A00914000C4B984210D90C4B984210D90B
:1044C000022201230A490B600A49D1F8003123F086
:1044D000807343EA0263C1F800317047002213463B
:1044E000F0E70122FBE700BF0048E8010090D0039D
:1044F0004000C84300400E40094B30B5196C5C6C5D
:104500000022234642EA0104220C82701A0A210A80
:10451000C2701A0C1B0E047041700271437130BDE1
:10452000B081E00F214BD3F8F82102401CD170B4C8
:10453000D3F8FC51D3F8006203F5FC74641BA4109B
:10454000022C12D0032C29D0012C1AD0184A526800
:104550002A6005F10C026860C3F8FC21A960336889
:104560000C33336070BC70477047114A1C1D526891
:104570002A60686004221960C3F8FC41326070BC94
:1045800070470B4C1A4664682C6042F8080B0820F0
:104590005960C3F8FC21306070BC7047044C6468FB
:1045A000A960C5E90040C3F8FC31E7E7C823002053
:1045B000001000E0837DDB0701D5808A7047D0E9D9
:1045C00001239B1A44BF828A9B1898B2704700004F
:1045D000044B5A6D22B95865A3F858100120704752
:1045E0000020704770060020D0B50C4CE38C0A20E8
:1045F000584307F0ADFD0646A08C0F4607F0A8FD16
:104600000022074B07F00EFE02460B4630463946A5
:1046100007F032FF08F018F82083D0BD70060020A4
:104620000000F43F084A10B5146840F2E2435843D2
:1046300003FB0141536800F5807001EB5001184401
:104640001160506010BD00BF7006002070B50022E0
:104650008AB01346D91003F00704415C2141CC070E
:1046600041BF0AA98918013201F8283C0133252BE2
:10467000F0D10E4D0023D91003F00704415C214115
:10468000C90707D5E91881F82A300133252BF2D163
:104690000AB070BD0AAE93FBF2F102FB1131314456
:1046A000EC1811F8286C84F82A60EEE770060020F8
:1046B000024B986C80B28002704700BFB081E00F5F
:1046C0007FB50E4B02466D4603F110061868596817
:1046D0002C4603C40833B3422546F7D1531E04A920
:1046E0000F3211F8014D13F8010F844204D19342A7
:1046F000F7D1012004B070BD0020FBE788C700009F
:1047000070B5154D286810BB144B154CE41A154BA9
:104710001C4424F4FF6424F00704FFF7C9FF84421B
:1047200014D2666BA6B1FFF7C3FF864210D2FFF723
:10473000BFFF06F1400383420AD83046FFF7C0FFAF
:1047400030B1F36933F0080302D02C60286870BDE3
:1047500004F50064E1E700BF3401002010000020F0
:10476000B40000201FE50000BFF34F8F0549064B42
:10477000CA6802F4E0621343CB60BFF34F8F00BFFF
:10478000FDE700BF00ED00E00400FA0540F6280355
:104790001B68A3F50062B2F5605F07D21B6BA3F53F
:1047A0000062B2F5605F01D2DB6B184740F2011086
:1047B000704740F6280310B41B68A3F50064B4F5F5
:1047C000605F09D21B6BA3F50064B4F5605F03D290
:1047D0009B6B5DF8044B184740F201105DF8044BE9
:1047E000704740F628031B68A3F50062B2F5605FCE
:1047F00001D25B6A184700207047000028231A681E
:10480000B2F5006F0BD240F628031B68A3F50061D8
:10481000B1F5605F03D21168084A914203D00023CA
:104820000370836070471968054A9142F7D10122ED
:1048300002709A6842609B69F3E700BFAD1007B051
:1048400007B0CD5E10B50C4630B90448FFF7D6FF6F
:10485000034B23600423A380002010BD900100209F
:104860009401002010B508B3114B1A689188814259
:104870001CD39988814281BF0121126899809A6076
:1048800099889A6800242AB904B19A604FF6FF719A
:10489000998009E0884204D00131126889B201246C
:1048A000F1E70CB198809A60104610BD0022FBE73A
:1048B000D806002037B50D461446FFF7D3FFD8B110
:1048C0000369828A63B14FF6FE718A4208D10020E3
:1048D0000090ADF804006946984738B103B030BD88
:1048E0002B602280286848B92080F7E7009B2B6066
:1048F000BDF804302380F5E70120EFE70020EDE765
:1049000037B50D461446FFF7ADFF70B1036973B1BB
:10491000818A4FF6FE72914209D10095ADF80440AC
:1049200069460120984703B030BD0120FBE70E2007
:10493000F9E7000037B50379124A033304460193BF
:1049400000F14403009306CA02231430FFF716FC5B
:10495000228A0192E268237A009204F12C0094E802
:104960000600FFF70BFC237AA4F84500054684F8FF
:1049700044302279216804F1470007F0BDFE284643
:1049800003B030BD64C9000070B50E4C0E4B04F18D
:10499000100206460D4692E80300183483E803002F
:1049A0001846FFF70FFC094B94E8030002221A7225
:1049B00083E80300DE601D821846BDE87040FFF703
:1049C000B9BF00BF88C700005C230020B8040020E6
:1049D0002DE9F041054616468846FFF7EBFDAB8A08
:1049E000181A80B2864228BF064637465FB93EB1E4
:1049F000D5E901329A4202BFAB7D43F00103AB75AA
:104A00003046BDE8F081AB8A2C68A8681C44241AA3
:104A1000A3B2BB428CBF3C46A4B22246414607F03B
:104A20006BFEAB682968AA8A23440A44A0449342D7
:104A3000A7EB0404AB60A7B228BFA960D6E770B5A6
:104A4000044615461E4611B3FFF7B4FDA38A181A93
:104A500080B2012829D9E37D63B1E368628A1A70C4
:104A6000120A07D02068A18A013301448B4228BF73
:104A70000346F4E700236382A368E360022204F1A3
:104A800012012046FFF7A4FFE37D0133E3753246B0
:104A900029462046FFF79CFF638A03446382E37D37
:104AA00013B9238A0344238270BD0020FCE72DE95B
:104AB000F041164605468846FFF77CFD864228BF32
:104AC0000646B6B237464FB92EB1AB7DDA0744BFC2
:104AD00023F00103AB753046BDE8F081AB8A2C684A
:104AE00069681C44641AA3B2BB428CBF3C46A4B2A2
:104AF0002246404607F000FE6B682968AA8A2344D4
:104B00000A44A0449342A7EB04046B60A7B228BFF9
:104B10006960D8E770B51E46038A04461546EBB9AE
:104B2000C27DDAB10123013A0B70C27500F11001A8
:104B30000222FFF7BCFFE37D9BB1228AB24228BF6D
:104B4000324629462046FFF7B2FF238A1B1A2382EA
:104B5000E37D13B9638A1B1A638270BD00230B7057
:104B6000EBE7638A2382E8E770B50D46A8B9FFF743
:104B7000C7FD446BFFF7C4FD58B12346084C03F151
:104B8000400618685968224603C20833B3421446E7
:104B9000F7D1044B2B600423AB80002070BD00BF15
:104BA00038010020580100202DE9F04385B08846E7
:104BB0006946044681E80C000C9EBDF83470FFF78E
:104BC00051FE4FF6FE7905460DB1444505D94FF625
:104BD000FF74204605B0BDE8F0832B7A9DF80420D1
:104BE0009A421ED10099686807F099FDC8B9002E55
:104BF000EFD02B69AA8AA3B14A4509D10290ADF83A
:104C00000C0002A9984760B9029BBDF80C2043B183
:104C1000974206D13A461946304607F080FD0028F3
:104C2000D7D001342D68A4B2CEE70000F0B5354CE2
:104C300085B011464FF486701F461646FFF772FC8A
:104C4000236925462BB94FF48370FFF76BFC05B041
:104C5000F0BD002F08BF082E21D16A46032120682D
:104C600002F042FE636860615B7A23769DF8003053
:104C7000DA1F53425341627E63F30002029BE361F9
:104C8000BDF802306276638304F1180123690220C3
:104C9000984701220021206802F02EFED7E7002F5E
:104CA00008BFB6F5800F03D1002101209847CEE759
:104CB00006F440520023134309D04FF480714FF49F
:104CC0008170FFF72FFC236900210320EEE706F433
:104CD000A0620023134308D001214FF48170FFF735
:104CE00021FC2B690021FF20E0E706F0A052002301
:104CF000134319BF012140F2011031464FF4837074
:104D0000EDE700BFB02100207FB502238DF80C3005
:104D1000064B5A8B596918680332029201AA02F0B5
:104D2000E7FD019807B05DF804FB00BFB02100204B
:104D300008B500214FF48570FFF7F4FB044B002207
:104D40001A61186801220321BDE8084002F028BB5F
:104D5000B021002013B50D4B0D4C1B88ADF804306D
:104D60000128ADF8003004BF02238DF8043001A9FA
:104D700008BF0423206808BF8DF8003002F01AFD38
:104D80006946206802F02EFD02B010BDA8C70000E1
:104D9000B021002037B5124C437A606000220092A7
:104DA000D0E90021206802F018FE238CDB050CD529
:104DB00063680C4D1A7A2978914206D0012A06D0F0
:104DC000022A08D063681B7A2B7003B030BD2068BC
:104DD00002F0D4FDF6E7206802F0D6FDF2E700BF4E
:104DE000B0210020CD0600207FB51B4C1A48637A05
:104DF0000133DBB2272B88BF25236372FFF7CAFF7D
:104E0000257B627C154C164920684FF400730232F2
:104E100002F049FD6368134A5B7A05F001052846F4
:104E2000D65CFFF797FF42F210730022CDE9023201
:104E3000009201238DF80C30314602AB206802F05D
:104E4000B3FA28B1FFF774FFFFF7CEFF04B070BDCF
:104E5000054B2361FAE700BFD4000020B0210020F9
:104E6000E400002038C900006156000038B50D4646
:104E700011462C68A41A2246014407F05FFC2C60FE
:104E800038BD00002DE9F843514E524C524FA41B3F
:104E9000524E3B68344424F4FF64C51A24F00704DE
:104EA0004F48A5420560B946804672D313445E1947
:104EB000FFF7FEFBA0F5805086426AD83868861856
:104EC000B6F5806F03D9474B82221A705FE0464FD8
:104ED000384407F011FC454BC9F800601A681AB94C
:104EE000332E54D97A6B1A601B689D4205EB060479
:104EF0001DD8A3421BD203F11002A24247D85B1B6C
:104F00001F443B4A3B4607F1100153F8040B42F89B
:104F1000040B8B42F9D13648FFF7D2FB10B9314B65
:104F20008422D2E71022FF21384607F0F0FB314FF0
:104F300031483B6806F00306A41B044053B92840DF
:104F4000C0F500612144FFF721FC3C6040B1254BD6
:104F50008522BAE7A34203D2E11A03F50060F2E723
:104F6000D9F800202049D8F80000921BFFF721FC57
:104F7000D9F80020D8F800301749921B0446134492
:104F80001948C8F80030FFF771FF002CDFD1BDE8E9
:104F9000F8831A4B5B68B3F1827F124B12D21878F8
:104FA0000A4400268A4203D1002EF0D01870EEE7A2
:104FB00011F8017BFF2FF5D00126A54234BF8720D1
:104FC0008320EFE7A54234BF872283227DE700BF1D
:104FD00010000020B4000020A82100201FE50000E0
:104FE000280B0020250B0020A81D0020A41D002058
:104FF000941D0020AC21002000F8FFFF9C01002040
:10500000EFF3108072B670470B4A536911699B0029
:1050100003F03C03C1F381110B438370136903F068
:105020003F0343709369D26903F0F003C2F30312A4
:1050300013430370704700BFD0FF0FE0054A064BD3
:105040001B68136F23F007031843044B106718887D
:10505000FFF75CB900300E408009C643EC06002023
:10506000EFF3108072B6704700B962B67047000067
:1050700010B5034CA01DFFF7E9FA0023236010BD13
:10508000741D002010B5094CB4F80710A079FFF783
:10509000C9FAA368064AB4F80D10D184C3F30F23EC
:1050A0009384FFF7A1FA0023236010BD741D002034
:1050B00070060020034B044A9979117500221A608A
:1050C000704700BF741D002070060020FFF7CCBFA2
:1050D0002DE9F0410D4F06460D4614460CB9BDE8CA
:1050E000F081EFF3108872B623462A4631463846DF
:1050F000FFF7A5FC03464046FFF7B6FF002BEDD0B7
:10510000E41AA4B21D440026E8E700BF581C0020A2
:1051100013B5002301F10804ADF80430ADF8060022
:1051200021461A46083151F8100C70B90BB1ADF890
:10513000042004220DEB020101200834FFF7C8FF10
:1051400054F8101C39B902B010BD51F80C3C1A4487
:1051500092B20123E6E734F80C2C0020EDE70000C2
:105160007FB500230130CDE90101CDE90433694663
:10517000044B009304200392FFF7CAFF07B05DF8C9
:1051800004FB00BF7E01002040F6280210B5136822
:10519000A3F50063B3F5605F0ED2EFF3108072B633
:1051A000084900240B780C70FFF75EFF3BB11368D1
:1051B000BDE810401B6A18474FF4817010BD1846B7
:1051C000FCE700BF711D002001282DE9F34740F0E6
:1051D00032818B88012B40F030810B681B7813BB28
:1051E000984A994C1360994A1360994A1360994AF6
:1051F0001360994A1360994A1370994A1360994A47
:1052000013602278022A01D1FFF7BEFF0123237029
:10521000954B00241C70954B1C70954B1C702046C0
:1052200002B0BDE8F087032B40F0F280904B864E31
:105230001C78002C3BD13378002B00F0DF80874BAB
:105240001B78082B7DD17F4B1868984680B940F6B3
:1052500028052B68A3F50063B3F5605F58D34FF4BE
:10526000017041F20803984200F0CA8080241EE0D9
:1052700010F003071ABFC7F10407FFB2274600EB7F
:10528000070ABAF5806F00F2BF807A4B3A46FF21D9
:10529000184407F03CFA724A774913680968C8F85D
:1052A00000A00AEB03008842914603D9832400231F
:1052B0003370B4E7654A15681D445544DFF898A17A
:1052C00025F4FF65DAF8000025F00705854209D9C5
:1052D000291A00F50060FFF759FA08B18524E6E7BE
:1052E000CAF80050D8F80010D9F80000FEF7B8FF4F
:1052F000D9F80030D8F80020524913440546DF1B86
:105300005C48C9F80070FFF7B1FD002D9FD0E5E7BC
:10531000FEF7C6FF0028A4D12B680190A3F5006218
:10532000B2F5605F09D21B6BA3F50062B2F5605F56
:1053300003D29B69012101A898474C4B01221A70A6
:10534000B5E7002B5ED0484B1B78002B8ED0454F25
:105350003B6843B93F4B494918681022FFF729FAC7
:105360000028A4D0BAE713F003021CBFC2F1040264
:10537000D2B29D18B5F5806F46D84148FF21184438
:1053800007F0C5F93F4A404B314840493D609B1A00
:105390003F4A134402680B409342804636D8154476
:1053A000FFF786F9A0F5805085423FF67FAF3D6854
:1053B000DFF8A4902A44D9F8000002EA01058542EA
:1053C00008D9291A00F50060FFF7E0F9002885D117
:1053D000C9F800503A682A49D8F80000FFF7E9F9FF
:1053E000D8F800303A681F49054613442448C8F8E5
:1053F0000030FFF73BFD002DACD06FE7812456E76E
:10540000862454E7842452E7822450E787244EE719
:10541000042B14D11F4C13230221637020462170EA
:10542000FFF7D6F81C4A1D4B128905329A801C4A98
:105430001A6062789A710024F1E60D24EFE60624E2
:10544000EDE600BF200B0020260B0020BC2300202F
:10545000280B0020A41D0020AC2100207801002092
:105460002C0B0020A8210020240B00208501002007
:10547000250B002020070020C0230020941D0020C1
:10548000A81D002010000020B400002000F8FFFF3D
:105490001FE50000881D002070060020741D0020FC
:1054A0005D5B000040F6280210B51368A3F50063A9
:1054B000B3F5605F0ED2EFF3108072B6084B012493
:1054C00019781C70FFF7D0FD39B91368BDE810409A
:1054D000DB6918474FF4817010BD0020FCE700BF66
:1054E000711D0020134A144C08B5937E43F040030D
:1054F0009376124B00221A70114B1B784FF0005517
:105500006BB1FFF7CFFF0F4B2B600123A360236824
:1055100023F4E06343F480632360FFF725F92B60F5
:105520000123A360236823F4E06343F480632360D2
:10553000FFF71AF97006002000500E40CC0600203C
:105540008501002002020FF010B5134CA37E5B060C
:1055500021D4FFF7EDFB2168A38C40F2E24202FB6D
:105560000312226094F84F10A27A25200A4492FB7D
:10557000F0F100FB1122A2722289013222816268BD
:105580000A2101FB03236360238B5A1E228313B974
:105590000820FFF7A7FF10BD700600202DE9FF418E
:1055A000294C40F601002189FEF7BCFFA37E13F0D1
:1055B000400242D143F0010303F0FD0362F3820392
:1055C000224AA376136823B121899288914200D19F
:1055D0009847A37A1E4F1F48234493F82A306375D7
:1055E000FFF7D8FBD4E900547B681B4A5B7A640858
:1055F0002E1B12F803800120FFF7ACFB64350096E8
:10560000002625446A4601244146334638680295FF
:105610008DF804608DF80C608DF80D408DF80E60EB
:1056200001F0C6FE224605463146386802F064F9AC
:1056300035B1FFF789FFFFF7B1FF04B0BDE8F08196
:10564000064B3B61F9E700BF70060020741D002087
:10565000B02100207C06002038C90000C55700009A
:1056600002282DE9F0411FD002D8012807D0FEE71B
:10567000032800F09C80FF2800F09980F7E74D4C4C
:10568000237B980707D5FFF753FBFFF7ADFB237B81
:105690006FF341032373237B990701D4DA0764D4A2
:1056A000BDE8F041FFF7A0BB4B784C68DB077ED527
:1056B000227802F00F07032F59D0052F77D13E49EA
:1056C0008B7B03F00103B3EBD21F04F108004CD134
:1056D0000622083107F023F88046002845D1FFF75D
:1056E00027FBFFF711FB354D414606465C22284655
:1056F00007F00DF8AB7E2F8343F02003AB76627E7C
:10570000237E43EA0223AB84627F237F43EA0223A2
:10571000EB8494F82330C3F3040385F84F3094F8F6
:105720002330C3F3421385F8503004F11E001B23CD
:105730002B85FEF78BFFD4F80E30E27CEB60A37C68
:105740002E6043EA0223227D607D43EA02432B61FF
:10575000012795F84F30AB722F75E18A3944FEF777
:1057600061FFFFF71BFF164B1F70BDE8F081124D64
:10577000AB7B03F00103B3EBD21F04F10800F4D1BB
:10578000062205F1080106F0CAFF0028EDD1094CF8
:10579000286894F839204FF40073023204F138017C
:1057A00002F081F8237B43F002032373DDE7FFF768
:1057B000BFFA75E7D4000020B02100207006002059
:1057C000CC06002002282DE9F7430F460BD003D862
:1057D000012800F0B281FEE7032800F0B681FF281F
:1057E00000F0B381F7E748784E68BB4D10F0010434
:1057F00061D14FF0FF3140F60300FEF793FE2646DD
:10580000AB7EB64C13F0200F12D0696D6FF34513C9
:10581000AB76002900F09F80237895F858206270BD
:1058200043F003032370A01C06F066FF00236B65A2
:10583000AB48DFF8D082FEF7BDFEAA7E23780030A9
:1058400018BF012060F34102C2F30011AA7661F390
:105850008203C2F3C00262F3C30360F30413237034
:10586000218840F60200FEF75DFE62789B49D8F879
:10587000000002324FF40073D2B202F014F8AB7E93
:105880007C68D90709D56FF30003AB7600236B6002
:10589000FFF73AFA2860FEF7A7FE4EB1237803F02F
:1058A0000303022B00F031816DD8012B00F02C8115
:1058B00003B0BDE8F083318840F60300FEF732FE06
:1058C0003378A97E96F80080C3F3001363F3820156
:1058D000A976C8F3C003C1F300118B4206D108F0CA
:1058E0000303022B05D019D8012B31D000263446F2
:1058F00015E0A146767896B17A48848AFEF75AFE7A
:10590000201A80B2B9F1000F04D0022886BF0238F5
:1059100080B2002086428CBF002401242646AB7E44
:10592000C8F38008C3F3C002904507D082F001029B
:1059300062F3C303DBB243F02003AB76002C3FF4E9
:105940005FAFAB7E81F0010161F30413AB7657E7E3
:105950004FF00009CEE795F828306148A21C0DF100
:105960000701FFF7D7F8C0B258B19DF80730002BF8
:105970000CBF012202222378607062F301032370BE
:1059800056E70122F7E7A378022B65D011D8002B48
:105990004DD0012B38D0544A127822B1162B7FD02B
:1059A000182B00F08C8051480722027043700221AE
:1059B00027E00C2B18D0142B56D0082BEBD1B8F8BD
:1059C000201054F8035FC8B205EA0002474801F40A
:1059D0007F41044642EA0105092104F8011B002326
:1059E000C0F8015063600CE040484FF0FF32037094
:1059F000012343708270037102220023C27043713D
:105A00000621FEF7E5FD53E7617A237A384A43EA37
:105A1000012393801346374943F8061B54F8031FAC
:105A2000C2F80610A2889A80A2799A7140E7627B38
:105A3000237B2F4943EA02238B800B462E4A43F8EF
:105A4000062B54F8032FC1F8062062685A60228999
:105A50001A81A27A9A722BE72A89254B05329A80FD
:105A6000264A1A60E278E0E7B4F80530B4F803207B
:105A70001E48DB08934228BF13462B8515230021BF
:105A80006FF004046FF027020370072381708171A7
:105A90004470C27003714471C27103720921B0E78E
:105AA0002279E3781148134003F00303022B18BF57
:105AB000012317220270437083700321A1E76279EA
:105AC000A1790B4B42EA01229A800D4A1A60D4F860
:105AD0000320C3F80620EBE670060020CC2500204A
:105AE000581C0020401B0020701D0020881D002035
:105AF000741D002071500000855000005D5B0000A7
:105B0000B5500000B021002000261248818AFEF71F
:105B100051FD081AA51C80B2647826B1022886BF00
:105B2000023880B20020A3B283423FF6C1AE2A46BB
:105B300031460848FEF783FFBAE6074B9B7E9A077B
:105B40003FF5B6AE5B073FF5B3AEFFF7FDFCFFF7E1
:105B500025FDADE6401B00207006002008B5024B75
:105B60009879FFF7BFFC00BF741D00202DE9F04FAE
:105B700001288DB040F082818A88002A00F080815F
:105B8000AE4E96F80090B9F1000F00F07B81AC4B5F
:105B90001C7898465CB9AB48009005783DB9AA4D91
:105BA00028681718B7F5806F05D982241C70204625
:105BB0000DB0BDE8F08FDFF8B4B20968584406F0C4
:105BC0009BFDB9F1020F2F603CD0032FEFD99F4FFF
:105BD0003846FEF713FE3B78DBF80020012B9C4B88
:105BE0005CD19A425CD1BB68DB0362D5022333707F
:105BF000FFF758FC40F628031B68A3F50062B2F5D6
:105C0000605F09D21B6BA3F50062B2F5605F03D23F
:105C10009B6805A9002098478E4B059818608E4B0D
:105C2000069A8E4F1A608E4B00EA07024FF400610D
:105C30001A60FEF7ABFD60BBFEF762FDD0B93378AA
:105C4000022BB4D1874A884F167838682B6816F033
:105C5000F70F03EB0001914640F0C7807E4E03F042
:105C6000030A3668A1EB0A01B14224D9832488F8DB
:105C700000409CE74FF40061D0F83490FEF786FDB9
:105C800038B94FF4006109EA0700FEF77FFD0028EC
:105C9000D5D0852388F800301C4688E79A4208D082
:105CA000842388F8003098F80030002B3FF47FAF51
:105CB000F0E78623F5E767490E681E440644684B03
:105CC0000193A6EB0A0626F4FF66186826F007067D
:105CD000864209D9311A00F50060FEF757FD019B95
:105CE00008B18524C3E71E6029683868A1EB0A0162
:105CF000FEF7B6FA2B685449A3EB0A023B68064646
:105D000013445A483B60FFF7B1F8002EE9D199F8E7
:105D10000030002B7FF44BAF3B687F2B7FF747AF02
:105D200003A905A8FEF776FA10B9059B89F800309B
:105D300099F8003013F0F70F3FF439AF40F6280917
:105D40002A684A4904A806F0D7FCD9F800203B6825
:105D5000A2F50061B1F5605FC3D2126BA2F50061DC
:105D6000B1F5605FBDD20021D668404A0846B04711
:105D70000028B6D13E682F6801903A460BEB06002A
:105D800004A906F0B9FC3E44354A019B2E60384E0A
:105D90001360384B7360D9F80030A3F50062B2F598
:105DA000605F9ED29B6A34484FF480519847002828
:105DB00097D1D9F800202B68A2F50061B1F5605F9A
:105DC00039D2D76A2C48294A3146B84706462A684C
:105DD0001D492648FFF74AF840F203239E421CD093
:105DE00040F201239E4224D1E1E640F628023960C8
:105DF0001268A2F50061B1F5605F12D2D66A1C4943
:105E00001A4A1D48B04706462A680F491748FFF747
:105E10002DF840F203239E4206D1009A012313700D
:105E2000C5E640F20226EFE740F201239E423FF42E
:105E30006EAF80241BE740F20226C8E7260B002045
:105E4000250B0020240B0020200B00209C010020AB
:105E5000EB17A603BC230020C023002000F8FFFF9F
:105E6000AC210020780100202C0B0020200700200E
:105E7000300B0020854E0000400B0020002496E6E9
:105E80000D2494E6812492E6F8B5042879D8DFE859
:105E900000F00B0312A0A50080264025062307244E
:105EA000002900F0828070E04FF400764FF4807596
:105EB00008230924F4E7002974D04B4C636A13F0DB
:105EC000300F5FD1636ADD0705D5636A23F03003C5
:105ED00043F010036362042502230324424E356617
:105EE000424E33449B001F68002FFCD0002A48D04C
:105EF0003444A4002368002BFCD0022841D100299F
:105F00003FD0394B5A6A12F0010F1A463FD04FF476
:105F10008062C3F8A82020225A665A6A12F0300F15
:105F20000CBF4FF440024FF40002D3F8901032EA55
:105F30000101FAD1520201D5D3F8A0302A4E012234
:105F400000210220D6F89C70FFF79EFFD6F8903013
:105F5000726A274B22F0300242F010027262C7F3DD
:105F60000A07316BFA0903320F2A03EA010328BF3B
:105F70000F223B4343EA0273336335662368002BE9
:105F8000FCD0F8BD0425022303240021A6E7536AB0
:105F9000D2F8903003F44003B3F5400FF8D1D2F8B3
:105FA000A030CBE70826022303240F4901200E6608
:105FB00000FA03F3D1F890001842FBD1002AE0D098
:105FC0000123094A03FA04F4D2F890302342FBD1AA
:105FD000D7E70125022600232C4661E7202610255D
:105FE000042305245CE700BF00400E408004F2104B
:105FF00000F8FF0F00F00F000138072848D8DFE84D
:1060000000F0040F1947232D4735244BD3F8943063
:1060100003F00703023B022B3CD8214AD05C7047B7
:106020001E4BD3F8803003F00703013B032B33D81A
:106030001C4AF3E7194BD3F8843003F00703013B04
:10604000032B29D8184AE9E7144BD3F8883003F01A
:106050000703013B032B1FD8144ADFE70F4B1B6FCD
:1060600013F0010F14BF0920072070470B4BD3F822
:106070005C3103F03003202B06D0302B06D0102BE0
:106080000CBF07200120704704207047082070478C
:1060900000207047052070470120704700400E40E7
:1060A000B6C70000B9C70000BDC70000B9C70000EF
:1060B0000048704700F04902FEE700000E4B0F4A0F
:1060C0009A60D3F8882042F47002C3F888200C4B01
:1060D0005A6D42F400525A651A6C22F003021A6497
:1060E000084A136823F00103136052F8143C23F0AC
:1060F000805342F8143C704700ED00E0004000007F
:1061000000300E4074300E400B4BD3F8942002F058
:106110000702022A04D001D3042A0AD9074800E062
:106120000748D3F80031C3F304230133B0FBF3F085
:1061300070474FF40040F4E700400E40C0EA2101F0
:1061400000F0490208B5FFF7DFFF044BD3F8083130
:10615000C3F308230133B0FBF3F008BD00400E4049
:1061600000F00F00013870B507283CD8DFE800F0D8
:106170000F4B4D3B046B3B76514C0139092932D80A
:10618000DFE801F05F484F31315631313145023996
:10619000032928D8DFE801F03402282E0120032447
:1061A0000122484D1146FFF76FFE2E6C464841F61E
:1061B00071332B64FEF712F90EB100232B64434BAD
:1061C0005C67FFF7BFFF3F4C0646FFF79DFFFEF7FA
:1061D00071F9256C41F6713323643046FEF7FEF801
:1061E0000DB10023236470BD3948FEF763F9022026
:1061F0000446D5E73648FEF75DF901240320CFE7D2
:1062000000200424CCE7334CB7E7334CB5E7042334
:106210002360E8E7012211460020FFF735FE022344
:10622000F6E7012211461046FFF72EFE0123EFE7A5
:10623000FFF76AFFFEF73EF9284B01221A6003239D
:10624000E6E70023E4E7072904D00929CBD11F4B57
:10625000012201E01D4B00221A67C4E7013907291A
:10626000C1D801A353F821F0BB620000E761000030
:10627000E7610000AD620000E7610000E761000037
:106280009F6200008962000003221049D1F85C314E
:1062900023F0300343EA0213C1F85C31A3E7012283
:1062A00011460420FFF7F0FD0122EEE7012211461E
:1062B0000220FFF7E9FD0222E7E70022E5E700BF41
:1062C00088400E4000000E4000F0490200400E40A1
:1062D0000148E80180400E4084400E400016C8434B
:1062E00038B5C0F30323013B04460D46092B1AD8E9
:1062F000DFE803F031211A19052427192A2E174B3C
:106300000022C4F3043442B11548D0F84411C9073F
:1063100003D4D0F840110A42FBD103F1047304EB1B
:10632000C3039B001D6038BDFFF70CFFFEF7C2F8EA
:1063300000220C4BE5E700220B4BE2E701220B4B5E
:10634000DFE710220A4BDCE74FF48032094BD8E735
:106350000022094BD5E70022014BD2E7B0400E40A6
:1063600000400E40B8400E40C0400E40E0400E409D
:10637000E8400E40F0400E4050410E402DE9F84FED
:10638000404E414D96F800A0814688461746BAF126
:10639000000F39D1FEF78CF93C4CA0F580502060FD
:1063A000FEF786F9A0F50060606001213848FFF72C
:1063B00097FF216808200431FDF714FF23681B684C
:1063C000834208BF2368616808BFD3F804B001F1B5
:1063D00004014FF008000CBF4FF0010AD346FDF74F
:1063E00001FF63681B68834205D163685B685B4596
:1063F00006D8002305E0BAF1000FFAD1FF2300E030
:1064000001232B700123337095F900305A1C28D0DA
:106410001E4ADFF880A052F823600C3635464FF64E
:10642000FF7BC5F30A030833B3F5006F19D2AB88BD
:106430005B4516D0A879291D0430FDF7D3FE2B68E3
:10644000EC888342E4B202D1AB884B450CD00334D4
:1064500004F4FE740834254486EA050313EA0A0F9F
:10646000DFD0002038700AE03B78A342F9D32246FF
:1064700005F10801404606F03FF93C700120BDE8F7
:10648000F88F00BFC423002010000020E406002085
:1064900000550A0000F8FFFF2DE980488F4B5B682C
:1064A000ADB013F4806F24AF18D14FF00053002229
:1064B0001A603846FEF7A2F9FEF722F9A8B1446B3C
:1064C000FEF7F0FF269B5A0737D5FEF719F9FEF7BE
:1064D00088F90446FEF758FE3CB145E04FF0005302
:1064E0001A68022AE1D100221A607D4B7D4C0122FC
:1064F0005A64E56C38462D0EFEF786FD8E2D44D885
:106500007949D1F8B00040F00403C1F8B030774BBE
:106510004FF050121A601A631A66C3F89020C3F83D
:10652000C020C3F8F020C1F8B0006F4AD36A23F04E
:106530007F0343F02003D36229E014B9FEF724FE61
:10654000D3E7FEF7B5F88442F8D2FEF7B1F804F1CC
:1065500040038342F2D82046FEF7B2F80028EDD07F
:1065600063696BB9FEF710FEFEF7CAF80446FEF742
:10657000C7F85F4B986023689D4663689847B4E707
:106580009DF89030012BEDD19FE78F2DCDD99DF84F
:106590009130584E012B01BF574A136843F0040352
:1065A000136000233360554B02229A639B6B03F008
:1065B0000F03934240F04B81D4F86C3101331DD06E
:1065C0004F4B1A68043B1B681A604E4B1A68043B19
:1065D0001B681A604C4B1A68043B1B681A604B4BD3
:1065E0001A68043B1B681A60494B1A68043B1B6815
:1065F0001A60484B1A68043B1B681A603F4DEB6CED
:1066000023F0405323F0010343F00103EB64424BBA
:106610000F221A80EB6E43F08073EB663F4B1868D5
:1066200000B10420FEF70AFD2B6E23F0C0432B6659
:10663000EB6C43F006033846EB64FEF7E5FC9DF88F
:106640009100012812D19DF89030022B0ED83449C8
:106650000B785BB9334A136843F0010313602B6E68
:10666000314A1A40314B13432B660870304BC82215
:106670001A80304BA0220F201A80FDF747FE1F4BD7
:106680002D4A9A65D4F86811DD6CC5F301752B02AB
:1066900040F201129342C1F3072CC9B200F0AF805F
:1066A000B3F5817F0AD2012B48D0C0F0B180B3F599
:1066B000807F00F0B0800022134644E040F20122C7
:1066C000934200F0A280B3F5407F00F0A780B3F5BD
:1066D000007FF0D1D4F8703132E000BF00500E409E
:1066E00000000E40B081E00F00400E4000A00040CE
:1066F00000ED00E0B40AC64364310E4000300E40A5
:106700003C80E00F4480E00F4C80E00F5480E00FAD
:106710005C80E00F6480E00FEC0600208009C64337
:10672000270B002044300E40000F0EF0B4C0400B89
:10673000EE060020F006002077402057D4F8743190
:10674000C3F30722DBB24FF4167EACEB01000EFB65
:1067500000F0B0FBFEF008448445A2EB03010EFB01
:1067600001F1B1FBFEF1194471D391426FD8354A62
:10677000D36D23F4FE4323F0020343EA0020D065E7
:10678000236DDBB2032B4CD8D4F87C31DBB21B0376
:1067900013F4702F5BD12B4AD06E20F4704003436A
:1067A000D366506EE72920F4FF700B4620F00100FD
:1067B00028BFE72340EA4300234B506601211960BC
:1067C0004AF6E853506B5363936FDB07FCD4136CAA
:1067D00013F003033AD0012333601A4B19469A6F22
:1067E000D507FCD41A6C22F003021A648B6F13F0E5
:1067F0000103FBD10128336008BF4B6327E0D4F8C5
:1068000074311A0EC3F307439DE7D4F8783197E744
:10681000D4F86C3194E7D4F86C31F2E7D4F87031E5
:10682000EFE7022DD4F8803106D0032D07D0012DDB
:10683000ACD1C3F30723AAE7C3F30743A7E71B0EB3
:10684000A5E700BF00300E409407C6433360C84D33
:10685000C84E1120FFF7CEFB012200210220FFF7D6
:1068600013FB6B6A23F001036B62C34B4FF000080C
:10687000C3F80080AB6A23F0070343F00603AB6262
:10688000BE4BEB622A6BBE4B02F07F6213432B635D
:10689000BC4B6B6311200421FFF762FC6D6AD6F8D4
:1068A0004090B94841F67133336445F04055FDF7E7
:1068B00095FDB9F1000F01D0C6F840801120FDF719
:1068C000A9FDB14BB14E0130B3FBF0F0FDF7F2FD85
:1068D000012211460220FFF7D7FAA54B5D62D3F8DB
:1068E000C820AB4D42F00102C3F8C8202CAAA36A0D
:1068F000B3650424002302F8984D08A935200893B5
:10690000FFF73CFD06238DF81730089B8DF81640E5
:1069100013F4803F0AAC00F05582B36D8DF8283037
:10692000B36D8DF82930B36D8DF82A30B36D8DF8C5
:106930002B30B36D8DF82C30B36D63F03F038DF8C1
:106940002D309DF82E3043F001038DF82E306C6011
:10695000904B914A9A604FF000084FF48071C3E960
:1069600000225961A3F810808C4A8D4B8D4E9A609D
:10697000C3E900225961202241463846A3F810801D
:1069800005F0C5FEFC2208238DF89320864A8DF879
:10699000913025928DF8A13040F20172F823ADF8C4
:1069A0009A208DF8A330814A814B27924FF001093C
:1069B000384629938DF8989000F066FC7D487E4B10
:1069C000036041467D4B436000F0D0FC66A3D3E9F1
:1069D00000233060CDE900234FF0FF334FF0FF324A
:1069E00000F004FF02224FF0FF313068744C00F0D9
:1069F00007FF744B2493394603F500333068CDF814
:106A00009880259300F014FD2146306884F80080BA
:106A100000F020FF28B12146306884F8009000F093
:106A200019FF3068DFF8C0A100F0A4FF2178B5F9A4
:106A30000020306800F038FC0146306800F0F5FEB8
:106A40006C68002C40F0D8815046FDF755FDB37BB3
:106A500064F30003B3735C4B5C4CDFF890815C4DD6
:106A60004FF02009A6F82090562283F801930021C8
:106A700083F8039304F10A0083F8059383F80693DF
:106A800083F8049383F8079383F81C9305F03FFE83
:106A90005048514B0022C8F800201B22C4E90003D3
:106AA0002A8025232CAA6372012302F89C3D0DF154
:106AB00015013E202372FFF761FC2CAA1E2302F869
:106AC0009D3D14A93620FFF759FC2CAA394602F83F
:106AD0009E9D3920FFF752FC80BB404B9DF8132050
:106AE00018681B7924903B71002A00F08E811B2AC4
:106AF00028BF1B22531D8DF8123014A9531C0DF111
:106B000095008DF8933005F0F7FD1CA8FDF7F4FC17
:106B1000334A9DF812301288FA522CA99A1C51FA65
:106B200082F2002102F8201C1C98BDF8741042F873
:106B30001F0C093322F81B1C8DF812302CAA2023BD
:106B400002F89F3D1CA93A20FFF718FC002851D1FC
:106B5000244B1A889B788DF872300323ADF870208F
:106B600046E000BFAFF3008008354014000000008D
:106B700000400E4000000E40A004C8432000050065
:106B800007AD0AD047A0020000F0490200500840BB
:106B900088010020581C0020701C0020581B002079
:106BA000401B0020B0210020D0C70000C2C7000059
:106BB00014C80000E02100202D4C0000D42100204A
:106BC000140000203C00940000E100E0D40000200C
:106BD0007A010020D6BE898E55555500A0C8000008
:106BE000B0C80000B3C80000B8210020AC030020EA
:106BF0008DF81130B14BB24800224FF00209C3E9C1
:106C00000022B04B036080F80490FDF7DBFAAE4839
:106C1000AE4B036080F8049010230372FDF78AFEE8
:106C2000AB48AC4B0360AC4B80F80490C36080F879
:106C30000890A0F81090CDE900394B4690E8060086
:106C40001430FDF79BFA9DF81310002900F0EE8038
:106C500014A8FDF799FEA148A14B03604FF010095D
:106C600080F80490FDF7AEFA9E489F4A9F4B036060
:106C70004FF6FE7B0823C260A0F810B080F80490A5
:106C800003720393FDF756FE99489A4A02600C225C
:106C90000272994AC260A0F810B080F80490FDF723
:106CA00049FE9648964A039B02604FF0020B954AB4
:106CB00080F80490C260038280F808B0FDF73AFEC5
:106CC0009148924B0360924BC36080F8049001237B
:106CD000038280F808B0FDF72DFE8E488E4B0360CE
:106CE0008E4BC3604FF6FE73038280F8049080F8E9
:106CF00008B0FDF71FFE8A488A4B03608A4BC360C9
:106D00004FF6FE73038280F8049080F808B0FDF718
:106D100011FE864B694A1A604FF6FF729A809DF801
:106D20001220202A05D8931D63743946804805F047
:106D3000E3FC9DF81120202A06D8931D84F83930F1
:106D40001CA97C4805F0D8FCFDF7F2FF237BB27B41
:106D500043F001032373237C02F0010203F0F003EC
:106D600062F386132374637C0BB906236374724B3E
:106D7000BAF80410B068C4F81200998094F838305A
:106D8000042161F3030362F3861384F8383094F826
:106D9000393013B9062384F83930684BB068BAF833
:106DA0000420C4F83A009A80FEF71EF8644C654B44
:106DB0001B78002B7BD1644A136923F00403136111
:106DC00030BFF4E70DF1170221462C20FFF7D6FA69
:106DD00000283FF4BDAD0DF1160207A93C20FFF7D6
:106DE000CDFA9DF82E3020B19DF81C2062F30003EF
:106DF000ABE560F30003A8E52068B060A288A37942
:106E00008AF80630AAF8042025E60E238DF8123001
:106E10000A238DF893304D4B1A68CDF895205A68A7
:106E20001B7ACDF899208DF89D306EE609214748F0
:106E30000FE7EFF3108672B600231A460DF1190121
:106E40004348FDF767FE3046FEF70EF99DF819300E
:106E500013B10023C8F80030D8F80020EFF31086F3
:106E600072B6C2F501739BB222440DF11901384884
:106E7000FDF750FE03463046FEF7F6F8D8F800005E
:106E800018440328C8F8000011D9B4F8009009F19B
:106E9000040398420BD307D8608804284FF00007FA
:106EA00058D0062800F0C6810023C8F800302848D2
:106EB000FDF780FB0028BCD17DE700BFD006002095
:106EC0007C230020B7C8000010050020BAC80000CD
:106ED000F4060020BDC80000AAC700009C230020C3
:106EE000C0C8000068050020C9510000D1C80000DA
:106EF000C0050020E2C800006D5B0000080400200F
:106F0000F3C8000058C800001806002004C900009B
:106F100037C900006004002015C900004548000082
:106F2000B003002026C90000694B0000D8060020ED
:106F3000EC00002014010020E60000200E010020DB
:106F4000A8010020CC06002000ED00E0A6C800004B
:106F5000401B002022796F8009F1FF33082A9BB281
:106F600000F0DF801BD8042AB74E39D0062A4ED055
:106F7000022A1AD1022B40F05981B4F80570002280
:106F8000B7F5007F28BF4FF4007703231146022096
:106F90003370A6F80170FEF7E3F82F8084E7102A1B
:106FA00000F0F48003D80A2A70D0062294E0122A56
:106FB00000F09B80522AF8D1B4F80500FDF752FC8E
:106FC00000283FF471AF037B5B077FF56DAFA9F13C
:106FD000030292B29D49B4F80500FDF791FC63E706
:106FE000042B79D1B4F80570B8B2FDF73BFC58B169
:106FF000027A41687780022A14BF02230123052008
:107000003070737003205FE06F800A2264E0DFF865
:1070100040B2B4F80500B4F80710CDF840B04FF016
:107020000203A9F107028DF8443092B20BF102037A
:107030000093019210AB0CCBFDF7B6FD4FF6FF7A33
:107040005045814604D16368C3F30F236B80DCE7AE
:10705000CDE900774FF002038DF83430CDF830B031
:1070600001300CAB0CCB514680B2FDF79DFD504575
:107070001CBF00F1FF3080B207233370A6F80190E7
:10708000A6F803000022114604201DE0022B40F068
:10709000CD80B4F80500FDF7E5FB00283DD0037B6B
:1070A000990714D52B882CAA013B22F88C3D10A9F6
:1070B000B4F80500FDF7FEFB024648B9624BBDF887
:1070C00024200B2119701099FEF74AF8ECE60222F1
:1070D0006368C3F30F236B805B4B2079698858701A
:1070E00001261E7059801A71CCE7B4F80500FDF72F
:1070F000B9FB90B1037B1A0711D5A9F1030292B233
:107100005249B4F80500FDF7FBFB02460028DFD129
:107110004D4B132119700146D6E70122D8E703220F
:10712000D6E7A9F1050B1FFA8BFBBBF1020F02D0CA
:10713000BBF1100F7CD1464BB4F80500B4F8071032
:1071400010930023CDE900338DF844B010AB0CCB85
:10715000FDF72AFD4FF6FF73984206463FF473AFE2
:107160002B882CAA043B22F8963D09A9FDF7A2FB27
:10717000024608B16E80AFE7334BBDF81A205E803F
:1071800009211970911C597009993BE7A9F1050B68
:107190001FFA8BFBBBF1020F02D0BBF1100F47D1DE
:1071A0000027B4F80500B4F80710DFF8A4A0CDF864
:1071B00040A0CDE900775FFA8BFB8DF844B010ABAF
:1071C0000CCBFDF7F1FC4FF6FF79484506463FF43E
:1071D0003AAFCDE90077CDF838A08DF83CB001305A
:1071E0000EAB0CCB494680B2FDF7DEFC2B882CAAF7
:1071F0004845A3F10603074622F8963D18BF00F163
:10720000FF3709A9304618BFBFB2FDF753FB02464E
:107210000028AFD10C4BBDF81A205E8011211970E7
:10722000111D59709F80099905204DE7042253E7ED
:10723000024651E7074B109310A90223CDE91277BC
:107240001193FDF765FF2FE67E010020AF010020BE
:10725000B101002011000020FEE7000008B5FEF794
:107260002DFF064B0649074A8B4201D3FCF74CFF22
:1072700052F8040F43F8040BF6E700BF100000209B
:10728000B4000020DCDC000038B5044600F0F7FA5A
:107290000FCC044D0FC594E80F0085E80F000020C7
:1072A00038BD00BFCC26002047F6FF739A42F0B5E8
:1072B00055D0022955D82C4BCE00981913F831100F
:1072C0008478012CB8BF012401290DD1C3781B1B80
:1072D00023B1416831F91310914202DC1819C0B290
:1072E000F0BD013B1BB2F3E740680028F8D0B0F9CD
:1072F0000050954204DBB0F902509542B8BF1546E4
:10730000334428215B78A5F1C80292FBF1F2524286
:10731000591E12B28A42A8BF0A464FF47A7700EB90
:10732000C2060132F188B66812B215FB016121EA8A
:10733000E1719A4201F5FA71B1FBF7F104DA00EB61
:10734000C206B6888E42EAD200EBC20232F8040CC2
:10735000884228BF0846A04238BF2046BFE7FF202A
:10736000BEE70020BCE700BFCC26002070B50E466B
:10737000044678B1084D2B7863B9084B186000F0CB
:1073800035F83146204600F021F8031C18BF0123D0
:107390002B7070BD0020FCE7F0260020EC260020BA
:1073A0000846114600F036B800B10C3003F09CBD21
:1073B00000B10C3000F028BA7047431E012B03D9EE
:1073C000031F5842584170470120704738B50446A2
:1073D0000D46002100F027FA2946204603F038FC2C
:1073E00000280CBF2046002038BD000010B5044620
:1073F00002F01EFF44B1054AD4F88030002B08BFCC
:107400001346034A136010BD636FFFDEB9730000BB
:107410001C00002010B50C4602F02CFF1CB102F03D
:107420008DFF0128FBD110BD00B10C3003F08EB8E8
:1074300000B10C3003F068BC2DE9F04FDFF870911B
:10744000594F85B004468DF80F308B46164603F031
:1074500047FEB9F8005003F051FE00283BD1002E42
:107460003DD0386002F06AFF012864D1DFF844A102
:10747000A26EDAF80030E06E002B64D0934265D043
:107480001D68116802680DB18D426ED0204603F070
:107490002BFB01220023CDE901230546D4F87C8093
:1074A000B8F1000F72D0002211460DF10F032046F3
:1074B000C04745BBD4E91A23CAF800203B60DEB9B7
:1074C000029B002B58D1019B002B55D1002528464B
:1074D00005B0BDE8F08F00233B6003F007FEE36ECC
:1074E0003A689342BED1002BBCD05D45EED002F08D
:1074F00025FF0128BAD01EE0C9F800B03146204669
:1075000003F03EF905460EB9019B83B1B5FA85F04B
:107510004009332100F00CFA9DF80F10204603F0CB
:10752000EFFA224BE16E1B68A4F10C009847284645
:1075300005B0BDE8F08F012002F09CFE02F0FEFED7
:107540000128FBD192E7116802689FE7396800299A
:1075500096D0814294D1B5EB0B024FF0000318BFD7
:107560000122019302921D4698E7396811B109681A
:10757000914205D0596889E7C9F800B00199BEE782
:10758000002302931D460123019387E7217994F894
:10759000B4309DF80F20994228BF1946204603F0C9
:1075A0006EF8002DAFD185E7FC2600201C000020DE
:1075B000F4260020F82600202DE9F04F074683B07E
:1075C0000E46FDF71DFDFB6E824613B13B89B342AB
:1075D00057D0D7F86880B8F1000F60D0D8F80840CD
:1075E000002C5CD0D8F80C10002958D0FB6F019308
:1075F000002B5CD04FF00009CC464D46A7F10C0B98
:1076000001E0D8F8084005EB450204EBC20401355F
:10761000E289B24216D8228AB242584612D3B4F94D
:107620001210B7F9F6C08C4501EAE17218DD97F83F
:10763000A810FFF739FE3A798242814610D9D8F86E
:107640000C10A4468D42DCD3BCF1000F07D150468C
:10765000FDF70AFD0124204603B0BDE8F08F644623
:107660000023194622463846019DA84707F1B80372
:1076700022463146384603F052F83E81FC6687F8D0
:10768000B490002331461A463846FFF7D5FE04462B
:107690005046FDF7E9FC204603B0BDE8F08F5046A8
:1076A000FDF7E2FC0324204603B0BDE8F08F9946C5
:1076B00018461D4647F6FF7BA7F10C030FE097F82D
:1076C000A810FFF7F1FD3A7982428146CED9D8F869
:1076D0000C10019B2046A94217D9D8F8084005EBA9
:1076E000450204EBC2040135E289B242F3D8228A92
:1076F000B242F0D3B4F9121001935945184601EA89
:10770000E172DCD14FF0FF09B0E700289FD00446BA
:10771000ACE70000F8B50D1C18BF01250E46074662
:107720001F21284600F004F90024304600F07EF9BD
:107730001F21284687F8C440C7E91A6400F0F8F80A
:10774000F1684FF6FF721820E3B28B420BD3154657
:107750000A4A002313600A4A294638461360FFF795
:107760002BFF2846F8BDB56800FB0353DD89954221
:1077700002D2002DECD02A460134E5E7F82600209D
:10778000FC260020008970470A7838B50546104667
:10779000FFF713FE60B14C782046FFF70EFE38B1BC
:1077A0002243530704D42846BDE8384002F0E8BE1F
:1077B000012038BD00B10C30FFF7E6BF10B504461C
:1077C0000878FFF7FAFD58B14A781046FFF7F5FD43
:1077D00030B1042A04D02046BDE8104002F0FABEC1
:1077E000012010BD00B10C30FFF7E8BF30B4DDE977
:1077F000024500B10C30CDE9024530BC02F0C8BCF6
:1078000000B10C3002F028BE70B504460D46164695
:10781000FFF7D2FE30B9324629462046BDE8704017
:1078200002F0B8BD70BD03F071BC38B5044600204D
:107830000D4600F0F9F84CB1D4F8883043B9294628
:1078400004F10C00BDE8384002F038BFE36FFFDE02
:10785000022038BD38B5044648880D4600F0E4F8EB
:107860004CB1D4F8883043B9294604F10C00BDE886
:10787000384002F0DFBEE36FFFDE022038BD00F0CB
:10788000D4B838B505460C46FDF7BAFBA9696B6953
:107890000C4023436B61FDF7E7FB00200CB900218E
:1078A00038BD8021FCE700B10C3003F072B800B1A4
:1078B0000C3003F088B8000007B502AA4FF400733B
:1078C00022F8023D0749FFF7F2FFBDF80630B3F595
:1078D000007F05D1022808BF002003B05DF804FB3B
:1078E0000120FAE7002700200846114602F0BABF3F
:1078F00000B10C3003F03AB838B5154658B100F174
:107900000C0411B1204603F075F835B12046BDE8EE
:10791000384003F0BDB80446F3E738BD024B1960A8
:10792000024B1860FEE700BF20000020240000206A
:1079300008B528B9034B1960034B1868FFF7EEFF31
:1079400008BD00BF20000020EC260020034618B12F
:107950005B7B0C3013B108475B78FFDE0220704779
:1079600010B5044603F006FC20460321BDE8104094
:1079700002F06ABC00B10C30FFF7F2BF0149FFF71B
:10798000E5BF00BF71B100000149FFF7DFBF00BFD5
:1079900023B1000070B51E46437805461446D3B1A6
:1079A00091FAA1F1080A02F043FEE30703D5284645
:1079B00003F0E9FB68B1AA20214603F0EDFB9DF836
:1079C0001020442082F00102314603F001FC002027
:1079D00070BD5520F0E70220FAE710B49DF804408E
:1079E00001940C305DF8044BFFF7D4BF431C08D062
:1079F000044AD2F83C311B0C1B0480B20343C2F88A
:107A00003C3170470040084010B504460846FFF777
:107A1000EDFFE36E33B15B6923B14A1C08BF6FF021
:107A200001011960002010BD70477047024B3121E1
:107A30005B680120FFF77CBFB081E00F38B50D46D1
:107A4000044600F07DFEAC4042F2107164094C43E4
:107A50006423B0FBF3F0B4FBF0F038BD034B1A68BD
:107A600002609B8883800020704700BF2E000020AA
:107A70000F4B0228D3F8883104D183F40010C0F3EF
:107A800040507047012805D113F4400F0CBF01206E
:107A90000020704748B9074A506A10F0010005D02D
:107AA00083F48000C0F3805070470020704700BF0F
:107AB00000400E40B081E00F0B4B5B88B3F5E16FE7
:107AC00095BFC8235A237822502298428CBF17238F
:107AD00010230B70054B1B7823B1904294BF0020FC
:107AE00001207047184670472E0000202C0000200F
:107AF00013B51B4B1B78032B04461ED00DF1070159
:107B0000FFF7DAFF9DF807301E2C4FEA032343F4FA
:107B100040434FF0010212D912490A6090B9124A4B
:107B200001211160C8B1114A4DF60171116002F1D5
:107B3000007213600E4B08221A6002B010BD0D498E
:107B40000A6040B10C4A4DF60171116002F10072F9
:107B50001E2C1360E3D8094AE2E7094BEBE700BFAC
:107B60002E00002008410846204108461C410844D8
:107B70009440084608410844044108442041084410
:107B8000944008440A4B0B4AD3F88831DB4303F492
:107B9000FE1343F40053B3FA83F3C3F1FF2303F559
:107BA0007F03F233C3EB4313013B1370704700BFF5
:107BB00000400E4036000020044B00281B780CBF0C
:107BC000042000201844C0B2704700BF36000020D7
:107BD00030B51F234FF0FF34B0FBF3F35D1CC3EB54
:107BE0004313AC40C01AE443C0B2E4B201301460A5
:107BF000086030BD2DE9F3411646404A404C1268FA
:107C0000404F14403A78012A054688461AD144EA82
:107C1000006488F80000002333607B88B3F5E16FCF
:107C20008CBF5A23C82324F47F549D4224F00804B7
:107C30009ABF200A00F47F5043F6C870204302B078
:107C4000BDE8F081304A1278904228BF1546002BDB
:107C500014BF042300232B440B70002D2FD12B4B7A
:107C600033606A46284601A9FFF7B2FF009A284B05
:107C700001981B7898F800C044EA823444F47F5499
:107C800044F0080444EA0064FBB122493878224BEE
:107C9000B2FA82F2C2F11F02022818BF0B46511C31
:107CA00017D09B5CD8B2316821F07F433360BCF1C0
:107CB000000F10D143F0306343F00403ACE74FF002
:107CC0003063013D3360EDB2CBE7FF204FF0FF3270
:107CD000E9E7FF20E7E7013203D0421ED2B2FD2AD6
:107CE00006D921F07F4323F0040343F07F4393E759
:107CF00043F0040343EA00638EE700BFE00F002176
:107D00003F00C0E02E000020360000200400000BE1
:107D100002290020B883E00FB083E00F73B504465A
:107D2000C820FFF7E5FE214B214E1B78032B01D025
:107D3000FF2C03D1FF20307002B070BD012B1BD18E
:107D4000072C204628BF072001284FF0000301AA76
:107D50000DF1030138BF0120FFF74CFF154B019ACD
:107D6000C3F85821144B18609DF803003070FFF7DA
:107D7000BFFE9DF80300DFE783B9042C10D81D4631
:107D80001846201A01AA0DF10301C0B2FFF732FF15
:107D90004FF4800345B1094A1360DFE70023EEE7A3
:107DA00001231D460420ECE7054AF5E72E000020DC
:107DB0002D00002000400840E00F00210841084647
:107DC0000841084408B500F087FE094B094A00281D
:107DD00014BF18461046036823F47F125B0803F4AF
:107DE000FE1313430360044B4FF00072DA6108BDC9
:107DF00000410840184108400040084008B500F024
:107E00006BFE4FF4001330B1044A1360044B4FF083
:107E100000621A6008BD034AF7E700BF004108444A
:107E20002040084418410844014B1868704700BFBF
:107E30000429002070B505460E46C0B201F00F01BE
:107E4000FFF7FCFDC6F303110446C5F30720FFF757
:107E5000F5FDC6F303210444C5F30740FFF7EEFD2B
:107E6000204470BD434B1B682DE9F047D0F8085102
:107E7000DFF82081404F414E03F4E073A3F5C07258
:107E8000002D08BF01258146504250413C4A1168EF
:107E9000A9423C4910D10C7884420DD199F8A8C070
:107EA00098F80040A44507D199F805C03C78A4454E
:107EB00002D1B088BDE8F087B3F5C07F15600870C7
:107EC00053D099F8A830022B46D12F4B1B78002BAA
:107ED00014BFC82496240F212046FFF7AFFDB5FA42
:107EE00085F3B0FA80F29B1A002BC4BFC3F10F0ACE
:107EF000D840264BD8BF4FF00F0A85424FEA0440C6
:107F0000D86603F1806303F1680340F6FF7238BF5F
:107F10000AF1FF3A1A6003F100734FEA0A2119606F
:107F2000FFF788FFB08000F00BFC04FA0AF44FF46E
:107F3000FA735C4341F66A03B0FBF3F0144BB4FBF5
:107F4000F0F40A2044431C6099F8A83088F8003007
:107F500099F805303B70ACE7012B08D00A4B1B7831
:107F6000002B14BFF024B424B5E70024B3E7322477
:107F7000B1E700BF18600840340000202E00002048
:107F8000280000200029002002290020006008406D
:107F90000429002035000020FF2807D0030103F446
:107FA000F87300F007001843064B9860FF2907D0CC
:107FB0000B0103F4F87301F007011943014B5960F9
:107FC000704700BFE00F002108B50D4B186800B1E5
:107FD0000C3000F071FD092810D80A4B01281B5CF9
:107FE00005D1094B1B78012B14BF0423442303F054
:107FF0000F011809BDE80840FFF7CEBFFA23F6E7E6
:10800000EC26002074C900002E000020F8B5334D86
:10801000334C344F064600F08BFB0023C5E9003398
:10802000AB603078FFF724FD28B903232370FF23CA
:108030003B700120F8BD33682360B388A380C8205B
:10804000FFF756FDFF232A683B70274B1340227829
:10805000022A1BD1254A4FF4EE41116002F1007251
:108060004FF48A41116043F08043012143F0200323
:1080700042F8041C194A13601D4B03221A60FFF7D3
:10808000A3FF1C4B01221A700020D3E7012A1A4ECD
:108090001A4D1B4C1B481C494FF007020ED1326091
:1080A00003262E60226006220260184A0A60184ADF
:1080B00043F003034FF440411160DBE732600426D4
:1080C0002E6022600522026043F08043C0220A60D5
:1080D00043F014030F4A8121EEE700BFE00F0021B7
:1080E0002E0000202D0000202800C0A024410844BC
:1080F0005841084401290020004108440041084635
:108100000C4108440C41084608410844C1004000A5
:1081100004410844084108462DE9F04B2B4F2C4BF5
:108120003B6000F00DFB4FF4FA634FF47A76DFF812
:10813000B880B0FBF6F56B434FEA032B4FEA136CA4
:108140001BEB08004FF000094FF00003214A4CEBF5
:10815000090103F02BFDA0F580730446BB6218B93A
:108160002B21FFF7E5FB012406FB04F2002756084C
:10817000B8194FEA05283B4648F1000103F016FD07
:10818000154B1960154B270606461860240A25B9B9
:1081900028462B21FFF7CCFB01254FF47A73A7FB70
:1081A000037803FB04886C0838194FF000032A4653
:1081B00048F1000103F0FAFC094B1960094B186003
:1081C000024B013E1E63BDE8F08B00BF005008402B
:1081D0000011010040420F00142900201029002046
:1081E0000C2900200829002020A10700044B4FF093
:1081F0008052C3F880211A60024B01225A607047F6
:1082000000E100E000500840054B02011344012248
:108210001A604FF4807303FA00F0024B58667047FF
:1082200074500844005008402DE9F04114460746B8
:108230000D461E46FCF7E4FE022C64D03D493E4A42
:10824000D1F800E092693D4B844600214FF0004098
:10825000E2FB0E011B68D5F800E0012C08BF0EF10F
:10826000010E03FB021308BF9E44A3EB0E0308BFDD
:10827000C5F800E0B3F1804F4AD33149314BD1F812
:1082800000802D4D1B682D6B4FF000400021EEFB50
:10829000080103FB0E13AB4288BFE843264D07F1EC
:1082A000070105EB071E05EB011188BF1B18112004
:1082B000CEF880304860A969E86DA3EB020E8A1AF7
:1082C00096451FD84FF48073BB4018421AD12CB387
:1082D000F1072B6608D51C4B1C4941F61F7240F272
:1082E00001101A6008601A60B20706D5164B1749CC
:1082F000174A18481A6008601A60730742BF164B85
:1083000001229A606046FCF7AFFE0120BDE8F081D3
:108310006046FCF7A9FE0020BDE8F0810F4A3F014E
:108320003A440121604611606B66FCF79DFE2046D1
:10833000ECE700BF08290020005008400C2900206D
:1083400010290020142900206C5008446C50084665
:1083500000001F1F00000101004008407450084445
:10836000024B0001185800F001007047745008409B
:1083700001F460010001024B41F003011950704704
:108380007450084008B5222000F008F9024B4FF461
:1083900080225A6008BD00BF00500840064B10B54F
:1083A0001968064B1C684FF000420023E0FB0423D1
:1083B00001FB003010BD00BF0C290020082900205F
:1083C000014B9869FFF7EABF00500840FFF7E6BF8E
:1083D00038B50446FFF7F4FF0546FFF7F1FF401BF1
:1083E000A042FAD338BD000038B50446FCF738FE89
:1083F00014F4C00F054649D0274A91688909C1F392
:108400000903890525494968906948BF6FEA835384
:10841000C2B248BF6FEA9353000648BF62F0FF0242
:108420001F4812F1460FC06D30DB13F5007F2DD0D1
:10843000B3EB820F2ADC01F07063B3F1806F02D0DE
:1084400011F0506F22D1C00220D4FFF79BFF144BD4
:10845000DA6DD1021AD41A6F12B1104A012191605B
:10846000104ADA664FF4E0025A66A20207D55A6D46
:1084700012F0706F1EBF5A6D02F17F425A6524F4EC
:10848000C0042C2044F4801400F088F82846FCF73F
:108490001DFE204638BD00BF007008400040084067
:1084A000005008400000010138B5344B344C08221C
:1084B00005461A6001213348FDF712FF324B1D704B
:1084C0002378013B012B0CD8237CE07B01229A40CE
:1084D0000C21302313FB001303F1884303F52043E1
:1084E0001A602A4B00225A67002D40D06368002B87
:1084F00033D000F025F9626800EB5203B3FBF2F3CE
:10850000013B1B0243F0F8032278022A27D0032AFA
:1085100029D0012A2ED143F0020307221C494FF62D
:10852000FF70086001F100710B60184B5A67530728
:108530000CD5237CE07B01229A400C21302313FBD5
:10854000001303F18C4303F520431A604FF080437E
:1085500095B1104A1360002038BDF823D4E743F0EA
:1085600001030522DAE743F005030122D6E72A4694
:10857000F823D3E70022D1E7074AEBE7C8400E46CD
:108580001C29002000250A001829002000000840AE
:108590007C0008449440084694400844044BD3F8B7
:1085A0009430002BBCBF034BC3F88000704700BF62
:1085B00000400840000008404FF0006310B1024A3C
:1085C00013607047014AFBE7944008469440084412
:1085D00008B5064B06491A684FF00450920004F0A3
:1085E0008BF8BDE8084000F0BFBB00BF10D9000009
:1085F000A8C90000C0F30062034B33F8123080B208
:1086000040EA0340704700BF7EC9000007B501A8DB
:10861000FCF7FAFC1A4B1B4AC3F8442148F2E672F5
:10862000C3F838214FF40862C3F83421164AC3F85E
:10863000A0209DF80530012B144B05D19DF8042096
:10864000012A9CBF28221A654AF63F429A60104BC5
:108650004FF0C0729A62A3F540530022C3F8FC2089
:108660000C4AC3F89C2003F18063A3F6DC737F22DD
:108670001A6003F1007323221A6003B05DF804FB53
:1086800000400840C0E653517A27000F00300840F0
:1086900000700840806D630308B50D4B40F2FD1279
:1086A000C3F8C820FFF7B2FF0A4B03221A600A4B37
:1086B0004FF4C012C3F8942003F1C0639433012235
:1086C0001A6000F04BFB054B4FF460721A6008BD56
:1086D00000400E4098600846004008400C400846A4
:1086E0000F4B002210B5C3F88820C3F88C20C3F8C4
:1086F00090200C4A012111605A6812F0706FFBD172
:108700004FF00452DA67012402F6B872C3F88040D1
:108710001A66054B1B689847044B1C6010BD00BFD0
:10872000004008400C400846380000200C40084437
:10873000024B40F2FD12C3F8C820704700400E40C3
:1087400008B5FDF7E1FC044BD3F81031C3F308235F
:108750000133B0FBF3F008BD00400E40F8B504460D
:1087600028B102F013FD012521684B1C00D1F8BD92
:108770000846C1F30746FFF73DFF012E03460CD91B
:10878000B600A1192246031B9F1852F8040F386047
:108790008A42F9D104363444E6E7090F60680834A8
:1087A0000729E1D8DFE801F00A0408110C0F1417BB
:1087B000C04303F1806301E01A6850401860D3E7BA
:1087C000FFF706FED0E705FA00F003F1C063F5E716
:1087D00005FA00F0EDE71A6830EA0202FBD1C3E7C0
:1087E00008B5FFF7ADFF064A126B034690B228B1F9
:1087F000C2F30742DB085343B3FBF0F008BD00BFF0
:108800000060084010B50446FFF7EAFFC4F3011307
:10881000012B02D0022B02D010BD4008FCE7C4F3AC
:10882000C4240134B0FBF4F0F6E700F03003202B51
:1088300010B512D1C0F302441CB1C0F3C423B3FB82
:10884000F4F410F4C01F18BF64006408032C28BFA0
:108850000424FFF7D7FF604310BDC0F38213012B40
:1088600001D0042B01D10224F3E70124F1E7000039
:108870002DE9F8431A4EDFF870800746B146FCF741
:10888000BFFB7568D8F808309B09C3F309049B0542
:10889000D9F80430C3F3036348BF6FEA8454A3F1EB
:1088A000020348BF6FEA9454012B24B211D8C5F3D8
:1088B0000365023D012D8CBF00250125FCF7D4FB8B
:1088C00014F5007F07D10DB1002FD8D12046BDE8A7
:1088D000F8830025F2E7034B002D08BF1C46F5E79F
:1088E0000040084000FEFFFF00700840024B0122DC
:1088F00018619A60704700BF00200840074B196854
:10890000074B5B6801F00F02C3F3036300B1037010
:108910009A4208BFC1F3031210467047800F00212E
:1089200000400840024B1B6803B11847704700BF66
:108930003029002030B5164C164A2568164C936B2A
:10894000246805FB0343146B144A154D1268E402B6
:108950004CBF9B189B1A134C134AB3F1804F88BF2E
:108960001446124AB3FBF2F22A445278D3400B6009
:108970000F49B3FBF1F10D441203697803EB540383
:1089800042EA8122B3FBF4F3013B1343036030BDA1
:1089900034290020003008403C29002038290020DC
:1089A00082C90000E0673500C0CF6A0040BE4025A4
:1089B000401B5F1338B505460C46FDF779FB0246B0
:1089C00018B92B21FEF7B4FF0122B5FBF2F36420A6
:1089D00002FB13556843B0FBF2F000B9013B5A08A3
:1089E000013A01335B08072A03F1FF330D4903D82D
:1089F000072B01D89AB993B9002008700A48097862
:108A0000062505600948007821B118B108490220FF
:108A1000086000201B0243EA0213236038BD0120D6
:108A2000EBE700BF41290020944008444229002080
:108A30009440084638B5154D2B780C4623B9144B95
:108A40001B6D03F03F032B70124BD3F894305B0681
:108A50001AD5114BB0FBF3F040F24D534343A3F54D
:108A600046430C3B584300F5C91000F5556018B952
:108A70002B21FEF75DFF01202A78084B5343B3FBFF
:108A8000F0F02060002038BD0220FCE743290020E0
:108A9000003008400040084000366E018096980083
:108AA000014B1868704700BF3C290020014B186833
:108AB000704700BF34290020064B1B68C3F3C20275
:108AC00003F0070002B15043C3F3821303B15843CC
:108AD000704700BF34300840034BD3F8380180F0B2
:108AE0001000C0F3001070470040084061B1074B10
:108AF000B3FBF1F3984207D3054BB3FBF1F1884286
:108B00008CBF002001207047002070470037178974
:108B1000007DDAAC2DE9F047894614469A46DDE936
:108B20000886FFF7C9FF054601464846FFF7DEFF06
:108B300020B90E21FEF7FCFE022033E0FDF7B8FA63
:108B40000746002DF8D00028F6D015F1FF3318BFE6
:108B50000123CAF800301E4B1B68C3F3130300EB5C
:108B60005502B2FBF5F2A2FB0301C20C194B42EA1B
:108B700041321A60184BC3F800900A9B09FB05F1BB
:108B80001960164B1C60164B9F420DD1154B6C4360
:108B9000A1FB0301A4FB03458A09AB09C8F8002027
:108BA00033600020BDE8F0873A460023C804490B33
:108BB00002F0FCFFC8F80000E004630BA0FB050115
:108BC00005FB03113A46002302F0F0FF3060E8E7AE
:108BD00030300840382900203C290020342900206A
:108BE00000F049020A3BB2DF1FB501A902A8FFF756
:108BF000A1FE0B4B43F6FF521A6003F10073029A79
:108C00001A6003A90198FFF7D5FE064B4FF4EE62F8
:108C10001A60039A03F100731A6005B05DF804FB53
:108C2000A44008443040084438B50D4B05460C4676
:108C30005868C0F303600428FAD00A28F8D0B0FAC4
:108C400080F00F214009FEF773FE064B9D631CB1B7
:108C500003F5805380229A60BDE83840FFF7C4BF17
:108C6000004008400030084038B5154B154C164DF3
:108C70004FF40022B0F1804F8CBF20461846134BB2
:108C80002A601B68D3B1124B124C1B6F00F5F42005
:108C900000F59070B0FBF4F4033CE4B203F007037A
:108CA000A34202D02046FCF7C9F90B4B1B782BB12D
:108CB0000A4B4FF4702224041A602C6038BD00BFA8
:108CC000E0673500C0CF6A00944008468009C6437B
:108CD00000300E4040420F004029002094400844DC
:108CE00030B5134B0446186887B000B10C3005ABA3
:108CF0000293104B0193103B0093D4E9001204AB94
:108D0000FFF708FF054668B9049A10236AB10A4ABA
:108D100013600A490598FFF78DFEFFF765FF20688D
:108D2000FFF7A2FF284607B030BD054AF0E700BFB5
:108D3000EC2600203C3008403841084650300840BE
:108D400038410844034B01221A70034B1868FFF79F
:108D50008BBF00BF402900203C290020014B40224E
:108D60001A607047944008467FB51D4B1D4D93E82F
:108D7000070001AC84E80700802200211A4803F0B4
:108D8000C6FC1A4B1A684FF0045392001A44043A76
:108D90004FF6CE2693420BD302F056FD144B1B78B0
:108DA00023B194E807000E4B83E8070004B070BDC0
:108DB0009988B14211D1B3F9021000290DDA11F1ED
:108DC000780F0ADB188820F4E060B0F5404F04D13A
:108DD0002944080C9880598004330233DAE700BF35
:108DE000E00F00215C2A0020800F002110D9000034
:108DF00001290020064BA0221A60102243F8882C7B
:108E0000044A4FF000731360034A5366704700BF73
:108E10008840084468500844005008402DE9004844
:108E2000FCF7EEF8144B1978E9B9144BD3E9002399
:108E30004FF0000C02F4084B5BEA0C0313D1104B0B
:108E400010221A600D4BD3E900234FF0000C02F4FE
:108E5000807B5BEA0C030BD1094B20221A60BDE832
:108E60000048FCF701B9074B10221A600029E9D02D
:108E7000044B20221A60F2E75129002048290020E3
:108E80009440084494400846044B00221A70044B56
:108E9000197811B11A70FFF7C1BF7047522900202D
:108EA0005129002008B5FCF7ABF80A4B5B68C3F307
:108EB0000363032B06D1084A536823F0F00343F001
:108EC000E0035360054B40F201225A62BDE80840BE
:108ED000FCF7CAB800400840800F0021000008409D
:108EE00008B5FCF78DF8234B4FF00062C3F88020E3
:108EF000BFF34F8FBFF36F8F8022C3F88020BFF383
:108F00004F8FBFF36F8F0222C3F88020BFF34F8FC4
:108F1000BFF36F8F0822C3F88020BFF34F8FBFF3DA
:108F20006F8F1022C3F88020BFF34F8FBFF36F8F76
:108F30004FF08052C3F88020BFF34F8FBFF36F8F85
:108F40004022C3F88020BFF34F8FBFF36F8F2022E2
:108F5000C3F88020BFF34F8FBFF36F8F4FF0804275
:108F6000C3F88020BFF34F8FBFF36F8FBDE8084079
:108F7000FCF77AB800E100E02DE9F84F0A9E0B9F5C
:108F80008046894602EA000A03EA010B3740002EB8
:108F90003FD1002908BF01281ED0C0F07D810029E3
:108FA00008BF042850D1FCF72BF8BC49D1E90023B5
:108FB00022F0040444EA0A0243EA0B03C1E9002355
:108FC0005AEA0B0314BFB64AB64A4FF480631360E3
:108FD000BDE8F84FFCF748B8FCF712F8AF49D1E903
:108FE000002322F0010443EA0B0344EA0A02C1E928
:108FF0000023AD4A5AEA0B034FF001031DBF9363F0
:1090000002F1C0623C32A94912BF13600B60936346
:10901000DEE758EA090317D1012E15D1FBF7F0FF5F
:10902000A34A136823F001033B4313604FF48063AA
:10903000A04A2FB1536602F1C06268321360C7E7DD
:109040009D490B605366C3E7FFF74AFF934BD3E993
:10905000004525EA090224EA080142EA0B09944A7C
:1090600041EA0A08C3E90089136823EA06063E4379
:109070001660FFF7D3FE08F02A52002313438F4AED
:109080008F49126848F2020308BF4FF40043B0074B
:1090900048BF43F4005322EA03070F6001F17C410B
:1090A00083EA0200043923EA0203864A0860136057
:1090B000002308F40032134308F480204FF000012D
:1090C00014BF4FF48053002350EA010208F010004F
:1090D0004FF0000118BF43F4807350EA010208F01A
:1090E00020004FF0000118BF43F4005350EA010282
:1090F00008F040004FF0000118BF43F4007350EA3D
:10910000010208F080004FF0000118BF43F48063B3
:1091100050EA01026C4A6D49126818BF43F40063BB
:1091200022EA03070F6001F17C4183EA020004395F
:1091300023EA0203664A0860136009F080030022F4
:10914000134308F480504FF0000114BF4FF4802304
:10915000002350EA010208F480304FF0000118BFEC
:1091600043F4803350EA010208F002004FF000019E
:1091700018BF43F4801350EA010208F480104FF046
:10918000000118BF43F4001350EA010208F4002064
:109190004FF0000118BF43F4002350EA010209F028
:1091A00004014FF0000018BF43F4003350EA0102FD
:1091B000484A494818BF43F480037107116848BF03
:1091C00043F0040383EA010222F00102114001602E
:1091D000424913400A60424A37491360414A424BB0
:1091E00016F0010F18BF1346404A126822EA03071F
:1091F0000F6001F17C4183EA0200043923EA020393
:109200003B4A086013603B4B28491B6808F0010487
:1092100023EA04070F6001F17C4183EA040024EA99
:1092200003020439344B08601A6008F4001200236A
:109230001343324A324B1B4808F004044FF0000538
:1092400018BF134654EA050218BF43F4806332077F
:109250002C4A116848BF43F0004383EA010222F41C
:10926000A02211400160284913400A600C4A136093
:10927000FBF7C6FE254B4FF000621A6080221A6091
:1092800008221A6010221A604FF080521A604022A1
:109290001A6020221A609BE6BDE8F88F482900205A
:1092A000EC100846EC100844007008403C7008447C
:1092B0004429002000500840685008446C000840D1
:1092C0006C0008446C0008468C6008408C600844C0
:1092D0008C60084620400840204008441C4008405C
:1092E00020400846001C70000018700068500840BC
:1092F000685008463C7008403C7008460D0A0A0950
:10930000090A0A09EC100840E810084000E100E0F2
:10931000024B5868C0F34000704700BF4829002046
:10932000024B186800F00100704700BF4829002078
:1093300010B50446FFF7B0F9FFF7D2FD04F128009D
:1093400002F0AAF8FFF7CCF9FEF7E6FEFEF74EFFB3
:1093500002F0ACFA072104F1800002F0F1FA4FF4B8
:1093600040010020FFF704F84FF400110120FEF740
:10937000FFFF02F0F5FB10B91421FEF7D9FAFFF751
:10938000E1FC0120BDE81040FFF78EB8044B8022BD
:109390001A60044A136823F020031360704700BF6B
:1093A00088400846E4290020674BDB68DA0740F173
:1093B00085802DE9F04B0C4682B00546FBF720FE78
:1093C00023790022022B064600923FD1237B022BF9
:1093D00035D00320FEF7C4FF20B95C4B5B685B040B
:1093E00040F19F80A37B277B5949A26801920033FB
:1093F00018BF0123012F0B7062D0564C56492278BA
:1094000000230B70002A66D14F4D0420FEF7FCFEAE
:10941000EB6E23F0F85323F4F81343F0506343F456
:109420008033EB663A46022301A90420FEF7FCFED6
:10943000002871D0494B0121302221701A6030463A
:10944000FBF712FE002002B0BDE8F08B0320FEF710
:1094500087FF002865D12179B5F89020236801297C
:1094600056D09B1A0093384B3D4ADA6600221A67A1
:10947000677B3C4A3C4813683C49002F0CBF0127DE
:10948000002707704FF001000CBF43F0200323F0CA
:109490002003087003201360FEF7B6FE2A4B344AFF
:1094A000DA662279012369460320FEF7BDFE002813
:1094B0008CD13046FBF7D8FD0120C4E7032070476C
:1094C0002379022B99D0B5F8903000990B441A44B7
:1094D0000192002791E72370FBF792FD23783BBBB5
:1094E000244BD3E900BC4FF000090BF4084858EABC
:1094F000090321D1204910250D600BF4807200234F
:1095000013431DD0154B20221A60FBF7ADFD7BE7FE
:109510009342A6D20090A6E70320FEF775FE104BFB
:10952000EB663046FBF7A0FD032002B0BDE8F08BF0
:109530000A4B10221A60E5E7084910250D60DCE7A8
:109540000D4B20221A60E0E7005008400040084020
:109550005429002051290020522900209440084617
:1095600000000101E4290020552900205329002092
:10957000010C01004829002094400844F7B5214D12
:10958000EB68DA0707463AD5FBF73AFD06460320B3
:10959000FEF7E6FE18B9EC6814F0060405D0304674
:1095A000FBF762FD032003B0F0BD174B1C70FFF703
:1095B000EDFE164BEB662C677879431E58425841F6
:1095C00001F086FA0320FEF71FFE40F601432B67E9
:1095D00002A93B6841F8043D3A7904230320FEF7D1
:1095E00023FE38B90A4B802230461A60FBF73CFD57
:1095F0000120D8E73046FBF737FD2046D3E70320AC
:10960000D1E700BF005008405329002000000101AD
:1096100088400844F8B5094D094E0A4FD5F888200E
:1096200004243460D5F888305B0300D4F8BD3C6076
:109630000220FEF7CDFE3460F4E700BF0040084092
:10964000884008468840084410B508B901B910BDE3
:109650001748184C02464368C3F30363032B04D135
:10966000236803F00F03032BF5D139B95368C3F313
:109670000363012BEBD813689A06E8D40C4C002046
:10968000FFF73CF9032801D0092806D1D4F88C3023
:10969000DB03F4D4636F0C2BF1D9FFF7BBFF064B50
:1096A00001221A6003F17E437C3304221A60CEE764
:1096B00000400840800F00210C4008462DE9784802
:1096C0000446FBF79DFC064601F09CFE34B1FFF713
:1096D000DBFB3046BDE87848FBF7C6BC0B4B1B787C
:1096E000002BF6D00A4C2578002DF2D1FFF7CCFBE9
:1096F000084BD3E900BC2A4601230BF4005000219B
:10970000237001F029FC2570E3E700BF52290020F7
:1097100050290020482900202DE9F843384C804684
:109720000F46164601F0FEFBA02323600320FEF740
:1097300017FE28B10320FEF767FD0420FEF764FD45
:10974000304B314ADA6600221A67FFF763FF2F4A6F
:109750002F4D136843F0200313602E4BFF221A6035
:109760004FF004094FF48073AB60C4F80090B8F177
:10977000000F08D0FFF796FBFEF704FE2023AB6036
:109780004846FEF741FDEB68DB0737D5204A5368B2
:1097900013F0706FFBD1204B204A2360536823F0F5
:1097A000F003536017B13046FFF788FF1C4B5B682E
:1097B0001C4B01221A600EB31B4BDA6E9A6603F53E
:1097C00080431A6ADA6103F50053D3F88C20C3F89A
:1097D0008820A3F54053DA6F9A67A3F50053D3F8B6
:1097E000EC20C3F8E82003F5C043DA6B9A63A3F5D5
:1097F00000530E4A5A664FF47C432360BDE8F88359
:10980000884008440050084000000101E42900207D
:10981000004008400040084410003000800F002144
:10982000B081E00F0C400844000008405000F002F6
:10983000844B196EDA6E11402DE9F04F996603F5ED
:10984000805387B0D3F8E000D3F8EC2000EA020A96
:10985000C3F8E8A003F5A043D3F88000D3F88C2028
:1098600000EA0209C3F88890A3F500535E691A6AFA
:109870001640754A3240DA61744AD068D76D0546A1
:10988000906E074027F4800020F4006050660029A5
:1098900000F0CF80080440F1A080D3F8880003F1E5
:1098A0008063883300F4E0541C60FFF7A3FA002CB7
:1098B00000F09880C20400F19B80430500F19E8077
:1098C0004FF080630024CDE900348C070FD5604B46
:1098D0006048D3F8883003F460420260002A40F008
:1098E0009380DDE9003443F40003CDE9003411F442
:1098F000005818BF4FF00208574B0AEA0303002B29
:109900003ED01AF4206F08D00020FFF7D7FE0621C2
:1099100000202AF4802AFEF70BF81AF0090F0AD06B
:109920004B4B20229A60A3F5405301229A620821F2
:109930000020FDF7FDFF1AF0106F0BD0444B2022E2
:109940009A6000221146104601F044FD09210020D2
:10995000FDF7EEFF1AF4202F08D00020FFF7AEFE2F
:10996000072100202AF4802AFDF7E2FF1AF4803F45
:1099700001D001F093FEBAF1000FB8BF48F008081B
:109980001AF0040F0DD0354B1A684FF40053002A1B
:1099900055D0334A1360DDE9003443F40013CDE9B8
:1099A00000341AF4806F05D0DDE9003443F004037D
:1099B000CDE900341AF48023039300F0CC8001F049
:1099C00029FE013806284FD8DFE810F0FF01060213
:1099D000FF010D0214021B021B0200230024CDE92B
:1099E000003472E74FF480030024CDE900346CE7C3
:1099F0004FF080530024CDE9003466E74FF08073C8
:109A00000024CDE9003460E7180406D5DDE9003410
:109A100043F00053CDE9003469E713F4005FDDE95A
:109A2000003414BF43F0007343F00063CDE9003409
:109A30005DE7002300248846CDE900345CE7094A4D
:109A40001360AEE7000008400000F7FF0050084038
:109A50000040084088400844090A0B89B4040243C6
:109A6000241008442410084603210020FDF760FF5D
:109A7000A14A1368116A03F007030633012202FAB0
:109A800003F3C1F30C015B1A9BB2032B14D99B4B5C
:109A9000D3F8883059020FD499499A480B68096A5B
:109AA000C06C78B103F0070306339A40C1F30C038E
:109AB000D21A92B2052A05D8DDE9003443F40073C6
:109AC000CDE90034904B1B78002B44D08F4BD3F85A
:109AD000E03013F4A02F3ED18D4BDFF85CA21B7851
